:100000000C9496030C9498120C9431130C94B30333
:100010000C94B3030C94B3030C94B3030C94FB1A29
:100020000C94B3030C94DA190C94CE1A0C94741A31
:100030000C94A11A0C9459130C941A1A0C94471A84
:100040000C9487190C94B3030C94071C0C94B30301
:100050000C94CF1B0C941D0A0C94B3030C94B303A3
:100060000C94B3030C94B30325642E004445565FEF
:100070004E4F545F464F554E44002D002D003032F8
:1000800020745F726561645F736C6F7420203A2026
:1000900025640A00303220745F726561645F7361A9
:1000A0006D7020203A2025640A00303220745F777A
:1000B000726974655F736C6F74203A2025640A005E
:1000C000303220745F77726974655F6C6F772020BF
:1000D0003A2025640A00303220745F7265736574BB
:1000E0005F72782020203A2025640A003032207484
:1000F0005F72657365745F74782020203A202564F0
:100100000A00303120745F636F6E7620202020203B
:1001100020203A2025640A004444313878323020C7
:1001200054696D696E670A002C005D0025640063E8
:100130006D643E004552524F523A2000636F6D6D20
:10014000616E64206E6F7420666F756E64002200AD
:1001500022007D3C2F25643E003C25643E7B2263CB
:100160006D64223A2200222C202264617461223ABA
:1001700020005D005D005D2C005B5D005B25642C54
:1001800020005B00435243204572726F72005B3067
:100190002C302C305D5D005D2C002C20002C2000CC
:1001A0005B005B0031002564005B25642C20256426
:1001B0005D005D002C002564005B0031000D0A002D
:1001C0000D0A0020307825780030782578257820B1
:1001D00030782578005B25642C2230782578225DE4
:1001E000005D002C006972715F706F72745F642231
:1001F0002C2264617461223A5B00224176723332B0
:100200003870436F6E736F6C6520333238502056F0
:1002100031342E30342E313122006F777770202028
:1002200020202020202020202020203A20777269C2
:100230007465206461746120746F207370656369F4
:100240006669656420706167650A006F7772702067
:100250002020202020202020202020203A207265ED
:1002600061642073706563696669632070616765A6
:100270002066726F6D20333832342064657669638E
:10028000650A006F7764617461202020202020209F
:10029000202020203A20726561642064617461200E
:1002A00066726F6D20333832342064657669636519
:1002B0000A006F7774656D70202020202020202098
:1002C0002020203A20726561642074656D7065722B
:1002D0006174757265730A006F777374617274204C
:1002E0002020202020202020203A20737461727466
:1002F0002074656D7065726174757265206D6561DD
:10030000737572656D656E740A006F7773617665DB
:1003100020202020202020202020203A20736176D9
:1003200065207363726174636870616420746F2008
:10033000656570726F6D0A006F77737020202020E2
:100340002020202020202020203A2073686F772052
:1003500073637261746368207061640A006F776C04
:100360006F616420202020202020202020203A209F
:100370006C6F616420656570726F6D20636F6E7461
:10038000656E740A006F77726F6D20202020202028
:100390002020202020203A207265616420726F6D39
:1003A000206F6620612073696E676C6520646576D6
:1003B0006963650A000A0A4F6E65776972652043B2
:1003C0006F6D6D616E64733A0A00726573657420B7
:1003D00020202020202020202020203A2072657319
:1003E00065742074696D6572300A00726573657496
:1003F0007768202020202020202020203A207265AD
:100400007365742074686520656570726F6D206116
:100410006363756D756C61746F720A0067657477DC
:10042000682020202020202020202020203A206723
:10043000657420616363756D756C617465642057C4
:10044000682072656164696E670A000A0A506F77F6
:100450006572204D6F6E69746F72696E6720436FAD
:100460006D6D616E64733A0A0073747265616D201C
:10047000202020202020202020203A207374617228
:10048000742073747265616D696E670A0064696FC8
:1004900020202020202020202020202020203A2042
:1004A000676574206469676974616C20706F727429
:1004B0002072656164696E67730A0061646320205D
:1004C0002020202020202020202020203A20676586
:1004D00074204144432072656164696E670A007448
:1004E0006573742020202020202020202020202020
:1004F0003A20746573742066756E6374696F6E0A52
:1005000000706F6B65205B7265675D205B76616C68
:100510005D203A2073657473207265676973746532
:10052000722076616C756520746F205B76616C5DFE
:10053000200A007065656B205B7265675D20202076
:10054000202020203A2072657475726E73206465D5
:10055000632C2068657820616E642062696E207665
:10056000616C7565206F662072656769737465726A
:100570000A00746573742020202020202020202071
:100580002020203A20746573742066756E63746948
:100590006F6E0A0069646E20202020202020202019
:1005A00020202020203A207072696E7473206465C8
:1005B0007669636520494420616E642076657273B4
:1005C000696F6E20696E666F0A000A436F6D6D6118
:1005D0006E64733A0A005A20202020202020202018
:1005E000202020202020203A20726573657420632B
:1005F0006F6D6D616E64206E756D62657220746FD3
:10060000207A65726F0A00492020202020202020B7
:1006100020202020202020203A20636C6561722059
:1006200073637265656E200A00432020202020201D
:10063000202020202020202020203A20666F726376
:100640006520696E7465727275707420300A00449A
:10065000202020202020202020202020202020209A
:100660003A2067657420706F727420442076616C44
:1006700075650A00496E7374616E7420636F6D6DE9
:10068000616E64733A0A005D006972715F746F761F
:10069000665F30222C2264617461223A5B006972C9
:1006A000715F635748222C2264617461223A005DB5
:1006B000006972715F31222C2264617461223A5B9D
:1006C000005D002C002C002C006972715F30222C20
:1006D0002264617461223A5B003031323334353642
:1006E00037383941424344454600000001000800C4
:1006F000400000010004000001000800200040004C
:100700008000000100041B5B25643B256448001B3E
:100710005B3F32356C001B5B3F323568001B5B254D
:10072000646D001B5B324A001B63000011241FBE76
:10073000CFEFD8E0DEBFCDBF11E0A0E0B1E0ECE14B
:10074000FDE302C005900D92A038B107D9F714E07F
:10075000A0E8B1E001C01D92AA37B107E1F70E94FD
:1007600004140C948C1E0C940000EFE2F3E0119240
:1007700083E0E833F807D9F7109238031092390371
:1007800010923A0310923B0310923C0310923D03E7
:1007900010923E0310923F0310924303219A299A2C
:1007A00080E090E00E94581E90934503809344039C
:1007B00082E090E00E94581E909347038093460386
:1007C00084E090E00E94581E909349038093480370
:1007D00086E090E00E944A1E80934A0387E090E002
:1007E0000E944A1E80934B0388E090E00E944A1EBC
:1007F00080934C0389E090E00E944A1E80934D0351
:10080000089580934303089502C000000197009764
:10081000E1F708951F93CF93DF93219A35B1C1E09B
:10082000D0E0CE010090430302C0880F991F0A94C4
:10083000E2F7282F2095232325B924B1282B24B9AA
:1008400080914603909147030E94040424B1CE0195
:100850000090430302C0880F991F0A94E2F7809525
:10086000822384B982E090E00E94040483B1009066
:10087000430302C0CC0FDD1F0A94E2F78C2383B937
:1008800013B180914803909149030E940404812F81
:10089000DF91CF911F9108951F93CF93DF93182F6E
:1008A00095B1C1E0D0E09E010090430302C0220F49
:1008B000331F0A94E2F7822F8095892385B984B18A
:1008C000822B84B980914A0390E00E940404112392
:1008D00069F094B10090430302C0CC0FDD1F0A946D
:1008E000E2F79E012095822F892384B980914B03E2
:1008F00090E00E94040424B181E090E00090430362
:1009000002C0880F991F0A94E2F78095822384B968
:10091000DF91CF911F910895CF93DF93299825B14F
:1009200081E090E00090430302C0880F991F0A9471
:10093000E2F7382F3095232325B924B1282B24B989
:1009400084B1832384B980914C0390E00E94040415
:10095000299A83B1C82FD0E00090430302C0D595F7
:10096000C7950A94E2F7C170D07080914D0390E072
:100970000E9404048C2FDF91CF9108950F931F9351
:10098000F89410E008E007C00E948C04879588273F
:1009900087951695182B0150B8F77894812F1F91E1
:1009A0000F9108950F931F93082FF89418E005C036
:1009B000802F81700E944C0406951150C8F77894DE
:1009C0001F910F910895DF92EF92FF920F931F9363
:1009D000CF93DF9380E091E00E940A15CFE2D3E04D
:1009E000DD24E990FF2400E010E08AE063E040E0CD
:1009F00020E20E9489158D2D883021F082E091E05F
:100A00000E940A15D3948D2D893059F784E091E026
:100A10000E940A15DF91CF911F910F91FF90EF90E7
:100A2000DF900895AF92BF92CF92DF92EF92FF9244
:100A30000F931F93CF93DF9380E091E00E940A15FC
:100A4000C8E3D3E0BB24AA24A3949CE2E92E91E05E
:100A5000F92E08E211E08AE2C82E81E0D82E8991B1
:100A600000D000D00F92EDB7FEB73196ADB7BEB74C
:100A70001196AC92F282E182838314820E942C163A
:100A80000F900F900F900F900F90BB2DB73041F447
:100A900000D00F92EDB7FEB7A182D382C2820BC005
:100AA00000D00F92ADB7BEB71196AC9211971396C6
:100AB0001C930E9312970E942C160F900F900F907C
:100AC000B394BB2DB83059F6DF91CF911F910F91A0
:100AD000FF90EF90DF90CF90BF90AF9008951F935D
:100AE00000D00F9211E0ADB7BEB711961C931197CD
:100AF00088E191E013969C938E9312970E942C1696
:100B000000D0EDB7FEB73196ADB7BEB711961C93C6
:100B100082E091E092838183809144039091450328
:100B2000948383830E942C16EDB7FEB73196ADB740
:100B3000BEB711961C938CEE90E0928381838091D6
:100B4000460390914703948383830E942C16EDB74C
:100B5000FEB73196ADB7BEB711961C9386ED90E007
:100B60009283818380914803909149039483838386
:100B70000E942C16EDB7FEB73196ADB7BEB71196F1
:100B80001C9380EC90E09283818380914A0383835D
:100B900014820E942C16EDB7FEB73196ADB7BEB7E2
:100BA00011961C938AEA90E09283818380914B0393
:100BB000838314820E942C16EDB7FEB73196ADB731
:100BC000BEB711961C9384E990E092838183809153
:100BD0004C03838314820E942C16EDB7FEB7319626
:100BE000ADB7BEB711961C938EE790E092838183D8
:100BF00080914D03838314820E942C160F900F90D6
:100C00000F900F900F901F910895F8948430D9F0B1
:100C1000853038F4823079F0833090F4813001F5FA
:100C200007C08630B1F0863088F08730C9F414C030
:100C300080E090E002C082E090E00E94741E10C04C
:100C400084E090E0FACF86E090E008C087E090E092
:100C500005C088E090E002C089E090E00E945E1E3E
:100C60000E94B503789408950F931F93CF93DF9359
:100C7000F89408E313E0C82FD0E023E0CC0FDD1F89
:100C80002A95E1F7C65FDF4FF80161918F01CE0130
:100C90000E945E1E2196F3E000341F07A9F77894A6
:100CA000DF91CF911F910F910895282F392FD901EE
:100CB000E8E3F3E08D91819383E0E134F807D1F725
:100CC0000895CF93DF9380913803882321F48CEC2F
:100CD0000E94D2040CC085E50E94D204C8E3D3E090
:100CE00089910E94D20483E0C034D807C9F7DF910C
:100CF000CF9108958CEC0E94D20484E40E94D20427
:100D0000089598E028E1362F382730FD02C0669517
:100D100003C0622766956068915011F08695F3CF05
:100D2000862F0895AF92BF92DF92EF92FF920F93BA
:100D30001F93DF93CF930F92CDB7DEB77C015B019A
:100D4000FB0110828C01DD240CC0F80181918F0120
:100D5000F501608149830E948106F5018083D39467
:100D60004981D41690F3F701E40FF11D81E0208151
:100D7000F5019081291380E00F90CF91DF911F91B1
:100D80000F91FF90EF90DF90BF90AF900895EF929A
:100D9000FF920F931F93DF93CF930F92CDB7DEB7E0
:100DA000E82E0E9461068EEB0E94D2040FE213E04F
:100DB000FF2406C00E94BE04F80181938F01F394C2
:100DC000FE14C0F319824E2D41508FE293E0BE0114
:100DD0006F5F7F4F0E9492060F90CF91DF911F911E
:100DE0000F91FF90EF9008950F931F93DF93CF9390
:100DF0000F92CDB7DEB719820E940A048CEC0E94D4
:100E0000D2040E940A0483E30E94D20408E313E0A0
:100E10000E94BE04F80181938F01F3E000341F07A4
:100E2000B9F7C8010897BE016F5F7F4F47E00E9486
:100E300092060F90CF91DF911F910F910895EF923D
:100E4000FF920F931F93DF93CF930F92CDB7DEB72F
:100E5000082F10E043E0000F111F4A95E1F7065FED
:100E60001F4F38E3E32E33E0F32EC8010E944A1EE1
:100E7000F70181937F010F5F1F4FF0E4EF16F3E05E
:100E8000FF0699F7C7010897BE016F5F7F4F47E0E4
:100E90000E9492060F90CF91DF911F910F91FF90CA
:100EA000EF900895CF93DF93EB0127EE33E0398382
:100EB00028832FE037E23B832A830E941F07882381
:100EC00089F10E940A040E947A068FEF93ECA9E050
:100ED00081509040A040E1F700C000000E940A0449
:100EE00089E00E94C7068823F1F05091300340E06A
:100EF00020912F0330E0242B352B3595279539830E
:100F000028836091350370E04FE85DEF649F9001A6
:100F1000659F300D749F300D1124205F384D3B8349
:100F20002A8301C080E0DF91CF9108950F931F9332
:100F3000DF93CF930F92CDB7DEB7082F0E940A043C
:100F40008CEC0E94D2048FE99FE00197F1F700C07A
:100F5000000088EB0E94D204802F0E94D2040E94DD
:100F60000A048CEC0E94D204EFE9FFE03197F1F71C
:100F700000C000008EEB0E94D204802F0E94D20499
:100F80000FE213E00E94BE04F80181938F01F3E0A9
:100F900008331F07B9F71982C8010997BE016F5FAF
:100FA0007F4F48E00E9492060F90CF91DF911F91F2
:100FB0000F9108950E940A048CEC0E94D20484E4EC
:100FC0000E94D2048FE798E3A1E081509040A040B6
:100FD000E1F700C000000E940A048CEC0E94D204D9
:100FE00084EB0E94D2048FE798E3A1E08150904007
:100FF000A040E1F700C0000080E00E9496070E9438
:10100000E3040E940A0408950F931F93DF93CF9384
:101010000F92CDB7DEB70E940A040E9461068FE9E5
:101020009FE00197F1F700C0000088EB0E94D20416
:1010300080E00E94D2040E940A040E946106EFE947
:10104000FFE03197F1F700C000008EEB0E94D20460
:1010500080E00E94D2040FE213E00E94BE04F80177
:1010600081938F01F3E008331F07B9F71982C80194
:101070000997BE016F5F7F4F48E00E9492060F9074
:10108000CF91DF911F910F910895DF92EF92FF9220
:101090000F931F93CF93DF93EC0187EE93E0DE0174
:1010A0008D939D937D018FE097E29B838A830E94BD
:1010B0000A0480913803803109F09DC089E00E94C4
:1010C000C706D82E3091300320E080912F0390E0A6
:1010D000822B932B99838883209130039595879554
:1010E0002F3FA1F599838883409135034C3068F0F8
:1010F00050E021E732E0429FC001439F900D529F94
:10110000900D11248C549D4173C00196998388835E
:101110006091350370E041E752E0649F9001659F64
:10112000300D749F300D11242C53364F3B832A838E
:10113000009709F0B0C000D00F9281E0EDB7FEB784
:1011400081838CE790E09383828333C09983888383
:10115000409135034D3008F43FC00197998388834F
:1011600080912F0340913503882349F550E021E712
:1011700032E0429FC001439F900D529F900D112479
:101180008C549D419B838A831982188280913503F8
:101190008D3008F480C000D00F9281E0ADB7BEB7AB
:1011A00011968C9311978AE790E013969C938E93F7
:1011B00012970E942C160F900F900F906CC050E069
:1011C0002FE83DEF429FC001439F900D529F900D2D
:1011D0001124845A9B4B0CC050E02FE83DEF429FF6
:1011E000C001439F900D529F900D1124845B924E3D
:1011F0009B838A8350C0883249F589E00E94C706E4
:10120000D82E3091300320E080912F0390E0822B84
:10121000932B64E0959587956A95E1F79983888388
:101220003091300320E080912F0390E0822B932BAC
:101230008F70907041E752E0849F9001859F300D40
:10124000949F300D11243B832A8325C0863271F48C
:101250000E9404088823E9F0809131038883198271
:10126000809130038A83F701118213C000D00F925E
:1012700081E0ADB7BEB711968C9311978CE690E0E4
:1012800013969C938E9312970E942C160F900F909A
:101290000F90DD24D39400D000D00F92EDB7FEB7AD
:1012A000319681E0ADB7BEB711968C9388E690E099
:1012B0009283818388819981948383830E942C16F1
:1012C0000F900F900F900F900F90EA80FB800027F7
:1012D000F7FC0095102F8AE064E040E020E30E94D4
:1012E00089158D2DDF91CF911F910F91FF90EF9078
:1012F000DF9008950F931F93182F062F0E940A0462
:101300008CEC0E94D2048EE40E94D204812F0E94B1
:10131000D204802F0E94D204802F8F5F0E94D204BB
:10132000802F8D5F0E94D204802F8C5F0E94D20498
:101330000E940A048CEC0E94D20488E40E94D20429
:10134000812F0E94D2041F910F910895EAE7F0E0E7
:101350008081877F808380818F7780830895EAE70B
:10136000F0E09081987F982B90830895ECE7F0E06F
:1013700090818295880F880F807C9F73892B808352
:101380000895CF93DF93CAE7D0E08881806888838F
:1013900088818F7D888386E00E94AF0981E00E946A
:1013A000B609ECE7F0E080818F7D808388818860DA
:1013B000888310924E037894DF91CF910895ECE7E3
:1013C000F0E090818F71907E892B80830895EAE709
:1013D000F0E08081806180838081806480830895D3
:1013E00080917A008074089510924E0390917C0051
:1013F0008F71907E892B80937C0080917A00806130
:1014000080937A0080917A00806480937A00809142
:101410007A0086FDFCCF2091780030917900932FDF
:1014200080E030E0282B392BC90108950E94F4098F
:10143000969587959695879508951F920F920FB66A
:101440000F9211248F938FEF80934E038F910F9003
:101450000FBE0F901F901895FC018FB7F894718301
:1014600060835383428317821682158214828FBF52
:101470000895FC019FB7F8944481558141155105A9
:10148000C9F026813781A081B181A20FB31F8C9151
:101490002F5F3F4F3783268362817381261737077B
:1014A00020F0261B370B378326834150504055834D
:1014B000448301C080E09FBF0895FC01AFB7F8945A
:1014C0002481358162177307A0F486819781860F86
:1014D000971F97838683428153818417950720F055
:1014E000841B950B97838683261B370B35832483B8
:1014F00002C015821482AFBF0895FC01CB012FB743
:10150000F89446815781840F951F628173810E94F0
:10151000CA1C0190F081E02DE80FF91F80812FBFD8
:1015200008951F93FC01162F4FB7F894A481B5813D
:1015300022813381A217B307A0F4868197818A0F95
:101540009B1FB9010E94CA1CA081B181A80FB91FBD
:101550001C93848195810196958384834FBF8FEF7F
:1015600002C04FBF80E01F910895FC014FB7F8946F
:101570002281338184819581281B390B4FBFC9019A
:1015800008952FB7F894FC01158214822FBF089597
:101590001092530310924F03109254031092510370
:1015A0001092500310925203109280011092810108
:1015B000109282011092830108951F93CF93DF93BD
:1015C0009C01EB011091520387E0189FC001112488
:1015D0008A579E4FB9010E94351EE12FF0E0EE0FB1
:1015E000FF1FE85AFD4FD183C0831F5F1093520342
:1015F000DF91CF911F91089590938501809384018D
:1016000008958DB79EB707970FB6F8949EBF0FBE8B
:101610008DBFEDB7FEB7319681E0ADB7BEB711967D
:101620008C9389E591E092838183809180019091F0
:101630008101A0918201B091830183839483A5836A
:10164000B6830E942C168DB79EB707960FB6F894F6
:101650009EBF0FBE8DBF0895E0915003F0915103DE
:10166000309739F0099510925103109250030E945F
:10167000010B08951F93CF93DF93E0918401F091C4
:1016800085018DE009950E94010B10914F03C5E57E
:10169000D3E007C0E0918401F0918501899109951B
:1016A00011501123B9F7DF91CF911F910895CF9376
:1016B000DF93882319F08130F9F40BC08091550332
:1016C0008823D1F085EA93E065E573E00E94351E3A
:1016D00013C0C5E5D3E0CE0165EA73E00E94351E74
:1016E00009900020E9F72197C555D340C0934F03D7
:1016F000C09354030E943A0BDF91CF9108958091DB
:10170000800190918101A0918201B09183010196A5
:10171000A11DB11D8093800190938101A09382014E
:10172000B09383010895109280011092810110926C
:1017300082011092830108958DB79EB707970FB667
:10174000F8949EBF0FBE8DBFEDB7FEB7319681E016
:10175000ADB7BEB711968C9382E591E092838183F9
:101760008091800190918101A0918201B0918301CB
:1017700083839483A583B6830E942C168DB79EB76E
:1017800007960FB6F8949EBF0FBE8DBF0E945515E9
:101790000E947F0B0895CF93DF938DB79EB7079775
:1017A0000FB6F8949EBF0FBE8DBFEDB7FEB7319652
:1017B00081E0ADB7BEB711968C9380E591E092833E
:1017C00081838091800190918101A0918201B091EB
:1017D000830183839483A583B6830E942C16EDB77F
:1017E000FEB737960FB6F894FEBF0FBEEDBFC4E349
:1017F000D1E008C02196FC018491E0918401F09130
:1018000085010995CE01FE012491222399F7C5E5B2
:10181000D3E005C0E0918401F0918501099589919B
:10182000882311F08032B1F7E0918401F0918501B5
:101830008AE30995E0918401F091850180E20995A0
:10184000CCE3D1E008C02196FC018491E0918401B1
:10185000F09185010995CE01FE012491222399F78B
:1018600000D00F9281E0ADB7BEB711968C9311975F
:101870008EE491E013969C938E9312970E942C16FF
:101880000F900F900F900E949C0BDF91CF910895C5
:101890000F931F9380E00E94570B00E001C00F5F81
:1018A000E02FF0E0EB5AFC4F8081803211F088236A
:1018B000B1F7002351F186E691E00E94451510E052
:1018C0001CC027E0129FC00111248A579E4F65E576
:1018D00073E0402F50E00E943C1E009769F4E12F16
:1018E000F0E0EE0FFF1FE85AFD4F80819181909349
:1018F00051038093500309C01F5F80915203181752
:1019000000F30E94CB0B0E94010B1F910F910895D1
:101910001F93182F80915303823009F03FC0123477
:1019200061F0133418F41134B1F505C0133449F0E3
:10193000143489F521C081E001C082E00E94570B78
:101940002AC08091540390914F03E0918401F0915B
:1019500085018917F0F48F5F809354038BE109951B
:10196000E0918401F09185018BE50995E091840176
:10197000F091850183E40EC080915403E0918401CD
:10198000F0918501882329F081508093540388E0E9
:1019900001C087E0099510925303CDC0813021F436
:1019A0001B3511F482E0C5C010925303812F805281
:1019B0008F3508F044C09091540380914F039817DD
:1019C000B1F4E0918401F0918501812F0995809116
:1019D0005403E82FF0E0EB5AFC4F10838F5F8093A5
:1019E000540380914F038F5F80934F03A4C08F5F98
:1019F00080934F0309C0E82FF0E0EB5AFC4FDF0162
:101A000011972C91208381509817A8F3E92FF0E0CB
:101A1000EB5AFC4F10839F5F909354030E943A0B44
:101A20001091540307C0E0918401F091850188E092
:101A300009951F5F80914F031817A8F37CC01A30D7
:101A400011F01D30B1F480914F03E82FF0E0EB5A14
:101A5000FC4F10828F5F80934F03809154038F5F00
:101A6000809354030E94480C10924F031092540329
:101A700062C01F3719F0183009F058C08091540324
:101A8000882309F44CC090914F038917E9F4E09141
:101A90008401F091850188E00995E0918401F0913D
:101AA000850180E20995E0918401F091850188E04B
:101AB000099580914F03815080934F038091540387
:101AC00081508093540337C0915090934F038150BD
:101AD0008093540307C0E82FF0E0EB5AFC4F2181BC
:101AE00020838F5F8917B8F30E943A0BE09184013D
:101AF000F091850180E209951091540307C0E091AF
:101B00008401F091850188E009951F5F20914F03C2
:101B100030E0812F90E0281739078CF70CC0E09156
:101B20008401F091850187E0099505C01B3119F406
:101B300081E0809353031F91089520E001C02F5F3F
:101B4000E22FF0E0EB5AFC4F90819032C1F390E02D
:101B500014C02F5FE22FF0E0EB5AFC4F30813323AB
:101B600021F03032B1F701C02F5FE22FF0E0EB5AE5
:101B7000FC4F30813032C1F39F5F981758F330E04B
:101B80002B5A3C4FC9010895DF93CF9300D0CDB7B6
:101B9000DEB70E949D0DBE016F5F7F4F4AE050E0AF
:101BA0000E94001D0F900F90CF91DF910895DF9359
:101BB000CF9300D0CDB7DEB70E949D0DBE016F5F01
:101BC0007F4F40E150E00E94001D0F900F90CF9199
:101BD000DF910895882331F485B78C7F85BF85B761
:101BE000862B85BF0895882321F470939502609316
:101BF00094020895882321F4109295021092940281
:101C0000089580E00E94FA0D08951F920F920FB67A
:101C10000F9211242F933F934F935F936F937F9372
:101C20008F939F93AF93BF93EF93FF938091940211
:101C300090919502009729F0E0919402F09195021D
:101C40000995FF91EF91BF91AF919F918F917F91F6
:101C50006F915F914F913F912F910F900FBE0F9019
:101C60001F9018950E94E3040E949C0B089581E048
:101C70000E94C40D862F0E9496070E94E3040E94D2
:101C80009C0B08951F9381E00E94C40D162F82E0E3
:101C90000E94C40D812F0E947A098FE99FE001976D
:101CA000F1F700C00000812F0E9496070E94E30414
:101CB0000E949C0B1F9108951092500410925104A1
:101CC00010925204109253041092850010928400D6
:101CD00010924B0410924C0410924D0410924E043A
:101CE0008BEB91E00E9445150E949C0B08958AEFB2
:101CF00091E00E9445150E949C0B089584E796E0B0
:101D00000E9445158FE496E00E94451589E296E011
:101D10000E94451587E096E00E94451586ED95E006
:101D20000E9445158AEC95E00E94451584E995E0EE
:101D30000E94451582E795E00E94451583E395E0F2
:101D40000E94451581E095E00E9445158FED94E0D5
:101D50000E9445158BEB94E00E9445158DE894E0B8
:101D60000E94451589E694E00E9445158BE494E0B5
:101D70000E9445158CE194E00E9445158BEE93E09E
:101D80000E9445158AEC93E00E94451585EB93E08F
:101D90000E94451585E893E00E9445158DE593E086
:101DA0000E94451588E393E00E9445158AE093E080
:101DB0000E94451588ED92E00E94451582EB92E065
:101DC0000E94451583E892E00E9445158BE492E05D
:101DD0000E9445158AE192E00E944515089581E030
:101DE0000E94C40D6093460400D000D00F92EDB75E
:101DF000FEB7319681E0ADB7BEB711968C9386EAF7
:101E000091E092838183638314820E942C160F9049
:101E10000F900F900F900F900E949C0B0895DF93EE
:101E2000CF930F92CDB7DEB781E00E94C40D33B1DE
:101E300029B18DB79EB707970FB6F8949EBF0FBE16
:101E40008DBFEDB7FEB7319681E0ADB7BEB7119645
:101E50008C9389EA91E09283818333831482258372
:101E6000168269830E942C16EDB7FEB737960FB61F
:101E7000F894FEBF0FBEEDBF6981662311F40E9486
:101E80009C0B0F90CF91DF910895CF92DF92EF924C
:101E9000FF920F931F93CF93DF9382E891E00E940C
:101EA0004515C0E0D0E0DD24D394CC24C3948CE766
:101EB000E82E81E0F82E06E711E0219600D000D050
:101EC0000F92EDB7FEB73196ADB7BEB71196CC9273
:101ED000F282E182D483C3830E942C160F900F906C
:101EE0000F900F900F908D2D0E941F07882319F0DF
:101EF0000E94120504C089E791E00E944515BD2D9E
:101F0000B33169F000D00F92EDB7FEB7C1821383F1
:101F100002830E942C160F900F900F9004C084E74C
:101F200091E00E944515D394FD2DF43131F682E7FE
:101F300091E00E9445150E949C0BDF91CF911F916B
:101F40000F91FF90EF90DF90CF900895FF920F9345
:101F50001F93DF93CF93CDB7DEB729970FB6F894D1
:101F6000DEBF0FBECDBF81E00E94C40DF62E8E01F4
:101F70000F5F1F4F22E0822F29870E94C40DF801B6
:101F800061938F0129852F5F2A30A9F789818823E2
:101F900021F0CE0101960E9455068F2D0E94340635
:101FA0000E94450F29960FB6F894DEBF0FBECDBF35
:101FB000CF91DF911F910F91FF9008950E94F40639
:101FC000882319F00E94120511C00E94120500D04A
:101FD0000F9281E0EDB7FEB7818384E891E09383AF
:101FE00082830E942C160F900F900F900E949C0BE2
:101FF00008950E94DA070E949C0B08950E940A042B
:102000000E947A0684EA91E00E9445150E949C0B8A
:102010000895FF920F931F93DF93CF9300D000D0CA
:102020000F92CDB7DEB781E00E94C40D6D830E9490
:102030000A040E947A068FEF9EE9A4E28150904044
:10204000A040E1F700C0000082EA91E00E9445153F
:102050006D81662369F501E0802F0E941F070F5FE5
:102060000531D1F7FF24F3948E010F5F1F4F8F2DA1
:102070000E941F078823B9F080EA91E00E9445156D
:102080000E9412058DE991E00E944515C8010E9449
:1020900045088AE991E00E9445150E94E30487E91A
:1020A00091E00E944515F3949F2D953101F70EC0E4
:1020B0006F3F19F40E94F40605C0862F0E941F0787
:1020C000882321F0CE0101960E9445088EE891E018
:1020D0000E9445150E949C0B0F900F900F900F903F
:1020E0000F90CF91DF911F910F91FF900895FF9274
:1020F0000F931F93CF93DF9381E00E94C40D062FAF
:1021000017B818B80E94C10987E00E94AF0981E0A2
:102110000E94B60989EB91E00E94451510E0FF246A
:10212000F394C6EBD1E0812F0E94F40900D000D0D7
:102130000F92EDB7FEB73196ADB7BEB71196FC92D0
:10214000D283C183948383830E942C160F900F90B7
:102150000F900F900F90143021F084EB91E00E94CB
:1021600045151F5F1530F9F682EB91E00E94451589
:10217000002311F40E949C0B0E94A609DF91CF91CD
:102180001F910F91FF900895EF92FF920F931F936D
:10219000CF93DF931092540410925504109256047A
:1021A00010925704CAEAD0E0CE0140E050E0BA01F4
:1021B0000E946C1ECE010E94521E7B018C018AE09F
:1021C0006AE040E020E20E9489150E949C0BDF91AA
:1021D000CF911F910F91FF90EF900895DF92EF92B2
:1021E000FF920F931F9381E00E94C40DD62E8AEABE
:1021F00090E00E94521E7B018C018AE06AE040E080
:1022000020E20E948915DD2011F40E949C0B1F9191
:102210000F91FF90EF90DF9008956F927F928F92D1
:102220009F92AF92BF92CF92DF92EF92FF920F9365
:102230001F93CF93DF9381E00E94D70DA62EC72E68
:1022400082E00E94D70D7B018C018C2D6A2CE3016A
:102250006E01D82EE60199248824839403EC11E0C2
:1022600029ECC22E21E0D22E90ECA92E91E0B92EBD
:102270004BC08881992009F5ADB7BEB719970FB645
:10228000F894BEBF0FBEADBFEDB7FEB73196119645
:102290008C92D282C1823E0173821482C5831682DF
:1022A000878310860E942C168DB79EB709960FB6AD
:1022B000F8949EBF0FBE8DBF15C000D000D00F9206
:1022C000EDB7FEB73196ADB7BEB711968C921283BB
:1022D0000183838314820E942C160F900F900F901D
:1022E0000F900F909394B92DB83069F400D00F92ED
:1022F000EDB7FEB78182B382A2820E942C160F90A6
:102300000F900F9099242196EC16FD0608F0B1CF9E
:1023100000D00F9281E0ADB7BEB711968C931197A4
:102320008DEB91E013969C938E9312970E942C163E
:102330000F900F900F90DF91CF911F910F91FF9011
:10234000EF90DF90CF90BF90AF909F908F907F9055
:102350006F90089581E00E94D70DDB012C91EDB7BD
:10236000FEB737970FB6F894FEBF0FBEEDBF31969C
:1023700081E0ADB7BEB711968C9385ED91E0928365
:10238000818323831482258316820E942C16EDB745
:10239000FEB737960FB6F894FEBF0FBEEDBF0E9492
:1023A0009C0B0895EF92FF920F931F9381E00E9480
:1023B000D70D7B018C0182E00E94D70DF70160836D
:1023C0001F910F91FF90EF90089581E00E94C40D3E
:1023D00082E00E94C40D0E9404080E94E3040E944F
:1023E0009C0B08950E94C018683C710581059105F9
:1023F000A4F080914604882381F089E896E00E9449
:1024000045150E940F0F87E896E00E9445150E942F
:102410009C0B0E94B7180E94010B0895EF92FF9247
:102420000F931F93CF93DF9389EC96E00E9445159D
:10243000E0905004F0905104009152041091530424
:102440008AE06AE040E020E20E94891587EC96E08D
:102450000E944515E0905404F090550400915604F4
:10246000109157048AE06AE040E020E20E9489155A
:1024700085EC96E00E944515E0904B04F0904C04EA
:1024800000914D0410914E048AE063E040E020E2A8
:102490000E94891583EC96E00E944515C4E8D0E0BF
:1024A000E880F98000E010E08AE066E040E020E2A9
:1024B0000E94891581EC96E00E9445150E949C0BB4
:1024C0000E94010B1982188210924B0410924C0446
:1024D00010924D0410924E04DF91CF911F910F91F5
:1024E000FF90EF90089581EB96E00E9445158FEAEA
:1024F00096E00E9445150E949C0B0E94010B0895D6
:1025000080914B0490914C04A0914D04B0914E04E5
:102510000196A11DB11D80934B0490934C04A09390
:102520004D04B0934E0485B192E0892785B9089592
:102530001F920F920FB60F921124EF92FF920F93FA
:102540001F932F933F934F935F936F937F938F933B
:102550009F93AF93BF93EF93FF938091500490911B
:102560005104A0915204B09153040196A11DB11DD4
:102570008093500490935104A0935204B093530459
:102580008091470490914804A0914904B0914A0475
:102590000196A11DB11D8093470490934804A09318
:1025A0004904B0934A0484369105A105B105B1F5FB
:1025B0004091540450915504609156047091570411
:1025C0004F5F5F4F6F4F7F4F4093540450935504BC
:1025D0006093560470935704109247041092480475
:1025E0001092490410924A048AEA90E00E946C1EFC
:1025F0008EE996E00E944515E0905404F090550451
:1026000000915604109157048AE06AE040E020E20D
:102610000E9489150E949C0B0E94010B289A0E941F
:102620000E128FE99FE00197F1F700C0000085B11D
:1026300090E2892785B92898FF91EF91BF91AF91DA
:102640009F918F917F916F915F914F913F912F91CA
:102650001F910F91FF90EF900F900FBE0F901F9062
:1026600018951F920F920FB60F9211242F933F933C
:102670004F935F936F937F938F939F93AF93BF938A
:10268000EF93FF9385B190E2892785B90E94731279
:10269000FF91EF91BF91AF919F918F917F916F913A
:1026A0005F914F913F912F910F900FBE0F901F9010
:1026B00018951F920F920FB60F9211242F933F93EC
:1026C0004F935F936F937F938F939F93AF93BF933A
:1026D000EF93FF930E948012FF91EF91BF91AF9112
:1026E0009F918F917F916F915F914F913F912F912A
:1026F0000F900FBE0F901F901895DF92EF92FF92F0
:102700000F931F93D9B0D2943FE0D32280914F040E
:102710008D1591F180919602982F9F5F909396026C
:102720008B3050F185EE91E00E944515ED2CFF2491
:1027300000E010E08AE063E040E020E20E948915BA
:1027400083EE91E00E944515E0904F04ED20FF24B8
:1027500000E010E08AE064E040E020E20E94891599
:1027600081EE91E00E9445150E949C0B0E94010B96
:10277000D0924F04109296021F910F91FF90EF900C
:10278000DF9008950F931F93DF93CF930F92CDB7F0
:10279000DEB78FEF809345048E010F5F1F4F2AC075
:1027A0008981843451F0853418F48334D1F40DC018
:1027B000893441F08A35A9F40FC010924F040E9469
:1027C0007D1311C00E940E120EC00E944D1C81E0AC
:1027D00061E00E94861C02C00E94930B0E94010BC4
:1027E00002C00E94880CC8010E94811B8823C1F688
:1027F0000E942C0B80914504882309F70F90CF91FC
:10280000DF911F910F910895CF93DF930E94581B82
:1028100060E072EC81E090E00E943E1BC8E7DBE1E3
:10282000CE010E94F3140E94C80ACE010E94FC0A45
:102830000E94481C0E944D1C0E94B5031092470440
:10284000109248041092490410924A048AEA90E0D7
:102850000E94521E60935404709355048093560452
:102860009093570489B182958F7080934F04109292
:1028700046040E94A61780E062EF71E10E940C18E6
:1028800085E00E94A11781E080936F0085E080932E
:102890008100109250041092510410925204109230
:1028A000530410924B0410924C0410924D04109259
:1028B0004E048AE08093690083E08DBB83E284B993
:1028C0002D9A529853985A9A5B9A86E091E06EE757
:1028D0007EE00E94DD0A8BE091E067E77EE00E94E7
:1028E000DD0A8FE091E065EE71E10E94DD0A84E18E
:1028F00091E062ED71E10E94DD0A89E191E06AEA0E
:1029000071E10E94DD0A8EE191E06DE071E10E94CB
:10291000DD0A83E291E067E770E10E94DD0A87E269
:1029200091E06FE07FE00E94DD0A8BE291E06FEEC4
:102930007EE00E94DD0A82E391E06EEE70E10E948B
:10294000DD0A88E391E064EC70E10E94DD0A80E436
:1029500091E06CE57EE00E94DD0A86E491E06EED98
:102960007FE00E94DD0A8CE491E065E47FE00E9454
:10297000DD0A83E591E062E37EE00E94DD0A88E5FE
:1029800091E066EA7FE00E94DD0A8FE591E06EEF5C
:102990007FE00E94DD0A87E691E069E070E10E9435
:1029A000DD0A8EE691E069EF7FE00E94DD0A85E7AF
:1029B00091E067E37EE00E94DD0A8AE791E062E44D
:1029C0007EE00E94DD0A0E94010B0E94C21380E09B
:1029D00090E0DF91CF91089581E00E94C40D862F91
:1029E0000E9401040895909398028093970208959D
:1029F0001F93182F8A3031F4E0919702F0919802DA
:102A00008DE00995E0919702F0919802812F099548
:102A10001F910895CF93DF93009739F0EC0102C026
:102A20000E94F81489918823D9F7DF91CF910895F6
:102A3000EF92FF920F931F93CF93DF937A0100974A
:102A4000E9F0FC0180E090E0EF018617970718F0AD
:102A500000E010E010C02191EF0101962223A1F7C0
:102A6000F7CF8881882311F0219601C080E20E946F
:102A7000F8140F5F1F4F0E151F0598F3DF91CF91CC
:102A80001F910F91FF90EF900895CF93DF93EC018A
:102A9000009719F407C00E94F814FE012196849152
:102AA0008823C9F7DF91CF9108958AE00E94F81436
:102AB0000895E82FF0E0EF70F070E752F94F84913D
:102AC0000E94F81408951F93182F82958F700E940A
:102AD0005915812F0E9459151F9108951F93182F82
:102AE000892F0E946315812F0E9463151F910895FD
:102AF000EF92FF920F931F937B018C01C8010E94FC
:102B00006E15C7010E946E151F910F91FF90EF90F7
:102B100008952F923F924F925F927F928F929F9251
:102B2000AF92BF92CF92DF92EF92FF920F931F93DB
:102B3000DF93CF93CDB7DEB7A2970FB6F894DEBF81
:102B40000FBECDBF282E862E942E722E57016801FF
:102B5000442351F017FF08C066277727CB016E1971
:102B60007F09800B910B02C0C601B50118A2332466
:102B700044245524A20191010E94DE1C6F707070E4
:102B80006752794FFB0164916F8FB901CA018E01C1
:102B9000025E1F4F382D315021E0992009F420E0CA
:102BA000321BA801431B51095AA349A318C0611540
:102BB00071058105910579F0A20191010E94DE1C49
:102BC0006F7070706752794FFB016491F8016083F8
:102BD000B901CA0102C0F8017082015010407801A9
:102BE0000894E11CF11C29A13AA102171307F9F678
:102BF0009920C1F0D7FE03C078018DE20AC0A1146C
:102C0000B104C104D10419F078018BE202C078014B
:102C100080E2F701808306C0F70181917F010E9465
:102C2000F8148A948820C1F7A2960FB6F894DEBFF4
:102C30000FBECDBFCF91DF911F910F91FF90EF900D
:102C4000DF90CF90BF90AF909F908F907F905F90DC
:102C50004F903F902F9008954F925F926F927F9286
:102C60008F929F92AF92BF92CF92DF92EF92FF929C
:102C70000F931F93DF93CF930F92CDB7DEB75C888E
:102C8000ED88FE8857E1C52ED12CCC0EDD1E4AE022
:102C9000642E712C1AC08823A1F480E090E00F907C
:102CA000CF91DF911F910F91FF90EF90DF90CF9028
:102CB000BF90AF909F908F907F906F905F904F905C
:102CC00008950E94F8145601650197012F5F3F4F48
:102CD000552021F0F7017901849103C0F70180812B
:102CE00079018532C1F62F5F3F4F552021F0F70162
:102CF0007901849103C0F70180817901843629F03C
:102D0000883781F08336E9F606C03AE0832E912CAD
:102D100000E117E20CC0F601808122E030E0C20E33
:102D2000D31ECFCF20E1822E912C00E010E192E063
:102D3000A92EB12CAC0CBD1CF601C080D18084360C
:102D4000A9F4D7FE10C0D094C194D108D3948DE2D9
:102D50000E94F81408C0C801B3010E94CA1C8B016C
:102D60006230710518F0C016D106A8F3C601B8018B
:102D70000E94CA1C482E862F99830E945915C42C84
:102D80009981D92EC801B4010E94CA1C8B0161151A
:102D9000710561F799CF86E084B987E085B980E550
:102DA00093EC0E94031982E00E94B8170E94201938
:102DB0000E94291988EB9BE00E94511988EB9BE047
:102DC0000E94561908958854944F21E0843F920739
:102DD0002CF027E28131920724F405C084EF91E0C2
:102DE00002C080E197E26115710501F527C02091CD
:102DF0008A0030918B008217930738F420918A0063
:102E000030918B002150304006C020918A003091D3
:102E10008B002F5F3F4F30938B0020938A002091CF
:102E20008A0030918B002817390761F020918A00C1
:102E300030918B0028173907D1F6089590938B00B5
:102E400080938A00089586E084B987E085B989E097
:102E50009DE30E94031985E00E94B8170E94201983
:102E600080E090E00E9451190895009731F02DE321
:102E70008930920710F089E09DE30E94511908956E
:102E800088E284B9229A3C9A249886ED8CBD0895F4
:102E90002A9808952A9A08950E944A178FE99FE078
:102EA0000197F1F700C000000E94481708958EBDF9
:102EB0000DB407FEFDCF08950DB407FEFDCF8EB50E
:102EC00008950895813039F0813028F1823061F021
:102ED000833009F512C080916E00877F80936E0069
:102EE00080916E008D7F11C080916E00877F8093EE
:102EF0006E0080916E00826016C080916E00877FA8
:102F000080936E0080916E00826080936E0080914D
:102F10006E0081600DC080916E00877F80936E008F
:102F200080916E008D7F80936E0080916E008E7F09
:102F300080936E0080916E00826080936E00A99AEB
:102F4000089595B5987F982B95BD089582E00E94CD
:102F5000A11716BCEEE6F0E08081816080831092BC
:102F600058041092590410925A0410925B04089568
:102F7000E1E8F0E09081987F982B9083089581E0BC
:102F80000E94B8171092850010928400EFE6F0E0DE
:102F90008081816080830895E1EBF0E09081987FEB
:102FA000982B9083089584E00E94CC171092B20071
:102FB000E0E7F0E0808181608083109260041092ED
:102FC000610410926204109263040895E5B5F0E084
:102FD000E770F070EE0FFF1FE651F94F2591349125
:102FE000C9010895E0918100F0E0E770F070EE0F04
:102FF000FF1FE651F94F25913491C9010895E091E1
:10300000B100F0E0E770F070EE0FFF1FEA50F94FEB
:1030100025913491C90108958A3040F4E82FF0E0F9
:10302000EE0FFF1FE756FD4F7183608308958A30CE
:1030300040F4E82FF0E0EE0FFF1FE756FD4F11823E
:10304000108208951F9310E0812F0E9417181F5FB0
:103050001A30D1F70E94A6170E94BF170E94D317FB
:1030600078941F910895DF92EF92FF920F931F9330
:10307000CF93DF93EC01D6B410925C0410925D0400
:1030800010925E0410925F040E94E6179C0140E0DB
:1030900050E060E074E284EF90E00E94DE1C790171
:1030A0008A01293B8DE8380786E0480780E0580709
:1030B00090F487E2C131D80770F49E0140E050E0FF
:1030C000C801B7010E94AB1C28EE33E040E050E09D
:1030D0000E94DE1C27C0C801B70128EE33E040E0A3
:1030E00050E00E94DE1C79018A019E0140E050E020
:1030F000C801B7010E94AB1C9B01AC0113C08091B9
:103100005C0490915D04A0915E04B0915F0483B76C
:10311000817F83BF83B7816083BF889583B78E7FAC
:1031200083BF04C02D0D311D411D511DE0905C0475
:10313000F0905D0400915E0410915F0486B590E00C
:10314000A0E0B0E0102F0F2DFE2CEE248E299F2939
:10315000A02BB12B82179307A407B50780F2DF914C
:10316000CF911F910F91FF90EF90DF9008951092F3
:1031700058041092590410925A0410925B04089556
:10318000209158043091590440915A0450915B04A5
:10319000B901CA010895109260041092610410925E
:1031A00062041092630408952091600430916104D8
:1031B0004091620450916304B901CA0108958930B5
:1031C00049F480918000826080938000809180002B
:1031D0008E7F0EC08A3021F480918000826003C00F
:1031E000809180008D7F809380008091800081603D
:1031F00080938000109289001092880010928B00BA
:1032000010928A000895E0E8F0E020812E7F20836C
:10321000208122602083E1E8F0E020812860208383
:1032200020812061208390938700809386001092F4
:1032300089001092880010928B0010928A000895E5
:10324000E0E8F0E080818068808380818F7B8083EC
:103250000895E0E8F0E080818062808380818F7E45
:1032600080830895E0E8F0E080818F77808380811B
:103270008F7B80830895E0E8F0E080818F7D8083FC
:1032800080818F7E80830895E0E8F0E080818D7FEB
:10329000808380818E7F80830E9432190E943B1937
:1032A00008959093890080938800089590938B00EF
:1032B00080938A000895E0EBF0E08081806880834D
:1032C00080818F7B80838081816080838081826028
:1032D0008083E1EBF0E08081877F80830895E0EBDD
:1032E000F0E080818062808380818F7E808308957A
:1032F000E0EBF0E080818F77808380818F7B80831B
:1033000008958093B30008958093B40008951F92A8
:103310000F920FB60F9211242F933F934F935F9309
:103320006F937F938F939F93AF93BF93EF93FF938D
:103330008091580490915904A0915A04B0915B0473
:103340000196A11DB11D8093580490935904A09338
:103350005A04B0935B0480915C0490915D04A09149
:103360005E04B0915F040196A11DB11D80935C04C1
:1033700090935D04A0935E04B0935F0480919902E2
:1033800090919A02009729F0E0919902F0919A02A7
:103390000995FF91EF91BF91AF919F918F917F918F
:1033A0006F915F914F913F912F910F900FBE0F90B2
:1033B0001F9018951F920F920FB60F9211242F9302
:1033C0003F934F935F936F937F938F939F93AF93AD
:1033D000BF93EF93FF938091600490916104A0915B
:1033E0006204B09163040196A11DB11D8093600435
:1033F00090936104A0936204B09363048091A70248
:103400009091A802009729F0E091A702F091A802FC
:103410000995FF91EF91BF91AF919F918F917F910E
:103420006F915F914F913F912F910F900FBE0F9031
:103430001F9018951F920F920FB60F9211242F9381
:103440003F934F935F936F937F938F939F93AF932C
:10345000BF93EF93FF9380919B0290919C02009702
:1034600029F0E0919B02F0919C020995FF91EF9168
:10347000BF91AF919F918F917F916F915F914F918C
:103480003F912F910F900FBE0F901F9018951F9294
:103490000F920FB60F9211242F933F934F935F9388
:1034A0006F937F938F939F93AF93BF93EF93FF930C
:1034B00080919D0290919E02009729F0E0919D02DB
:1034C000F0919E020995FF91EF91BF91AF919F916D
:1034D0008F917F916F915F914F913F912F910F90BD
:1034E0000FBE0F901F9018951F920F920FB60F925C
:1034F00011242F933F934F935F936F937F938F93F9
:103500009F93AF93BF93EF93FF938091A10290910C
:10351000A202009729F0E091A102F091A202099580
:10352000FF91EF91BF91AF919F918F917F916F919B
:103530005F914F913F912F910F900FBE0F901F9071
:1035400018951F920F920FB60F9211242F933F934D
:103550004F935F936F937F938F939F93AF93BF939B
:10356000EF93FF938091A3029091A402009729F01A
:10357000E091A302F091A4020995FF91EF91BF9110
:10358000AF919F918F917F916F915F914F913F91FB
:103590002F910F900FBE0F901F9018951F920F92B2
:1035A0000FB60F9211242F933F934F935F936F9316
:1035B0007F938F939F93AF93BF93EF93FF938091EC
:1035C000A5029091A602009729F0E091A502F09142
:1035D000A6020995FF91EF91BF91AF919F918F91B5
:1035E0007F916F915F914F913F912F910F900FBEFF
:1035F0000F901F9018951F920F920FB60F921124E3
:103600002F933F934F935F936F937F938F939F93EA
:10361000AF93BF93EF93FF938091A9029091AA0279
:10362000009729F0E091A902F091AA020995FF9173
:10363000EF91BF91AF919F918F917F916F915F912A
:103640004F913F912F910F900FBE0F901F901895A3
:1036500085E694E06FEA72E040E450E00E942C0AB4
:103660008EE694E06FEE72E040E450E00E942C0A97
:1036700008959093AE028093AD0208959B01AC0132
:1036800082E08093C00088E98093C10083E0220F2C
:10369000331F441F551F8A95D1F760E074E284EF11
:1036A00090E00E94DE1C21502093C400789408957D
:1036B0000E94281B1092AE021092AD0288ED8093FA
:1036C000C10060E072EC81E090E00E943E1B8FEF51
:1036D0008093640410926D04109277041092760423
:1036E0007894089585E694E008958EE694E0089530
:1036F0009091C00095FFFCCF8093C60010926404A7
:103700000895CF93DF93EC01809167049091680452
:10371000009769F08091690490916A04009739F0EC
:1037200085E694E00E94390A88838FEF01C080E02B
:10373000DF91CF910895DF93CF930F92CDB7DEB78E
:10374000CE0101960E94811B882319F0298130E067
:1037500002C02FEF3FEFC9010F90CF91DF91089585
:1037600010926A04109269040895809169049091FE
:103770006A04009711F48FEF089580E00895682F90
:103780008EE694E00E94910A08958FEF80936D0475
:103790008EE694E00E94390A0E94781B08951F92D9
:1037A0000F920FB60F9211242F933F934F935F9375
:1037B0006F937F938F939F93AF93BF93EF93FF93F9
:1037C00080916D04882379F0809172049091730444
:1037D000009739F08EE694E00E94390A8093C60083
:1037E00005C010926D048FEF80936404FF91EF91F8
:1037F000BF91AF919F918F917F916F915F914F9109
:103800003F912F910F900FBE0F901F9018951F9210
:103810000F920FB60F9211242F933F934F935F9304
:103820006F937F938F939F93AF93BF93EF93FF9388
:103830006091C6002091AD023091AE022115310594
:1038400039F0E091AD02F091AE02862F09950FC0DC
:1038500085E694E00E94910A882349F480917604D9
:103860009091770401969093770480937604FF916A
:10387000EF91BF91AF919F918F917F916F915F91E8
:103880004F913F912F910F900FBE0F901F90189561
:1038900088E297E00E944515089583E297E00E9430
:1038A0004515089500D000D00F92EDB7FEB73196C0
:1038B00091E0ADB7BEB711969C932DE137E032830E
:1038C0002183838314820E942C160F900F900F90F7
:1038D0000F900F900895882349F000D00F9281E057
:1038E000EDB7FEB7818386E197E008C000D00F9264
:1038F00081E0EDB7FEB781838FE097E09383828309
:103900000E942C160F900F900F9008952DB73EB780
:10391000275030400FB6F8943EBF0FBE2DBFEDB715
:10392000FEB7319691E0ADB7BEB711969C9326E0F5
:1039300037E03283218383831482658316820E9459
:103940002C162DB73EB7295F3F4F0FB6F8943EBFF8
:103950000FBE2DBF0895629FD001739FF001829F1B
:10396000E00DF11D649FE00DF11D929FF00D839F0E
:10397000F00D749FF00D659FF00D9927729FB00DAB
:10398000E11DF91F639FB00DE11DF91FBD01CF01BE
:1039900011240895AA1BBB1B51E107C0AA1FBB1F1E
:1039A000A617B70710F0A61BB70B881F991F5A95CB
:1039B000A9F780959095BC01CD010895A1E21A2E3A
:1039C000AA1BBB1BFD010DC0AA1FBB1FEE1FFF1FC3
:1039D000A217B307E407F50720F0A21BB30BE40B13
:1039E000F50B661F771F881F991F1A9469F760955A
:1039F0007095809590959B01AC01BD01CF01089514
:103A00002F923F924F925F927F928F929F92AF92AE
:103A1000BF92CF92DF92EF92FF920F931F93CF93BB
:103A2000DF934B01EA016115710519F0FB018083F9
:103A30009183209739F09E01225030402332310586
:103A400008F0F4C0A82EB92EF50111915F017F0195
:103A5000812F90E00E942D1E0097B1F71D3229F4AE
:103A6000F50111917F0101E006C01B3219F4F50147
:103A700011917F0100E0209719F0C031D105B9F410
:103A8000103381F4F7018081883711F0883551F4C3
:103A9000F701118182E090E0E80EF91E0260C0E1BA
:103AA000D0E005C0209719F41033C1F422C0C8300B
:103AB000D105F9F0C930D10524F4C230D10509F59A
:103AC00007C0CA30D10551F0C031D105D1F427C0AB
:103AD000A12CB12CC12CF0E4DF2E26C0CAE0D0E02E
:103AE000ECECAE2EECECBE2EECECCE2EECE0DE2EB2
:103AF0001BC0C8E0D0E0A12CB12CC12C70E1D72EA6
:103B000013C09E01442737FD4095542F60E070E0BC
:103B100080E090E80E94DE1C59016A0105C0A12CDA
:103B2000B12CC12C68E0D62E40E060E070E0CB0103
:103B30001E01442437FC4094542C50ED752E710E18
:103B4000E72DEA3070F0212F21542A3118F439EC96
:103B5000732E06C0212F21562A3130F529EA722E04
:103B6000710E272D30E02C173D07F4F447FD18C0E7
:103B7000A616B706C806D90680F0A20191010E94D8
:103B8000AB1C670D711D811D911D6130F0E07F0739
:103B9000F0E08F07F0E89F0710F04FEF01C041E021
:103BA000F70111917F01C9CF8114910491F0442351
:103BB00039F00894E108F108F401F182E08209C0CB
:103BC00001FF1BC0970122503040F4013183208354
:103BD00014C047FF12C000FF05C060E070E080E045
:103BE00090E804C06FEF7FEF8FEF9FE722E230E0B5
:103BF000309379042093780416C000FF08C0909594
:103C00008095709561957F4F8F4F9F4F0CC097FFA8
:103C10000AC082E290E090937904809378046FEF79
:103C20007FEF8FEF9FE79B01AC0103C020E030E006
:103C3000A901B901CA01DF91CF911F910F91FF90A6
:103C4000EF90DF90CF90BF90AF909F908F907F903C
:103C50005F904F903F902F90089591114AC080320D
:103C600019F089508550D0F70895FB01DC010190CF
:103C70000D920020E1F70895FB01DC014150504016
:103C800030F08D910190801919F40020B9F7881B4C
:103C9000990B0895F999FECF92BD81BDF89A9927A5
:103CA00080B50895A6E1B0E044E050E00C947E1E9B
:103CB000A8E1B0E042E050E00C947E1E262FF99976
:103CC000FECF1FBA92BD81BD20BD0FB6F894FA9AFF
:103CD000F99A0FBE01960895242F0E945F1E252F8A
:103CE0000E945F1E0C94741E0E945E1E272F0C946F
:103CF0005F1E992788270895DC01CB01FC01F99903
:103D0000FECF06C0F2BDE1BDF89A319600B40D9227
:0C3D100041505040B8F70895F894FFCFE0
:103D1C005B002C005D0068656C700069646E00745B
:103D2C0065737400706F6B65007065656B0064750E
:103D3C006D70006164630064696F00737472656117
:103D4C006D006765747768007265736574776800D9
:103D5C007265736574006F77726F6D006F776C6F3F
:103D6C006164006F777370006F7773617665006FB5
:103D7C00777374617274006F7774656D70006F7710
:103D8C0064617461006F777270006F7777700000F8
:00000001FF
