:100000000C9437040C94F1150C948A160C94540437
:100010000C9454040C9454040C9454040C94611ED9
:100020000C9454040C94401D0C94341E0C94DA1D52
:100030000C94071E0C94B2160C94801D0C94AD1DEC
:100040000C94ED1C0C9454040C946D1F0C945404EB
:100050000C94351F0C94BE0A0C9454040C94540454
:100060000C9454040C94540425642E004445565FAB
:100070004E4F545F464F554E44002D002D003032F8
:1000800020745F726561645F736C6F7420203A2026
:1000900025640A00303220745F726561645F7361A9
:1000A0006D7020203A2025640A00303220745F777A
:1000B000726974655F736C6F74203A2025640A005E
:1000C000303220745F77726974655F6C6F772020BF
:1000D0003A2025640A00303220745F7265736574BB
:1000E0005F72782020203A2025640A003032207484
:1000F0005F72657365745F74782020203A202564F0
:100100000A00303120745F636F6E7620202020203B
:1001100020203A2025640A004444313878323020C7
:1001200054696D696E670A002C005D0025640063E8
:100130006D643E004552524F523A2000636F6D6D20
:10014000616E64206E6F7420666F756E64002200AD
:1001500022007D3C2F25643E003C25643E7B2263CB
:100160006D64223A2200222C202264617461223ABA
:1001700020005D005D005D2C005B5D005B25642C54
:1001800020005B00435243204572726F72005B3067
:100190002C302C305D5D005D2C002C20002C2000CC
:1001A0005B005B0031002564007B2022504F5254DD
:1001B0004222203A2025642C2022504F52544222C1
:1001C000203A2025647D005D002C00222C25645DF2
:1001D000005B22005B0031000D0A000D0A00203098
:1001E00078257800307825782578203078257800B3
:1001F0005B25642C2230782578225D007D005D002F
:100200002C00225D005B25642C22005D2C202249FD
:100210005251223A205B002C00225D005B25642CA9
:1002200022005D2C2022504F525444223A205B0081
:100230002C00225D005B25642C22005D2C202250C6
:100240004F525442223A205B002C00225D005B2575
:10025000642C22002C22414443223A205B00222CB1
:1002600020226C6F636174696F6E223A2022007BDA
:1002700022534E223A202200224552524F52202D24
:1002800020496E76616C69642073796E74617820A0
:100290006C6162656C205B617C627C647C6C7C73ED
:1002A0005D206465764E756D206C6162656C5F746F
:1002B0006578742200224F4B2200224F4B220022ED
:1002C0004552524F52202D20496E76616C69642050
:1002D000646576696365206E756D626572220022C1
:1002E0004F4B2200224552524F52202D20496E760C
:1002F000616C696420646576696365206E756D6202
:1003000065722200224F4B2200496E76616C69644F
:1003100020646576696365206E756D626572002282
:100320004F4B22005D002C006972715F706F727418
:100330005F64222C2264617461223A5B0022417660
:100340007233323870436F6E736F6C65203332389E
:1003500050205631342E30342E313122006F7777D1
:1003600070202020202020202020202020203A2023
:100370007772697465206461746120746F20737092
:100380006563696669656420706167650A006F77F7
:100390007270202020202020202020202020203AA1
:1003A000207265616420737065636966696320709B
:1003B0006167652066726F6D203338323420646562
:1003C000766963650A006F7764617461202020207C
:1003D000202020202020203A207265616420646162
:1003E00074612066726F6D20333832342064657614
:1003F0006963650A006F7774656D70202020202086
:100400002020202020203A20726561642074656DD0
:100410007065726174757265730A006F77737461C9
:100420007274202020202020202020203A20737465
:100430006172742074656D70657261747572652087
:100440006D6561737572656D656E740A006F7773A3
:1004500061766520202020202020202020203A20A6
:100460007361766520736372617463687061642080
:10047000746F20656570726F6D0A006F77737020FE
:100480002020202020202020202020203A207368B7
:100490006F772073637261746368207061640A000F
:1004A0006F776C6F61642020202020202020202086
:1004B000203A206C6F616420656570726F6D2063F7
:1004C0006F6E74656E740A006F77726F6D202020F6
:1004D0002020202020202020203A207265616420E6
:1004E000726F6D206F6620612073696E676C652086
:1004F0006465766963650A000A0A4F6E65776972FA
:100500006520436F6D6D616E64733A0A00726573A6
:1005100065742020202020202020202020203A2028
:1005200072657365742074696D6572300A00726556
:100530007365747768202020202020202020203A16
:100540002072657365742074686520656570726FCC
:100550006D20616363756D756C61746F720A0067FD
:100560006574776820202020202020202020202053
:100570003A2067657420616363756D756C6174659D
:10058000642057682072656164696E670A000A0A10
:10059000506F776572204D6F6E69746F72696E6708
:1005A00020436F6D6D616E64733A0A0073747265F7
:1005B000616D20202020202020202020203A207340
:1005C000746172742073747265616D696E670A007C
:1005D00064696F202020202020202020202020203F
:1005E000203A20676574206469676974616C2070C3
:1005F0006F72742072656164696E67730A0061646A
:100600006320202020202020202020202020203A8D
:1006100020676574204144432072656164696E6798
:100620000A007465737420202020202020202020C0
:100630002020203A20746573742066756E63746997
:100640006F6E0A00706F6B65205B7265675D205B83
:1006500076616C5D203A20736574732072656769FA
:10066000737465722076616C756520746F205B769B
:10067000616C5D200A007065656B205B7265675D6B
:10068000202020202020203A2072657475726E731D
:10069000206465632C2068657820616E642062693F
:1006A0006E2076616C7565206F6620726567697370
:1006B0007465720A00746573742020202020202045
:1006C0002020202020203A20746573742066756EE7
:1006D0006374696F6E0A0069646E202020202020F8
:1006E00020202020202020203A207072696E747310
:1006F0002064657669636520494420616E642076D4
:10070000657273696F6E20696E666F0A000A436FC7
:100710006D6D616E64733A0A005A202020202020FB
:10072000202020202020202020203A207265736580
:100730007420636F6D6D616E64206E756D6265729D
:1007400020746F207A65726F0A00492020202020D3
:1007500020202020202020202020203A20636C65AB
:1007600061722073637265656E200A004320202049
:10077000202020202020202020202020203A206619
:100780006F72636520696E74657272757074203063
:100790000A0044202020202020202020202020206B
:1007A0002020203A2067657420706F7274204420E6
:1007B00076616C75650A00496E7374616E742063AE
:1007C0006F6D6D616E64733A0A005D006972715FEE
:1007D000746F76665F30222C2264617461223A5B0A
:1007E000006972715F635748222C22646174612230
:1007F0003A005D006972715F31222C22646174617C
:10080000223A5B005D002C002C002C006972715FA5
:1008100030222C2264617461223A5B003031323321
:1008200034353637383941424344454600000001EB
:100830000008004000000100040000010008002042
:100840000040008000000100041B5B25643B256420
:1008500048001B5B3F32356C001B5B3F3235680044
:100860001B5B25646D001B5B324A001B6300112477
:100870001FBECFEFD8E0DEBFCDBF11E0A0E0B1E0FA
:10088000ECEFF3E402C005900D92AC38B107D9F754
:1008900014E0ACE8B1E001C01D92A638B107E1F761
:1008A0000E945D170C94FC210C940000EBE3F3E034
:1008B000119283E0E434F807D9F7109244031092C0
:1008C000450310924603109247031092480310927A
:1008D000490310924A0310924B0310924F03219A3E
:1008E000299A80E090E00E94CE219093510380935A
:1008F000500382E090E00E94CE21909353038093B6
:10090000520384E090E00E94CE219093550380939F
:10091000540386E090E00E94C0218093560387E054
:1009200090E00E94C0218093570388E090E00E94ED
:10093000C0218093580389E090E00E94C0218093F9
:100940005903089580934F03089502C00000019752
:100950000097E1F708951F93CF93DF93219A35B164
:10096000C1E0D0E0CE0100904F0302C0880F991F74
:100970000A94E2F7282F2095232325B924B1282BA8
:1009800024B980915203909153030E94A50424B18D
:10099000CE0100904F0302C0880F991F0A94E2F71E
:1009A0008095822384B982E090E00E94A50483B1FF
:1009B00000904F0302C0CC0FDD1F0A94E2F78C2396
:1009C00083B913B180915403909155030E94A504FB
:1009D000812FDF91CF911F9108951F93CF93DF93C4
:1009E000182F95B1C1E0D0E09E0100904F0302C0E6
:1009F000220F331F0A94E2F7822F8095892385B94D
:100A000084B1822B84B98091560390E00E94A504A2
:100A1000112369F094B100904F0302C0CC0FDD1F89
:100A20000A94E2F79E012095822F892384B9809150
:100A3000570390E00E94A50424B181E090E000906B
:100A40004F0302C0880F991F0A94E2F78095822312
:100A500084B9DF91CF911F910895CF93DF932998A7
:100A600025B181E090E000904F0302C0880F991FEC
:100A70000A94E2F7382F3095232325B924B1282B87
:100A800024B984B1832384B98091580390E00E94F3
:100A9000A504299A83B1C82FD0E000904F0302C06B
:100AA000D595C7950A94E2F7C170D070809159032B
:100AB00090E00E94A5048C2FDF91CF9108950F93B1
:100AC0001F93F89410E008E007C00E942D05879559
:100AD000882787951695182B0150B8F77894812FA1
:100AE0001F910F9108950F931F93082FF89418E00A
:100AF00005C0802F81700E94ED0406951150C8F743
:100B000078941F910F910895DF92EF92FF920F93C7
:100B10001F93CF93DF9380E091E00E947018CBE3A6
:100B2000D3E0DD24E990FF2400E010E08AE063E0F8
:100B300040E020E20E94EF188D2D883021F082E005
:100B400091E00E947018D3948D2D893059F784E07C
:100B500091E00E947018DF91CF911F910F91FF904B
:100B6000EF90DF900895AF92BF92CF92DF92EF9215
:100B7000FF920F931F93CF93DF9380E091E00E9449
:100B80007018C4E4D3E0BB24AA24A3949CE2E92E09
:100B900091E0F92E08E211E08AE2C82E81E0D82E19
:100BA000899100D000D00F92EDB7FEB73196ADB766
:100BB000BEB71196AC92F282E182838314820E94C6
:100BC00092190F900F900F900F900F90BB2DB73090
:100BD00041F400D00F92EDB7FEB7A182D382C2825A
:100BE0000BC000D00F92ADB7BEB71196AC92119763
:100BF00013961C930E9312970E9492190F900F90C8
:100C00000F90B394BB2DB83059F6DF91CF911F915F
:100C10000F91FF90EF90DF90CF90BF90AF9008952D
:100C20001F9300D00F9211E0ADB7BEB711961C9381
:100C3000119788E191E013969C938E9312970E94EE
:100C4000921900D0EDB7FEB73196ADB7BEB7119689
:100C50001C9382E091E09283818380915003909174
:100C60005103948383830E949219EDB7FEB73196A6
:100C7000ADB7BEB711961C938CEE90E09283818342
:100C80008091520390915303948383830E9492191D
:100C9000EDB7FEB73196ADB7BEB711961C9386ED92
:100CA00090E09283818380915403909155039483C3
:100CB00083830E949219EDB7FEB73196ADB7BEB7E8
:100CC00011961C9380EC90E092838183809156036F
:100CD000838314820E949219EDB7FEB73196ADB7A7
:100CE000BEB711961C938AEA90E09283818380912B
:100CF0005703838314820E949219EDB7FEB7319691
:100D0000ADB7BEB711961C9384E990E092838183BE
:100D100080915803838314820E949219EDB7FEB725
:100D20003196ADB7BEB711961C938EE790E09283D3
:100D3000818380915903838314820E9492190F90BA
:100D40000F900F900F900F901F910895F89484309A
:100D5000D9F0853038F4823079F0833090F48130E6
:100D600001F507C08630B1F0863088F08730C9F4CD
:100D700014C080E090E002C082E090E00E94F42184
:100D800010C084E090E0FACF86E090E008C087E0F1
:100D900090E005C088E090E002C089E090E00E9409
:100DA000DE210E945604789408950F931F93CF93E9
:100DB000DF93F89404E413E0C82FD0E023E0CC0FD5
:100DC000DD1F2A95E1F7C65FDF4FF80161918F01C2
:100DD000CE010E94DE212196F3E00C341F07A9F713
:100DE0007894DF91CF911F910F910895282F392F7B
:100DF000D901E4E4F3E08D91819383E0ED34F807C9
:100E0000D1F70895CF93DF9380914403882321F491
:100E10008CEC0E9473050CC085E50E947305C4E448
:100E2000D3E089910E94730583E0CC34D807C9F7D9
:100E3000DF91CF9108958CEC0E94730584E40E94A9
:100E40007305089598E028E1362F382730FD02C059
:100E5000669503C0622766956068915011F086958B
:100E6000F3CF862F0895AF92BF92DF92EF92FF9259
:100E70000F931F93DF93CF930F92CDB7DEB77C0113
:100E80005B01FB0110828C01DD240CC0F801819113
:100E90008F01F501608149830E942207F50180835B
:100EA000D3944981D41690F3F701E40FF11D81E04A
:100EB0002081F5019081291380E00F90CF91DF917F
:100EC0001F910F91FF90EF90DF90BF90AF9008952A
:100ED000EF92FF920F931F93DF93CF930F92CDB7B3
:100EE000DEB7E82E0E9402078EEB0E9473050BE32B
:100EF00013E0FF2406C00E945F05F80181938F0173
:100F0000F394FE14C0F319824E2D41508BE393E00D
:100F1000BE016F5F7F4F0E9433070F90CF91DF912B
:100F20001F910F91FF90EF9008950F931F93DF9300
:100F3000CF930F92CDB7DEB719820E94AB048CEC31
:100F40000E9473050E94AB0483E30E94730504E4CE
:100F500013E00E945F05F80181938F01F3E00C34E8
:100F60001F07B9F7C8010897BE016F5F7F4F47E0C1
:100F70000E9433070F90CF91DF911F910F91089539
:100F8000EF92FF920F931F93DF93CF930F92CDB702
:100F9000DEB7082F10E043E0000F111F4A95E1F77C
:100FA000065F1F4F34E4E32E33E0F32EC8010E94A6
:100FB000C021F70181937F010F5F1F4FFCE4EF1603
:100FC000F3E0FF0699F7C7010897BE016F5F7F4FF7
:100FD00047E00E9433070F90CF91DF911F910F914F
:100FE000FF90EF900895CF93DF93EB0127EE33E06E
:100FF000398328832FE037E23B832A830E94C0078E
:10100000882389F10E94AB040E941B078FEF93ECA9
:10101000A9E081509040A040E1F700C000000E948C
:10102000AB0489E00E9468078823F1F050913C03EB
:1010300040E020913B0330E0242B352B359527955C
:10104000398328836091410370E04FE85DEF649F2E
:101050009001659F300D749F300D1124205F384D35
:101060003B832A8301C080E0DF91CF9108950F93E5
:101070001F93DF93CF930F92CDB7DEB7082F0E9457
:10108000AB048CEC0E9473058FE99FE00197F1F7A8
:1010900000C0000088EB0E947305802F0E9473053A
:1010A0000E94AB048CEC0E947305EFE9FFE03197DE
:1010B000F1F700C000008EEB0E947305802F0E94A4
:1010C00073050BE313E00E945F05F80181938F0124
:1010D000F3E004341F07B9F71982C8010997BE016C
:1010E0006F5F7F4F48E00E9433070F90CF91DF91F1
:1010F0001F910F9108950E94AB048CEC0E94730520
:1011000084E40E9473058FE798E3A1E0815090404A
:10111000A040E1F700C000000E94AB048CEC0E94EC
:10112000730584EB0E9473058FE798E3A1E081507B
:101130009040A040E1F700C0000080E00E94370826
:101140000E9484050E94AB0408950F931F93DF93C0
:10115000CF930F92CDB7DEB70E94AB040E94020777
:101160008FE99FE00197F1F700C0000088EB0E9433
:10117000730580E00E9473050E94AB040E94020781
:10118000EFE9FFE03197F1F700C000008EEB0E941D
:10119000730580E00E9473050BE313E00E945F0576
:1011A000F80181938F01F3E004341F07B9F7198226
:1011B000C8010997BE016F5F7F4F48E00E94330767
:1011C0000F90CF91DF911F910F910895DF92EF92D1
:1011D000FF920F931F93CF93DF93EC0187EE93E081
:1011E000DE018D939D937D018FE097E29B838A833F
:1011F0000E94AB0480914403803109F09DC089E0D6
:101200000E946807D82E30913C0320E080913B0378
:1012100090E0822B932B9983888320913C039595B2
:1012200087952F3FA1F599838883409141034C30E6
:1012300068F050E021E732E0429FC001439F900DEB
:10124000529F900D11248C549D4173C00196998337
:1012500088836091410370E041E752E0649F900110
:10126000659F300D749F300D11242C53364F3B83F6
:101270002A83009709F0B0C000D00F9281E0EDB74B
:10128000FEB781838CE790E09383828333C0998398
:101290008883409141034D3008F43FC00197998302
:1012A000888380913B0340914103882349F550E0B6
:1012B00021E732E0429FC001439F900D529F900D65
:1012C00011248C549D419B838A83198218828091BA
:1012D00041038D3008F480C000D00F9281E0ADB79B
:1012E000BEB711968C9311978AE790E013969C9362
:1012F0008E9312970E9492190F900F900F906CC0CE
:1013000050E02FE83DEF429FC001439F900D529F58
:10131000900D1124845A9B4B0CC050E02FE83DEFF8
:10132000429FC001439F900D529F900D1124845BFA
:10133000924E9B838A8350C0883249F589E00E948F
:101340006807D82E30913C0320E080913B0390E069
:10135000822B932B64E0959587956A95E1F79983A5
:10136000888330913C0320E080913B0390E0822B06
:10137000932B8F70907041E752E0849F9001859F7E
:10138000300D949F300D11243B832A8325C0863273
:1013900071F40E94A5088823E9F080913D038883B9
:1013A000198280913C038A83F701118213C000D017
:1013B0000F9281E0ADB7BEB711968C9311978CE672
:1013C00090E013969C938E9312970E9492190F901F
:1013D0000F900F90DD24D39400D000D00F92EDB782
:1013E000FEB7319681E0ADB7BEB711968C9388E613
:1013F00090E09283818388819981948383830E9482
:1014000092190F900F900F900F900F90EA80FB8031
:101410000027F7FC0095102F8AE064E040E020E30D
:101420000E94EF188D2DDF91CF911F910F91FF90AA
:10143000EF90DF9008950F931F93182F062F0E94AF
:10144000AB048CEC0E9473058EE40E947305812F1F
:101450000E947305802F0E947305802F8F5F0E946A
:101460007305802F8D5F0E947305802F8C5F0E9413
:1014700073050E94AB048CEC0E94730588E40E9403
:101480007305812F0E9473051F910F910895EAE75C
:10149000F0E08081877F808380818F7780830895CB
:1014A000EAE7F0E09081987F982B90830895ECE72D
:1014B000F0E090818295880F880F807C9F73892B44
:1014C00080830895CF93DF93CAE7D0E08881806856
:1014D000888388818F7D888386E00E94500A81E01E
:1014E0000E94570AECE7F0E080818F7D808388813D
:1014F0008860888310925A037894DF91CF91089581
:10150000ECE7F0E090818F71907E892B80830895C5
:10151000EAE7F0E08081806180838081806480835D
:10152000089580917A008074089510925A039091E2
:101530007C008F71907E892B80937C0080917A0053
:10154000806180937A0080917A00806480937A0031
:1015500080917A0086FDFCCF20917800309179004F
:10156000932F80E030E0282B392BC90108950E9489
:10157000950A969587959695879508951F920F924F
:101580000FB60F9211248F938FEF80935A038F9190
:101590000F900FBE0F901F901895FC018FB7F89415
:1015A000718360835383428317821682158214826B
:1015B0008FBF0895FC019FB7F89444815581411570
:1015C0005105C9F026813781A081B181A20FB31FD7
:1015D0008C912F5F3F4F378326836281738126175B
:1015E000370720F0261B370B3783268341505040A6
:1015F0005583448301C080E09FBF0895FC01AFB7CD
:10160000F8942481358162177307A0F4868197814D
:10161000860F971F9783868342815381841795078E
:1016200020F0841B950B97838683261B370B35830D
:10163000248302C015821482AFBF0895FC01CB0140
:101640002FB7F89446815781840F951F628173816B
:101650000E9430200190F081E02DE80FF91F808179
:101660002FBF08951F93FC01162F4FB7F894A48144
:10167000B58122813381A217B307A0F486819781B7
:101680008A0F9B1FB9010E943020A081B181A80F51
:10169000B91F1C93848195810196958384834FBFE4
:1016A0008FEF02C04FBF80E01F910895FC014FB73C
:1016B000F8942281338184819581281B390B4FBF97
:1016C000C90108952FB7F894FC01158214822FBF29
:1016D000089510925F0310925B03109260031092C2
:1016E0005D0310925C0310925E0310928C011092C5
:1016F0008D0110928E0110928F0108951F93CF9348
:10170000DF939C01EB0110915E0387E0189FC001FD
:1017100011248E569E4FB9010E949B21E12FF0E0CB
:10172000EE0FFF1FEC59FD4FD183C0831F5F109355
:101730005E03DF91CF911F91089590939101809363
:10174000900108958DB79EB707970FB6F8949EBF86
:101750000FBE8DBFEDB7FEB7319681E0ADB7BEB716
:1017600011968C9389E591E09283818380918C011D
:1017700090918D01A0918E01B0918F01838394830C
:10178000A583B6830E9492198DB79EB707960FB6B0
:10179000F8949EBF0FBE8DBF0895E0915C03F09159
:1017A0005D03309739F0099510925D0310925C0348
:1017B0000E94A20B08951F93CF93DF93E0919001B5
:1017C000F09191018DE009950E94A20B10915B03AD
:1017D000C1E6D3E007C0E0919001F09191018991B9
:1017E000099511501123B9F7DF91CF911F910895F9
:1017F000CF93DF93882319F08130F9F40BC08091E7
:1018000061038823D1F081EB93E061E673E00E94ED
:101810009B2113C0C1E6D3E0CE0161EB73E00E94CF
:101820009B2109900020E9F72197C156D340C0932E
:101830005B03C09360030E94DB0BDF91CF9108959F
:1018400080918C0190918D01A0918E01B0918F01BA
:101850000196A11DB11D80938C0190938D01A093E1
:101860008E01B0938F01089510928C0110928D011A
:1018700010928E0110928F0108958DB79EB7079731
:101880000FB6F8949EBF0FBE8DBFEDB7FEB7319671
:1018900081E0ADB7BEB711968C9382E591E092835B
:1018A000818380918C0190918D01A0918E01B091E6
:1018B0008F0183839483A583B6830E9492198DB789
:1018C0009EB707960FB6F8949EBF0FBE8DBF0E94BD
:1018D000BB180E94200C0895CF93DF938DB79EB75D
:1018E00007970FB6F8949EBF0FBE8DBFEDB7FEB73A
:1018F000319681E0ADB7BEB711968C9380E591E04B
:101900009283818380918C0190918D01A0918E01B1
:10191000B0918F0183839483A583B6830E9492192B
:10192000EDB7FEB737960FB6F894FEBF0FBEEDBF0A
:10193000C4E3D1E008C02196FC018491E0919001BC
:10194000F09191010995CE01FE012491222399F78E
:10195000C1E6D3E005C0E0919001F09191010995B5
:101960008991882311F08032B1F7E0919001F091D4
:1019700091018AE30995E0919001F091910180E253
:101980000995CCE3D1E008C02196FC018491E09157
:101990009001F09191010995CE01FE01249122233D
:1019A00099F700D00F9281E0ADB7BEB711968C9336
:1019B00011978EE491E013969C938E9312970E9458
:1019C00092190F900F900F900E943D0CDF91CF91D4
:1019D00008950F931F9380E00E94F80B00E001C070
:1019E0000F5FE02FF0E0EF59FC4F8081803211F063
:1019F0008823B1F7002351F186E691E00E94AB18ED
:101A000010E01CC027E0129FC00111248E569E4F8B
:101A100061E673E0402F50E00E94A221009769F434
:101A2000E12FF0E0EE0FFF1FEC59FD4F8081918117
:101A300090935D0380935C0309C01F5F80915E03F8
:101A4000181700F30E946C0C0E94A20B1F910F91BB
:101A500008951F93182F80915F03823009F03FC0D3
:101A6000123461F0133418F41134B1F505C0133495
:101A700049F0143489F521C081E001C082E00E9460
:101A8000F80B2AC08091600390915B03E091900174
:101A9000F09191018917F0F48F5F809360038BE1DF
:101AA0000995E0919001F09191018BE50995E09104
:101AB0009001F091910183E40EC080916003E09168
:101AC0009001F0919101882329F081508093600367
:101AD00088E001C087E0099510925F03CDC0813096
:101AE00021F41B3511F482E0C5C010925F03812FF1
:101AF00080528F3508F044C09091600380915B0361
:101B00009817B1F4E0919001F0919101812F09951E
:101B100080916003E82FF0E0EF59FC4F10838F5F56
:101B20008093600380915B038F5F80935B03A4C00D
:101B30008F5F80935B0309C0E82FF0E0EF59FC4F03
:101B4000DF0111972C91208381509817A8F3E92F7A
:101B5000F0E0EF59FC4F10839F5F909360030E9469
:101B6000DB0B1091600307C0E0919001F0919101AF
:101B700088E009951F5F80915B031817A8F37CC06C
:101B80001A3011F01D30B1F480915B03E82FF0E0C2
:101B9000EF59FC4F10828F5F80935B03809160034D
:101BA0008F5F809360030E94E90C10925B03109298
:101BB000600362C01F3719F0183009F058C08091D7
:101BC0006003882309F44CC090915B038917E9F402
:101BD000E0919001F091910188E00995E0919001E8
:101BE000F091910180E20995E0919001F0919101CD
:101BF00088E0099580915B03815080935B0380911D
:101C0000600381508093600337C0915090935B03D1
:101C100081508093600307C0E82FF0E0EF59FC4F3C
:101C2000218120838F5F8917B8F30E94DB0BE0913D
:101C30009001F091910180E209951091600307C035
:101C4000E0919001F091910188E009951F5F20914A
:101C50005B0330E0812F90E0281739078CF70CC028
:101C6000E0919001F091910187E0099505C01B3149
:101C700019F481E080935F031F91089520E001C073
:101C80002F5FE22FF0E0EF59FC4F90819032C1F3CB
:101C900090E014C02F5FE22FF0E0EF59FC4F30814D
:101CA000332321F03032B1F701C02F5FE22FF0E093
:101CB000EF59FC4F30813032C1F39F5F981758F3D2
:101CC00030E02F593C4FC9010895DF93CF9300D0E6
:101CD000CDB7DEB70E943E0EBE016F5F7F4F4AE078
:101CE00050E00E9466200F900F90CF91DF910895F1
:101CF000DF93CF9300D0CDB7DEB70E943E0EBE017A
:101D00006F5F7F4F40E150E00E9466200F900F9080
:101D1000CF91DF910895882331F485B78C7F85BFFB
:101D200085B7862B85BF0895882321F47093A1027F
:101D30006093A0020895882321F41092A1021092CA
:101D4000A002089580E00E949B0E08951F920F92BA
:101D50000FB60F9211242F933F934F935F936F937E
:101D60007F938F939F93AF93BF93EF93FF93809154
:101D7000A0029091A102009729F0E091A002F091B9
:101D8000A1020995FF91EF91BF91AF919F918F9122
:101D90007F916F915F914F913F912F910F900FBE67
:101DA0000F901F9018950E9484050E943D0C089585
:101DB00081E00E94650E862F0E9437080E948405EC
:101DC0000E943D0C08951F9381E00E94650E162F1E
:101DD00082E00E94650E812F0E941B0A8FE99FE01E
:101DE0000197F1F700C00000812F0E9437080E9480
:101DF00084050E943D0C1F91089510925C0410927E
:101E00005D0410925E0410925F041092850010929F
:101E100084001092570410925804109259041092A2
:101E20005A0486ED91E00E94AB180E943D0C089583
:101E30008DE393E00E94AB180E943D0C089587EB60
:101E400097E00E94AB1882E997E00E94AB188CE6FD
:101E500097E00E94AB188AE497E00E94AB1889E1F2
:101E600097E00E94AB188DE097E00E94AB1887EDD9
:101E700096E00E94AB1885EB96E00E94AB1886E7CF
:101E800096E00E94AB1884E496E00E94AB1882E2D0
:101E900096E00E94AB188EEF95E00E94AB1880EDA3
:101EA00095E00E94AB188CEA95E00E94AB188EE892
:101EB00095E00E94AB188FE595E00E94AB188EE28A
:101EC00095E00E94AB188DE095E00E94AB1888EF7A
:101ED00094E00E94AB1888EC94E00E94AB1880EA72
:101EE00094E00E94AB188BE794E00E94AB188DE45D
:101EF00094E00E94AB188BE194E00E94AB1885EF50
:101F000093E00E94AB1886EC93E00E94AB188EE839
:101F100093E00E94AB188DE593E00E94AB18089502
:101F200081E00E94650E6093520400D000D00F92B1
:101F3000EDB7FEB7319681E0ADB7BEB711968C9381
:101F400086EA91E092838183638314820E949219CE
:101F50000F900F900F900F900F900E943D0C0895DE
:101F6000DF93CF930F92CDB7DEB781E00E94650E6D
:101F700033B129B18DB79EB707970FB6F8949EBFBE
:101F80000FBE8DBFEDB7FEB7319681E0ADB7BEB7DE
:101F900011968C9389EA91E0928381833383148232
:101FA0002583168269830E949219EDB7FEB7379692
:101FB0000FB6F894FEBF0FBEEDBF6981662311F422
:101FC0000E943D0C0F90CF91DF910895CF92DF9248
:101FD000EF92FF920F931F93CF93DF9382E891E0EC
:101FE0000E94AB18C0E0D0E0DD24D394CC24C3948D
:101FF0008CE7E82E81E0F82E06E711E0219600D06C
:1020000000D00F92EDB7FEB73196ADB7BEB71196BF
:10201000CC92F282E182D483C3830E9492190F9002
:102020000F900F900F900F908D2D0E94C007882366
:1020300019F00E94B30504C089E791E00E94AB1833
:10204000BD2DB33169F000D00F92EDB7FEB7C1825C
:10205000138302830E9492190F900F900F9004C077
:1020600084E791E00E94AB18D394FD2DF43131F652
:1020700082E791E00E94AB180E943D0CDF91CF9166
:102080001F910F91FF90EF90DF90CF900895FF92F6
:102090000F931F93DF93CF93CDB7DEB729970FB67A
:1020A000F894DEBF0FBECDBF81E00E94650EF62E14
:1020B0008E010F5F1F4F22E0822F29870E94650E3D
:1020C000F80161938F0129852F5F2A30A9F7898153
:1020D000882321F0CE0101960E94F6068F2D0E94E2
:1020E000D5060E94E60F29960FB6F894DEBF0FBE04
:1020F000CDBFCF91DF911F910F91FF9008950E9466
:102100009507882319F00E94B30511C00E94B305FA
:1021100000D00F9281E0EDB7FEB7818384E891E0B3
:10212000938382830E9492190F900F900F900E94C8
:102130003D0C08950E947B080E943D0C08950E946A
:10214000AB040E941B0784EA91E00E94AB180E9436
:102150003D0C0895FF920F931F93DF93CF9300D010
:1021600000D00F92CDB7DEB781E00E94650E6D837F
:102170000E94AB040E941B078FEF9EE9A4E28150EE
:102180009040A040E1F700C0000082EA91E00E9488
:10219000AB186D81662369F501E0802F0E94C007AE
:1021A0000F5F0531D1F7FF24F3948E010F5F1F4FAE
:1021B0008F2D0E94C0078823B9F080EA91E00E9429
:1021C000AB180E94B3058DE991E00E94AB18C801DD
:1021D0000E94E6088AE991E00E94AB180E948405FB
:1021E00087E991E00E94AB18F3949F2D953101F798
:1021F0000EC06F3F19F40E94950705C0862F0E94FC
:10220000C007882321F0CE0101960E94E6088EE8DF
:1022100091E00E94AB180E943D0C0F900F900F9020
:102220000F900F90CF91DF911F910F91FF90089524
:102230002F923F924F925F926F927F928F929F92D6
:10224000BF92CF92DF92EF92FF920F931F93DF9393
:10225000CF93CDB7DEB764970FB6F894DEBF0FBE4D
:10226000CDBF8FE692E00E94AB187E010894E11C7E
:10227000F11CC7016FEA70E044E150E00E94B02118
:10228000C7010E9470188EE592E00E94AB18C7014A
:1022900063EC70E044E150E00E94B02184E592E0FC
:1022A0000E94AB1837EDC32E30E0D32E00E010E0D3
:1022B0008E2CBF2CEE24E3942EE4622E22E0722EAC
:1022C0009BE4492E92E0592E89E4282E82E0382E94
:1022D000882D9B2DB60144E150E00E94B02100D032
:1022E00000D00F92EDB7FEB73196ADB7BEB71196DD
:1022F000EC9272826182148303830E9492190F9080
:102300000F900F900F900F90882D9B2D0E947018AA
:1023100000D00F92EDB7FEB7E182538242820E9455
:1023200092190F900F900F90043081F000D00F920F
:10233000ADB7BEB71196EC92119713963C922E92C0
:1023400012970E9492190F900F900F900F5F1F4FDE
:10235000E4E1F0E0CE0EDF1E0530110509F0B8CF44
:102360008BE392E00E94AB18BBE3EB2EB1E0FB2EB7
:10237000670100E010E04E010894811C911CBB2411
:10238000B394A5E36A2EA2E07A2EF2E34F2EF2E098
:102390005F2EE0E32E2EE2E03E2EC401B60144E1C2
:1023A00050E00E94B02100D000D00F92EDB7FEB7F0
:1023B0003196ADB7BEB71196BC927282618214831A
:1023C00003830E9492190F900F900F900F900F901F
:1023D000C4010E94701800D00F92EDB7FEB7B18211
:1023E000538242820E9492190F900F900F900330F7
:1023F00081F000D00F92ADB7BEB71196BC92119785
:1024000013963C922E9212970E9492190F900F9061
:102410000F900F5F1F4FE4E1F0E0CE0EDF1E04309F
:10242000110509F0BACF82E292E00E94AB1800E0F9
:1024300010E06E010894C11CD11CBB24B3947CE154
:10244000872E72E0972E69E1662E62E0762E57E1C4
:10245000452E52E0552EC601B70144E150E00E94DE
:10246000B02100D000D00F92EDB7FEB73196ADB7D6
:10247000BEB71196BC9292828182148303830E941C
:1024800092190F900F900F900F900F90C6010E941D
:10249000701800D00F92EDB7FEB7B18273826282DE
:1024A0000E9492190F900F900F90033081F000D08E
:1024B0000F92ADB7BEB71196BC92119713965C926E
:1024C0004E9212970E9492190F900F900F900F5FEB
:1024D0001F4FE4E1F0E0EE0EFF1E0430110509F09D
:1024E000BACF8BE092E00E94AB184BEDE42E41E0B6
:1024F000F42E00E010E06E010894C11CD11CBB2436
:10250000B39435E0832E32E0932E22E0622E22E057
:10251000722E90E0492E92E0592EC601B70144E197
:1025200050E00E94B02100D000D00F92EDB7FEB76E
:102530003196ADB7BEB71196BC9292828182148358
:1025400003830E9492190F900F900F900F900F909D
:10255000C6010E94701800D00F92EDB7FEB7B1828D
:10256000738262820E9492190F900F900F90033035
:1025700081F000D00F92ADB7BEB71196BC92119703
:1025800013965C924E9212970E9492190F900F90A0
:102590000F900F5F1F4FE4E1F0E0EE0EFF1E0430DE
:1025A000110509F0BACF8EEF91E00E94AB188CEFC5
:1025B00091E00E94AB180E943D0C64960FB6F8940F
:1025C000DEBF0FBECDBFCF91DF911F910F91FF9066
:1025D000EF90DF90CF90BF909F908F907F906F9003
:1025E0005F904F903F902F9008959F92AF92BF922F
:1025F000CF92DF92EF92FF920F931F93DF93CF93CF
:10260000CDB7DEB764970FB6F894DEBF0FBECDBF6F
:1026100081E00E94650E962E17B818B80E94620AD3
:1026200087E00E94500A81E00E94570A84ED91E001
:102630000E94AB1807ED10E0BB247E010894E11C5A
:10264000F11CAA24A3944BECC42E41E0D42E81EDBE
:1026500091E00E94AB18C701B80144E150E00E942C
:10266000B021C7010E9470188B2D0E94950A00D0DE
:1026700000D00F92EDB7FEB73196ADB7BEB7119649
:10268000AC92D282C182948383830E9492190F906C
:102690000F900F900F900F90BB2DB43021F089EC6C
:1026A00091E00E94AB18B3940C5E1F4F8B2D8530C8
:1026B00071F687EC91E00E94AB18992011F40E940A
:1026C0003D0C0E94470A64960FB6F894DEBF0FBE19
:1026D000CDBFCF91DF911F910F91FF90EF90DF90D1
:1026E000CF90BF90AF909F900895EF92FF920F937D
:1026F0001F93CF93DF9310926004109261041092A5
:10270000620410926304CAEAD0E0CE0140E050E0D7
:10271000BA010E94EC21CE010E94C8217B018C01EC
:102720008AE06AE040E020E20E94EF180E943D0C3F
:10273000DF91CF911F910F91FF90EF900895DF925D
:10274000EF92FF920F931F9381E00E94650ED62EA9
:102750008AEA90E00E94C8217B018C018AE06AE04D
:1027600040E020E20E94EF18DD2011F40E943D0CB1
:102770001F910F91FF90EF90DF9008956F927F92DD
:102780008F929F92AF92BF92CF92DF92EF92FF9281
:102790000F931F93CF93DF9381E00E94780EA62EB4
:1027A000C72E82E00E94780E7B018C018C2D6A2C52
:1027B000E3016E01D82EE6019924882483940EED5E
:1027C00011E064EEC62E61E0D62E5BEDA52E51E041
:1027D000B52E4BC08881992009F5ADB7BEB71997C2
:1027E0000FB6F894BEBF0FBEADBFEDB7FEB73196C2
:1027F00011968C92D282C1823E0173821482C5836B
:102800001682878310860E9492198DB79EB709960B
:102810000FB6F8949EBF0FBE8DBF15C000D000D07C
:102820000F92EDB7FEB73196ADB7BEB711968C9249
:1028300012830183838314820E9492190F900F9058
:102840000F900F900F909394B92DB83069F400D089
:102850000F92EDB7FEB78182B382A2820E949219D5
:102860000F900F900F9099242196EC16FD0608F01A
:10287000B1CF00D00F9281E0ADB7BEB711968C9367
:10288000119788ED91E013969C938E9312970E9476
:1028900092190F900F900F90DF91CF911F910F9190
:1028A000FF90EF90DF90CF90BF90AF909F908F9070
:1028B0007F906F90089581E00E94780EDB012C914B
:1028C000EDB7FEB737970FB6F894FEBF0FBEEDBF5A
:1028D000319681E0ADB7BEB711968C9380EF91E051
:1028E0009283818323831482258316820E94921906
:1028F000EDB7FEB737960FB6F894FEBF0FBEEDBF2B
:102900000E943D0C0895EF92FF920F931F9381E078
:102910000E94780E7B018C0182E00E94780EF70104
:1029200060831F910F91FF90EF90089581E00E94C6
:10293000650E82E00E94650E0E94A5080E94840533
:102940000E943D0C0895FF920F931F93DF93CF9346
:10295000CDB7DEB764970FB6F894DEBF0FBECDBF1C
:1029600081E00E943E0E8C0182E00E94650EF62EF0
:1029700083E00E943E0EBC01F80180818136D9F4CB
:10298000FF2DF530A8F48E010F5F1F4FC8010E9484
:102990009B2164E18F2D869FB001112469527F4FE6
:1029A000C80144E150E00E94D4218FE193E063C06C
:1029B00089E093E060C08236D9F4EF2DE430A8F4CA
:1029C0008E010F5F1F4FC8010E949B2164E1FF2D04
:1029D000F69FB001112465577E4FC80144E150E0D5
:1029E0000E94D42184E093E046C084EE92E043C08C
:1029F0008436D9F48F2D8430A8F48E010F5F1F4FD9
:102A0000C8010E949B2164E1EF2DE69FB0011124D3
:102A1000655C7E4FC80144E150E00E94D4218FEDF7
:102A200092E029C08FEB92E026C08C3681F48E01B3
:102A30000F5F1F4FC8010E949B21C80163EC70E02B
:102A400044E150E00E94D4218AEB92E014C0833725
:102A500081F48E010F5F1F4FC8010E949B21C801A6
:102A60006FEA70E044E150E00E94D42185EB92E0EF
:102A700002C088E792E00E94AB180E943D0C649669
:102A80000FB6F894DEBF0FBECDBFCF91DF911F917F
:102A90000F91FF9008950E94261C683C71058105E6
:102AA0009105A4F080915204882381F08CEC97E08A
:102AB0000E94AB180E94B00F8AEC97E00E94AB18FE
:102AC0000E943D0C0E941D1C0E94A20B0895EF92D3
:102AD000FF920F931F93CF93DF938CE098E00E94B7
:102AE000AB18E0905C04F0905D0400915E041091DE
:102AF0005F048AE06AE040E020E20E94EF188AE08A
:102B000098E00E94AB18E0906004F090610400919E
:102B10006204109163048AE06AE040E020E20E94CF
:102B2000EF1888E098E00E94AB18E0905704F0900E
:102B300058040091590410915A048AE063E040E07F
:102B400020E20E94EF1886E098E00E94AB18C4E8EB
:102B5000D0E0E880F98000E010E08AE066E040E044
:102B600020E20E94EF1884E098E00E94AB180E94D7
:102B70003D0C0E94A20B19821882109257041092E9
:102B800058041092590410925A04DF91CF911F916A
:102B90000F91FF90EF90089584EF97E00E94AB189B
:102BA00082EF97E00E94AB180E943D0C0E94A20B9E
:102BB00008958091570490915804A0915904B091C0
:102BC0005A040196A11DB11D809357049093580497
:102BD000A0935904B0935A0485B192E0892785B92E
:102BE00008951F920F920FB60F921124EF92FF9249
:102BF0000F931F932F933F934F935F936F937F9305
:102C00008F939F93AF93BF93EF93FF9380915C0457
:102C100090915D04A0915E04B0915F040196A11DA6
:102C2000B11D80935C0490935D04A0935E04B09307
:102C30005F048091530490915404A0915504B09185
:102C400056040196A11DB11D809353049093540422
:102C5000A0935504B093560484369105A105B1059F
:102C6000B1F54091600450916104609162047091EB
:102C700063044F5F5F4F6F4F7F4F409360045093EB
:102C80006104609362047093630410925304109281
:102C9000540410925504109256048AEA90E00E945F
:102CA000EC2181EE97E00E94AB18E0906004F09078
:102CB000610400916204109163048AE06AE040E0DC
:102CC00020E20E94EF180E943D0C0E94A20B289A5D
:102CD0000E9467158FE99FE00197F1F700C000009F
:102CE00085B190E2892785B92898FF91EF91BF912E
:102CF000AF919F918F917F916F915F914F913F9194
:102D00002F911F910F91FF90EF900F900FBE0F909A
:102D10001F9018951F920F920FB60F9211242F93A8
:102D20003F934F935F936F937F938F939F93AF9353
:102D3000BF93EF93FF9385B190E2892785B90E94F5
:102D4000CC15FF91EF91BF91AF919F918F917F91A2
:102D50006F915F914F913F912F910F900FBE0F9008
:102D60001F9018951F920F920FB60F9211242F9358
:102D70003F934F935F936F937F938F939F93AF9303
:102D8000BF93EF93FF930E94D915FF91EF91BF91ED
:102D9000AF919F918F917F916F915F914F913F91F3
:102DA0002F910F900FBE0F901F901895DF92EF920A
:102DB000FF920F931F93D9B0D2947FE0D7228091D6
:102DC0005B048D1591F18091A202982F9F5F9093E3
:102DD000A202833350F188E293E00E94AB18ED2CFD
:102DE000FF2400E010E08AE063E040E020E20E947F
:102DF000EF1886E293E00E94AB18E0905B04ED20B0
:102E0000FF2400E010E08AE064E040E020E20E945D
:102E1000EF1884E293E00E94AB180E943D0C0E94E0
:102E2000A20BD0925B041092A2021F910F91FF900F
:102E3000EF90DF9008950F931F93DF93CF930F923E
:102E4000CDB7DEB78FEF809351048E010F5F1F4F18
:102E50002AC08981843451F0853418F48334D1F444
:102E60000DC0893441F08A35A9F40FC010925B047B
:102E70000E94D61611C00E9467150EC00E94B31F93
:102E800081E061E00E94EC1F02C00E94340C0E94AD
:102E9000A20B02C00E94290DC8010E94E71E8823D0
:102EA000C1F60E94CD0B80915104882309F70F9041
:102EB000CF91DF911F910F910895CF93DF930E94DF
:102EC000BE1E60E072EC81E090E00E94A41ECEED98
:102ED000DEE1CE010E9459180E94690BCE010E94CA
:102EE0009D0B0E94AE1F0E94B31F0E9456041092B9
:102EF00053041092540410925504109256048AEA16
:102F000090E00E94C82160936004709361048093F4
:102F100062049093630489B182958F7080935B04FF
:102F2000109252040E940C1B80E06BE475E10E9439
:102F3000721B85E00E94071B81E080936F0085E093
:102F40008093810010925C0410925D0410925E04E4
:102F500010925F0410925704109258041092590472
:102F600010925A048AE08093690083E08DBB83E26B
:102F700084B98CEF8BB952982D9A5298539886E069
:102F800091E06FE17FE00E947E0B8BE091E068E1D1
:102F90007FE00E947E0B8FE091E063EA74E10E9483
:102FA0007E0B85E191E068E171E10E947E0B8BE18F
:102FB00091E066E974E10E947E0B80E291E063E8B3
:102FC00074E10E947E0B85E291E06BE574E10E9462
:102FD0007E0B8AE291E06EEB73E10E947E0B8FE242
:102FE00091E065EF72E10E947E0B83E391E060EB7C
:102FF0007FE00E947E0B87E391E060E97FE00E9422
:103000007E0B8EE391E06FE973E10E947E0B84E416
:1030100091E065E773E10E947E0B8CE491E06DEF37
:103020007EE00E947E0B82E591E06FE770E10E94F6
:103030007E0B88E591E066EE7FE00E947E0B8FE5D7
:1030400091E063ED7EE00E947E0B84E691E067E410
:1030500070E10E947E0B8BE691E06FE970E10E94C7
:103060007E0B83E791E06AEA70E10E947E0B8AE7BB
:1030700091E06AE970E10E947E0B81E891E068EDE1
:103080007EE00E947E0B86E891E063EE7EE00E9487
:103090007E0B0E94A20B0E941B1780E090E0DF9144
:1030A000CF91089581E00E94650E862F0E94A204B0
:1030B00008959093A4028093A30208951F93182F5C
:1030C0008A3031F4E091A302F091A4028DE00995D9
:1030D000E091A302F091A402812F09951F91089518
:1030E000CF93DF93009739F0EC0102C00E945E1885
:1030F00089918823D9F7DF91CF910895EF92FF92BC
:103100000F931F93CF93DF937A010097E9F0FC01AF
:1031100080E090E0EF018617970718F000E010E0DC
:1031200010C02191EF0101962223A1F7F7CF8881EA
:10313000882311F0219601C080E20E945E180F5F83
:103140001F4F0E151F0598F3DF91CF911F910F911F
:10315000FF90EF900895CF93DF93EC01009719F45F
:1031600007C00E945E18FE01219684918823C9F74A
:10317000DF91CF9108958AE00E945E180895E82FAC
:10318000F0E0EF70F070E45EF74F84910E945E18FB
:1031900008951F93182F82958F700E94BF18812F5A
:1031A0000E94BF181F9108951F93182F892F0E9406
:1031B000C918812F0E94C9181F910895EF92FF929C
:1031C0000F931F937B018C01C8010E94D418C70183
:1031D0000E94D4181F910F91FF90EF9008952F92A5
:1031E0003F924F925F927F928F929F92AF92BF9247
:1031F000CF92DF92EF92FF920F931F93DF93CF93C3
:10320000CDB7DEB7A2970FB6F894DEBF0FBECDBF25
:10321000282E862E942E722E57016801442351F0D9
:1032200017FF08C066277727CB016E197F09800B2F
:10323000910B02C0C601B50118A2332444245524C1
:10324000A20191010E9444206F707070645E774FFC
:10325000FB0164916F8FB901CA018E01025E1F4F9D
:10326000382D315021E0992009F420E0321BA801CB
:10327000431B51095AA349A318C061157105810563
:10328000910579F0A20191010E9444206F70707045
:10329000645E774FFB016491F8016083B901CA0154
:1032A00002C0F80170820150104078010894E11CBE
:1032B000F11C29A13AA102171307F9F69920C1F0D0
:1032C000D7FE03C078018DE20AC0A114B104C10485
:1032D000D10419F078018BE202C0780180E2F70195
:1032E000808306C0F70181917F010E945E188A9455
:1032F0008820C1F7A2960FB6F894DEBF0FBECDBFEF
:10330000CF91DF911F910F91FF90EF90DF90CF90C1
:10331000BF90AF909F908F907F905F904F903F9025
:103320002F9008954F925F926F927F928F929F920B
:10333000AF92BF92CF92DF92EF92FF920F931F93C3
:10334000DF93CF930F92CDB7DEB75C88ED88FE8810
:1033500057E1C52ED12CCC0EDD1E4AE0642E712C17
:103360001AC08823A1F480E090E00F90CF91DF9104
:103370001F910F91FF90EF90DF90CF90BF90AF9093
:103380009F908F907F906F905F904F9008950E94D4
:103390005E185601650197012F5F3F4F552021F0C0
:1033A000F7017901849103C0F701808179018532A9
:1033B000C1F62F5F3F4F552021F0F701790184912D
:1033C00003C0F70180817901843629F0883781F0C4
:1033D0008336E9F606C03AE0832E912C00E117E22D
:1033E0000CC0F601808122E030E0C20ED31ECFCFA8
:1033F00020E1822E912C00E010E192E0A92EB12C68
:10340000AC0CBD1CF601C080D1808436A9F4D7FE77
:1034100010C0D094C194D108D3948DE20E945E185C
:1034200008C0C801B3010E9430208B0162307105D1
:1034300018F0C016D106A8F3C601B8010E943020CA
:10344000482E862F99830E94BF18C42C9981D92EAB
:10345000C801B4010E9430208B016115710561F72C
:1034600099CF86E084B987E085B980E593EC0E9426
:10347000691C82E00E941E1B0E94861C0E948F1CF9
:1034800088EB9BE00E94B71C88EB9BE00E94BC1C71
:1034900008958854944F21E0843F92072CF027E24E
:1034A0008131920724F405C084EF91E002C080E1ED
:1034B00097E26115710501F527C020918A003091CE
:1034C0008B008217930738F420918A0030918B008B
:1034D0002150304006C020918A0030918B002F5F30
:1034E0003F4F30938B0020938A0020918A003091C7
:1034F0008B002817390761F020918A0030918B00EA
:1035000028173907D1F6089590938B0080938A008D
:10351000089586E084B987E085B989E09DE30E943B
:10352000691C85E00E941E1B0E94861C80E090E0C2
:103530000E94B71C0895009731F02DE3893092075F
:1035400010F089E09DE30E94B71C089588E284B9D9
:10355000229A3C9A249886ED8CBD08952A98089565
:103560002A9A08950E94B01A8FE99FE00197F1F717
:1035700000C000000E94AE1A08958EBD0DB407FE73
:10358000FDCF08950DB407FEFDCF8EB508950895C3
:10359000813039F0813028F1823061F0833009F5D3
:1035A00012C080916E00877F80936E0080916E00C4
:1035B0008D7F11C080916E00877F80936E00809117
:1035C0006E00826016C080916E00877F80936E00CF
:1035D00080916E00826080936E0080916E008160A9
:1035E0000DC080916E00877F80936E0080916E0089
:1035F0008D7F80936E0080916E008E7F80936E0031
:1036000080916E00826080936E00A99A089595B5AE
:10361000987F982B95BD089582E00E94071B16BCE9
:10362000EEE6F0E080818160808310926404109265
:10363000650410926604109267040895E1E8F0E0D2
:103640009081987F982B9083089581E00E941E1BA3
:103650001092850010928400EFE6F0E08081816096
:1036600080830895E1EBF0E09081987F982B908320
:10367000089584E00E94321B1092B200E0E7F0E06F
:1036800080818160808310926C0410926D0410928E
:103690006E0410926F040895E5B5F0E0E770F070E5
:1036A000EE0FFF1FE35DF74F25913491C901089597
:1036B000E0918100F0E0E770F070EE0FFF1FE35D36
:1036C000F74F25913491C9010895E091B100F0E0E0
:1036D000E770F070EE0FFF1FE75CF74F2591349114
:1036E000C90108958A3040F4E82FF0E0EE0FFF1F83
:1036F000EB55FD4F7183608308958A3040F4E82FC5
:10370000F0E0EE0FFF1FEB55FD4F11821082089580
:103710001F9310E0812F0E947D1B1F5F1A30D1F78D
:103720000E940C1B0E94251B0E94391B78941F913C
:103730000895DF92EF92FF920F931F93CF93DF9341
:10374000EC01D6B4109268041092690410926A04D5
:1037500010926B040E944C1B9C0140E050E060E022
:1037600074E284EF90E00E94442079018A01293BB1
:103770008DE8380786E0480780E0580790F487E234
:10378000C131D80770F49E0140E050E0C801B70194
:103790000E94112028EE33E040E050E00E944420D7
:1037A00027C0C801B70128EE33E040E050E00E9496
:1037B000442079018A019E0140E050E0C801B70130
:1037C0000E9411209B01AC0113C08091680490916C
:1037D0006904A0916A04B0916B0483B7817F83BFB1
:1037E00083B7816083BF889583B78E7F83BF04C012
:1037F0002D0D311D411D511DE0906804F0906904AC
:1038000000916A0410916B0486B590E0A0E0B0E0EE
:10381000102F0F2DFE2CEE248E299F29A02BB12BCB
:1038200082179307A407B50780F2DF91CF911F910C
:103830000F91FF90EF90DF90089510926404109222
:103840006504109266041092670408952091640440
:10385000309165044091660450916704B901CA0132
:10386000089510926C0410926D0410926E041092E0
:103870006F04089520916C0430916D0440916E04A2
:1038800050916F04B901CA010895893049F48091BB
:103890008000826080938000809180008E7F0EC0C7
:1038A0008A3021F480918000826003C08091800082
:1038B0008D7F809380008091800081608093800064
:1038C000109289001092880010928B0010928A004A
:1038D0000895E0E8F0E020812E7F2083208122609F
:1038E0002083E1E8F0E020812860208320812061AE
:1038F0002083909387008093860010928900109215
:10390000880010928B0010928A000895E0E8F0E0A1
:1039100080818068808380818F7B80830895E0E848
:10392000F0E080818062808380818F7E8083089533
:10393000E0E8F0E080818F77808380818F7B8083D7
:103940000895E0E8F0E080818F7D808380818F7E24
:1039500080830895E0E8F0E080818D7F808380811E
:103960008E7F80830E94981C0E94A11C08959093D2
:10397000890080938800089590938B0080938A003B
:103980000895E0EBF0E080818068808380818F7B08
:103990008083808181608083808182608083E1EB8D
:1039A000F0E08081877F80830895E0EBF0E0808104
:1039B0008062808380818F7E80830895E0EBF0E0D9
:1039C00080818F77808380818F7B8083089580932F
:1039D000B30008958093B40008951F920F920FB61C
:1039E0000F9211242F933F934F935F936F937F9385
:1039F0008F939F93AF93BF93EF93FF938091640452
:103A000090916504A0916604B09167040196A11D90
:103A1000B11D8093640490936504A0936604B093F1
:103A200067048091680490916904A0916A04B09140
:103A30006B040196A11DB11D8093680490936904E5
:103A4000A0936A04B0936B048091A5029091A602A2
:103A5000009729F0E091A502F091A6020995FF9147
:103A6000EF91BF91AF919F918F917F916F915F91F6
:103A70004F913F912F910F900FBE0F901F9018956F
:103A80001F920F920FB60F9211242F933F934F93D3
:103A90005F936F937F938F939F93AF93BF93EF93B6
:103AA000FF9380916C0490916D04A0916E04B0918D
:103AB0006F040196A11DB11D80936C0490936D0459
:103AC000A0936E04B0936F048091B3029091B402FE
:103AD000009729F0E091B302F091B4020995FF91AB
:103AE000EF91BF91AF919F918F917F916F915F9176
:103AF0004F913F912F910F900FBE0F901F901895EF
:103B00001F920F920FB60F9211242F933F934F9352
:103B10005F936F937F938F939F93AF93BF93EF9335
:103B2000FF938091A7029091A802009729F0E0915D
:103B3000A702F091A8020995FF91EF91BF91AF9173
:103B40009F918F917F916F915F914F913F912F91B5
:103B50000F900FBE0F901F9018951F920F920FB6E7
:103B60000F9211242F933F934F935F936F937F9303
:103B70008F939F93AF93BF93EF93FF938091A9028D
:103B80009091AA02009729F0E091A902F091AA026F
:103B90000995FF91EF91BF91AF919F918F917F9187
:103BA0006F915F914F913F912F910F900FBE0F90AA
:103BB0001F9018951F920F920FB60F9211242F93FA
:103BC0003F934F935F936F937F938F939F93AF93A5
:103BD000BF93EF93FF938091AD029091AE02009757
:103BE00029F0E091AD02F091AE020995FF91EF91BD
:103BF000BF91AF919F918F917F916F915F914F9105
:103C00003F912F910F900FBE0F901F9018951F920C
:103C10000F920FB60F9211242F933F934F935F9300
:103C20006F937F938F939F93AF93BF93EF93FF9384
:103C30008091AF029091B002009729F0E091AF021D
:103C4000F091B0020995FF91EF91BF91AF919F91D3
:103C50008F917F916F915F914F913F912F910F9035
:103C60000FBE0F901F9018951F920F920FB60F92D4
:103C700011242F933F934F935F936F937F938F9371
:103C80009F93AF93BF93EF93FF938091B102909175
:103C9000B202009729F0E091B102F091B2020995C9
:103CA000FF91EF91BF91AF919F918F917F916F9114
:103CB0005F914F913F912F910F900FBE0F901F90EA
:103CC00018951F920F920FB60F9211242F933F93C6
:103CD0004F935F936F937F938F939F93AF93BF9314
:103CE000EF93FF938091B5029091B602009729F06F
:103CF000E091B502F091B6020995FF91EF91BF9165
:103D0000AF919F918F917F916F915F914F913F9173
:103D10002F910F900FBE0F901F90189581E794E0A0
:103D20006BEB72E040E450E00E94CD0A8AE794E039
:103D30006BEF72E040E450E00E94CD0A089590934A
:103D4000BA028093B90208959B01AC0182E080938E
:103D5000C00088E98093C10083E0220F331F441F15
:103D6000551F8A95D1F760E074E284EF90E00E94DD
:103D7000442021502093C400789408950E948E1E00
:103D80001092BA021092B90288ED8093C10060E0EF
:103D900072EC81E090E00E94A41E8FEF809370048B
:103DA00010927904109283041092820478940895FA
:103DB00081E794E008958AE794E008959091C00027
:103DC00095FFFCCF8093C600109270040895CF93A6
:103DD000DF93EC018091730490917404009769F073
:103DE0008091750490917604009739F081E794E012
:103DF0000E94DA0A88838FEF01C080E0DF91CF91C3
:103E00000895DF93CF930F92CDB7DEB7CE01019621
:103E10000E94E71E882319F0298130E002C02FEFAD
:103E20003FEFC9010F90CF91DF9108951092760472
:103E3000109275040895809175049091760400970E
:103E400011F48FEF089580E00895682F8AE794E0D9
:103E50000E94320B08958FEF809379048AE794E0F3
:103E60000E94DA0A0E94DE1E08951F920F920FB67A
:103E70000F9211242F933F934F935F936F937F93F0
:103E80008F939F93AF93BF93EF93FF9380917904A8
:103E9000882379F080917E0490917F04009739F017
:103EA0008AE794E00E94DA0A8093C60005C0109267
:103EB00079048FEF80937004FF91EF91BF91AF91E0
:103EC0009F918F917F916F915F914F913F912F9132
:103ED0000F900FBE0F901F9018951F920F920FB664
:103EE0000F9211242F933F934F935F936F937F9380
:103EF0008F939F93AF93BF93EF93FF936091C6000F
:103F00002091B9023091BA022115310539F0E091C2
:103F1000B902F091BA02862F09950FC081E794E0AB
:103F20000E94320B882349F480918204909183048B
:103F300001969093830480938204FF91EF91BF9147
:103F4000AF919F918F917F916F915F914F913F9131
:103F50002F910F900FBE0F901F9018958BE698E051
:103F60000E94AB18089586E698E00E94AB18089569
:103F700000D000D00F92EDB7FEB7319691E0ADB70B
:103F8000BEB711969C9320E638E032832183838369
:103F900014820E9492190F900F900F900F900F9023
:103FA0000895882349F000D00F9281E0EDB7FEB765
:103FB000818389E598E008C000D00F9281E0EDB7D9
:103FC000FEB7818382E598E0938382830E949219F1
:103FD0000F900F900F9008952DB73EB727503040A7
:103FE0000FB6F8943EBF0FBE2DBFEDB7FEB73196AA
:103FF00091E0ADB7BEB711969C9329E438E03283C7
:10400000218383831482658316820E9492192DB7BF
:104010003EB7295F3F4F0FB6F8943EBF0FBE2DBF8E
:104020000895629FD001739FF001829FE00DF11D02
:10403000649FE00DF11D929FF00D839FF00D749F22
:10404000F00D659FF00D9927729FB00DE11DF91FCE
:10405000639FB00DE11DF91FBD01CF01112408952B
:10406000AA1BBB1B51E107C0AA1FBB1FA617B7079E
:1040700010F0A61BB70B881F991F5A95A9F78095BA
:104080009095BC01CD010895A1E21A2EAA1BBB1B7D
:10409000FD010DC0AA1FBB1FEE1FFF1FA217B30714
:1040A000E407F50720F0A21BB30BE40BF50B661F2A
:1040B000771F881F991F1A9469F7609570958095EE
:1040C00090959B01AC01BD01CF0108952F923F92C5
:1040D0004F925F927F928F929F92AF92BF92CF92B8
:1040E000DF92EF92FF920F931F93CF93DF934B01D9
:1040F000EA016115710519F0FB0180839183209716
:1041000039F09E01225030402332310508F0F4C0CE
:10411000A82EB92EF50111915F017F01812F90E04A
:104120000E9493210097B1F71D3229F4F5011191F6
:104130007F0101E006C01B3219F4F50111917F01E6
:1041400000E0209719F0C031D105B9F4103381F4A3
:10415000F7018081883711F0883551F4F70111811A
:1041600082E090E0E80EF91E0260C0E1D0E005C0F8
:10417000209719F41033C1F422C0C830D105F9F0EA
:10418000C930D10524F4C230D10509F507C0CA30C1
:10419000D10551F0C031D105D1F427C0A12CB12CEB
:1041A000C12CF0E4DF2E26C0CAE0D0E0ECECAE2E4D
:1041B000ECECBE2EECECCE2EECE0DE2E1BC0C8E00C
:1041C000D0E0A12CB12CC12C70E1D72E13C09E01E0
:1041D000442737FD4095542F60E070E080E090E880
:1041E0000E94442059016A0105C0A12CB12CC12CA8
:1041F00068E0D62E40E060E070E0CB011E01442470
:1042000037FC4094542C50ED752E710EE72DEA309A
:1042100070F0212F21542A3118F439EC732E06C086
:10422000212F21562A3130F529EA722E710E272DC1
:1042300030E02C173D07F4F447FD18C0A616B7066A
:10424000C806D90680F0A20191010E941120670DD5
:10425000711D811D911D6130F0E07F07F0E08F0737
:10426000F0E89F0710F04FEF01C041E0F701119116
:104270007F01C9CF8114910491F0442339F008944F
:10428000E108F108F401F182E08209C001FF1BC0DE
:10429000970122503040F4013183208314C047FF3E
:1042A00012C000FF05C060E070E080E090E804C04C
:1042B0006FEF7FEF8FEF9FE722E230E030938504CE
:1042C0002093840416C000FF08C0909580957095D7
:1042D00061957F4F8F4F9F4F0CC097FF0AC082E2BE
:1042E00090E090938504809384046FEF7FEF8FEFCD
:1042F0009FE79B01AC0103C020E030E0A901B901B8
:10430000CA01DF91CF911F910F91FF90EF90DF9045
:10431000CF90BF90AF909F908F907F905F904F9085
:104320003F902F900895911164C0803219F0895008
:104330008550D0F70895FB01DC0101900D9200201B
:10434000E1F70895FB01DC014150504030F08D91C0
:104350000190801919F40020B9F7881B990B089572
:10436000DC01CB01FC01F999FECF06C0F2BDE1BD35
:10437000F89A319600B40D9241505040B8F7089524
:10438000F999FECF92BD81BDF89A992780B508951D
:10439000A6E1B0E044E050E00C94B221A8E1B0E026
:1043A00042E050E00C94B221DC01CB0103C02D911E
:1043B0000E94DF2141505040D0F70895262FF999EF
:1043C000FECF1FBA92BD81BD20BD0FB6F894FA9AF8
:1043D000F99A0FBE01960895242F0E94DF21252F00
:1043E0000E94DF210C94F4210E94DE21272F0C94DF
:0C43F000DF21992788270895F894FFCF5B
:1043FC005B002C005D0068656C700069646E007376
:10440C006574736E00676574736E00746573740005
:10441C00706F6B65007065656B0064756D70006125
:10442C0064630064696F0073747265616D00676525
:10443C00747768007265736574776800726573656C
:10444C0074006F77726F6D006F776C6F6164006FC3
:10445C00777370006F7773617665006F7773746133
:10446C007274006F7774656D70006F77646174613E
:0C447C00006F777270006F77777000009F
:00000001FF
