:100000000C9432040C946E120C9400130C944F0454
:100010000C944F040C944F040C944F040C944C1EFD
:100020000C944F040C942B1D0C941F1E0C94C51D96
:100030000C94F21D0C94E2120C946B1D0C94981D00
:100040000C94D81C0C944F040C94581F0C944F041F
:100050000C94201F0C94B90A0C944F040C944F0478
:100060000C944F040C944F0425642E004445565FB5
:100070004E4F545F464F554E44002D002D003032F8
:1000800020745F726561645F736C6F7420203A2026
:1000900025640A00303220745F726561645F7361A9
:1000A0006D7020203A2025640A00303220745F777A
:1000B000726974655F736C6F74203A2025640A005E
:1000C000303220745F77726974655F6C6F772020BF
:1000D0003A2025640A00303220745F7265736574BB
:1000E0005F72782020203A2025640A003032207484
:1000F0005F72657365745F74782020203A202564F0
:100100000A00303120745F636F6E7620202020203B
:1001100020203A2025640A004444313878323020C7
:1001200054696D696E670A002E0022002564006321
:100130006D643E004552524F523A2000636F6D6D20
:10014000616E64206E6F7420666F756E64002200AD
:1001500022007D3C2F25643E003C25643E7B2263CB
:100160006D64223A2200222C202264617461223ABA
:1001700020005D005D005D2C005B5D005B25642C54
:10018000005B00435243204572726F72005B223065
:10019000222C302C305D5D005B0031002564005B5B
:1001A0005B22504F525442222C25645D2C5B22501E
:1001B0004F525442222C25645D5D0025645D003160
:1001C000000D0A000D0A00203078257800307825CF
:1001D0007825782030782578005B25642C223078CB
:1001E0002578225D007B2274657374223A005B00DF
:1001F0005D002C00220022007D005B25642C002C79
:1002000022495251223A5B005B25642C002C22507B
:100210004F525444223A5B005B25642C002C225040
:100220004F525442223A5B005B25642C002C224141
:100230004443223A5B002C226C6F636174696F6ED9
:10024000223A007B22534E223A00224552524F520C
:10025000202D20496E76616C69642073796E74611B
:1002600078206C6162656C205B617C627C647C6977
:100270007C6C7C735D206465764E756D206C61626C
:10028000656C5F746578742200224F4B2200224F08
:100290004B2200224552524F52202D20496E76614A
:1002A0006C696420646576696365206E756D62654E
:1002B000722200224F4B2200224552524F52202DD3
:1002C00020496E76616C6964206465766963652097
:1002D0006E756D6265722200224F4B2200224552DC
:1002E000524F52202D20496E76616C6964206465FE
:1002F00076696365206E756D6265722200224F4BD0
:100300002200224552524F52202D20496E76616CB8
:10031000696420646576696365206E756D626572D7
:100320002200224F4B220025645D0022706F727400
:100330005F645F6E6577220022706F72745F645F26
:100340006E657722006972715F706F72745F6422EC
:100350002C2264617461223A5B002200727477651A
:10036000622031342E30362E32370022006F7777FC
:1003700070202020202020202020202020203A2013
:100380007772697465206461746120746F20737082
:100390006563696669656420706167650A006F77E7
:1003A0007270202020202020202020202020203A91
:1003B000207265616420737065636966696320708B
:1003C0006167652066726F6D203338323420646552
:1003D000766963650A006F7764617461202020206C
:1003E000202020202020203A207265616420646152
:1003F00074612066726F6D20333832342064657604
:100400006963650A006F7774656D70202020202075
:100410002020202020203A20726561642074656DC0
:100420007065726174757265730A006F77737461B9
:100430007274202020202020202020203A20737455
:100440006172742074656D70657261747572652077
:100450006D6561737572656D656E740A006F777393
:1004600061766520202020202020202020203A2096
:100470007361766520736372617463687061642070
:10048000746F20656570726F6D0A006F77737020EE
:100490002020202020202020202020203A207368A7
:1004A0006F772073637261746368207061640A00FF
:1004B0006F776C6F61642020202020202020202076
:1004C000203A206C6F616420656570726F6D2063E7
:1004D0006F6E74656E740A006F77726F6D202020E6
:1004E0002020202020202020203A207265616420D6
:1004F000726F6D206F6620612073696E676C652076
:100500006465766963650A000A0A4F6E65776972E9
:100510006520436F6D6D616E64733A0A0072657396
:1005200065742020202020202020202020203A2018
:1005300072657365742074696D6572300A00726546
:100540007365747768202020202020202020203A06
:100550002072657365742074686520656570726FBC
:100560006D20616363756D756C61746F720A0067ED
:100570006574776820202020202020202020202043
:100580003A2067657420616363756D756C6174658D
:10059000642057682072656164696E670A000A0A00
:1005A000506F776572204D6F6E69746F72696E67F8
:1005B00020436F6D6D616E64733A0A0073747265E7
:1005C000616D20202020202020202020203A207330
:1005D000746172742073747265616D696E670A006C
:1005E00064696F202020202020202020202020202F
:1005F000203A20676574206469676974616C2070B3
:100600006F72742072656164696E67730A00616459
:100610006320202020202020202020202020203A7D
:1006200020676574204144432072656164696E6788
:100630000A007465737420202020202020202020B0
:100640002020203A20746573742066756E63746987
:100650006F6E0A00706F6B65205B7265675D205B73
:1006600076616C5D203A20736574732072656769EA
:10067000737465722076616C756520746F205B768B
:10068000616C5D200A007065656B205B7265675D5B
:10069000202020202020203A2072657475726E730D
:1006A000206465632C2068657820616E642062692F
:1006B0006E2076616C7565206F6620726567697360
:1006C0007465720A00746573742020202020202035
:1006D0002020202020203A20746573742066756ED7
:1006E0006374696F6E0A0069646E202020202020E8
:1006F00020202020202020203A207072696E747300
:100700002064657669636520494420616E642076C3
:10071000657273696F6E20696E666F0A000A436FB7
:100720006D6D616E64733A0A005A202020202020EB
:10073000202020202020202020203A207265736570
:100740007420636F6D6D616E64206E756D6265728D
:1007500020746F207A65726F0A00492020202020C3
:1007600020202020202020202020203A20666F7288
:10077000636520696E746572727570742030200A2A
:100780000043202020202020202020202020202066
:1007900020203A20636C6561722073637265656E18
:1007A0000A0044202020202020202020202020205B
:1007B0002020203A2067657420706F7274204420D6
:1007C00076616C75650A00496E7374616E7420639E
:1007D0006F6D6D616E64733A0A005D006972715FDE
:1007E00031222C2264617461223A5B006972715F6C
:1007F00030222C2264617461223A5B006972715F5D
:10080000746F76665F30222C2264617461223A5BD9
:10081000003031323334353637383941424344457C
:100820004600000001000800400000010004000034
:1008300001000800200040008000000100041B5B54
:1008400025643B256448001B5B3F32356C001B5B15
:100850003F323568001B5B25646D001B5B324A002C
:100860001B63000011241FBECFEFD8E0DEBFCDBF59
:1008700011E0A0E0B1E0E2EDF3E402C005900D92DA
:10088000A439B107D9F714E0A4E9B1E001C01D9281
:10089000AF38B107E1F70E944A170C94E7210C9496
:1008A0000000E3E4F3E0119283E0EC34F807D9F7B9
:1008B00010924C0310924D0310924E0310924F036E
:1008C000109250031092510310925203109253034E
:1008D00010925703219A299A80E090E00E94B92152
:1008E000909359038093580382E090E00E94B921CD
:1008F00090935B0380935A0384E090E00E94B921B7
:1009000090935D0380935C0386E090E00E94AB21AE
:1009100080935E0387E090E00E94AB2180935F03A9
:1009200088E090E00E94AB218093600389E090E032
:100930000E94AB218093610308958093570308952B
:1009400002C0000001970097E1F708951F93CF932D
:10095000DF93219A35B1C1E0D0E0CE01009057037A
:1009600002C0880F991F0A94E2F7282F20952323AD
:1009700025B924B1282B24B980915A0390915B03A7
:100980000E94A00424B1CE010090570302C0880F3A
:10099000991F0A94E2F78095822384B982E090E05F
:1009A0000E94A00483B10090570302C0CC0FDD1F4A
:1009B0000A94E2F78C2383B913B180915C03909180
:1009C0005D030E94A004812FDF91CF911F910895B4
:1009D0001F93CF93DF93182F95B1C1E0D0E09E0114
:1009E0000090570302C0220F331F0A94E2F7822FB0
:1009F0008095892385B984B1822B84B980915E0367
:100A000090E00E94A004112369F094B10090570374
:100A100002C0CC0FDD1F0A94E2F79E012095822FC1
:100A2000892384B980915F0390E00E94A00424B1DF
:100A300081E090E00090570302C0880F991F0A944C
:100A4000E2F78095822384B9DF91CF911F910895B9
:100A5000CF93DF93299825B181E090E00090570370
:100A600002C0880F991F0A94E2F7382F309523238C
:100A700025B924B1282B24B984B1832384B980916A
:100A8000600390E00E94A004299A83B1C82FD0E0AF
:100A90000090570302C0D595C7950A94E2F7C1703C
:100AA000D0708091610390E00E94A0048C2FDF91B0
:100AB000CF9108950F931F93F89410E008E007C0BA
:100AC0000E9428058795882787951695182B015031
:100AD000B8F77894812F1F910F9108950F931F936A
:100AE000082FF89418E005C0802F81700E94E80458
:100AF00006951150C8F778941F910F910895DF92D1
:100B0000EF92FF920F931F93CF93DF9380E091E0DA
:100B10000E945B18C3E4D3E0DD24E990FF2400E0E9
:100B200010E08AE063E040E020E20E94DA188D2DB8
:100B3000883021F082E091E00E945B18D3948D2DE3
:100B4000893059F784E091E00E945B18DF91CF91E2
:100B50001F910F91FF90EF90DF900895AF92BF9299
:100B6000CF92DF92EF92FF920F931F93CF93DF9379
:100B700086E091E00E945B18CCE4D3E0BB24AA2479
:100B8000A3949CE2E92E91E0F92E08E211E08AE2BA
:100B9000C82E81E0D82E899100D000D00F92EDB7F9
:100BA000FEB73196ADB7BEB71196AC92F282E18234
:100BB000838314820E947D190F900F900F900F90E5
:100BC0000F90BB2DB73041F400D00F92EDB7FEB7B8
:100BD000A182D382C2820BC000D00F92ADB7BEB744
:100BE0001196AC92119713961C930E9312970E9434
:100BF0007D190F900F900F90B394BB2DB83059F61C
:100C0000DF91CF911F910F91FF90EF90DF90CF90E8
:100C1000BF90AF9008951F9300D00F9211E0ADB731
:100C2000BEB711961C93119788E191E013969C939F
:100C30008E9312970E947D1900D0EDB7FEB73196C2
:100C4000ADB7BEB711961C9382E091E09283818389
:100C50008091580390915903948383830E947D1956
:100C6000EDB7FEB73196ADB7BEB711961C938CEEBB
:100C700090E09283818380915A0390915B039483E7
:100C800083830E947D19EDB7FEB73196ADB7BEB72D
:100C900011961C9386ED90E09283818380915C0392
:100CA00090915D03948383830E947D19EDB7FEB715
:100CB0003196ADB7BEB711961C9380EC90E092834D
:100CC000818380915E03838314820E947D19EDB736
:100CD000FEB73196ADB7BEB711961C938AEA90E085
:100CE0009283818380915F03838314820E947D19A4
:100CF000EDB7FEB73196ADB7BEB711961C9384E938
:100D000090E09283818380916003838314820E94A8
:100D10007D19EDB7FEB73196ADB7BEB711961C93EE
:100D20008EE790E0928381838091610383831482B4
:100D30000E947D190F900F900F900F900F901F91B0
:100D40000895F8948430D9F0853038F4823079F001
:100D5000833090F4813001F507C08630B1F08630E1
:100D600088F08730C9F414C080E090E002C082E0CF
:100D700090E00E94DF2110C084E090E0FACF86E08E
:100D800090E008C087E090E005C088E090E002C0F5
:100D900089E090E00E94C9210E945104789408954E
:100DA0000F931F93CF93DF93F8940CE413E0C82FB5
:100DB000D0E023E0CC0FDD1F2A95E1F7C65FDF4FBF
:100DC000F80161918F01CE010E94C9212196F3E0C3
:100DD00004351F07A9F77894DF91CF911F910F91E8
:100DE0000895282F392FD901ECE4F3E08D918193F8
:100DF00083E0E535F807D1F70895CF93DF9380912D
:100E00004C03882321F48CEC0E946E050CC085E510
:100E10000E946E05CCE4D3E089910E946E0583E0C8
:100E2000C435D807C9F7DF91CF9108958CEC0E94A3
:100E30006E0584E40E946E05089598E028E1362F3F
:100E4000382730FD02C0669503C06227669560684A
:100E5000915011F08695F3CF862F0895AF92BF92EF
:100E6000DF92EF92FF920F931F93DF93CF930F9236
:100E7000CDB7DEB77C015B01FB0110828C01DD2464
:100E80000CC0F80181918F01F501608149830E94B6
:100E90001D07F5018083D3944981D41690F3F7019F
:100EA000E40FF11D81E02081F5019081291380E09C
:100EB0000F90CF91DF911F910F91FF90EF90DF90F6
:100EC000BF90AF900895EF92FF920F931F93DF931F
:100ED000CF930F92CDB7DEB7E82E0E94FD068EEBC2
:100EE0000E946E0503E413E0FF2406C00E945A0529
:100EF000F80181938F01F394FE14C0F319824E2DF3
:100F0000415083E493E0BE016F5F7F4F0E942E0744
:100F10000F90CF91DF911F910F91FF90EF90089567
:100F20000F931F93DF93CF930F92CDB7DEB7198244
:100F30000E94A6048CEC0E946E050E94A60483E326
:100F40000E946E050CE413E00E945A05F80181939B
:100F50008F01F3E004351F07B9F7C8010897BE01F8
:100F60006F5F7F4F47E00E942E070F90CF91DF9178
:100F70001F910F910895EF92FF920F931F93DF93AC
:100F8000CF930F92CDB7DEB7082F10E043E0000FEC
:100F9000111F4A95E1F7065F1F4F3CE4E32E33E053
:100FA000F32EC8010E94AB21F70181937F010F5FEF
:100FB0001F4FF4E5EF16F3E0FF0699F7C701089716
:100FC000BE016F5F7F4F47E00E942E070F90CF91C9
:100FD000DF911F910F91FF90EF900895CF93DF93D2
:100FE000EB0127EE33E0398328832FE037E23B83A0
:100FF0002A830E94BB07882389F10E94A6040E94CD
:1010000016078FEF93ECA9E081509040A040E1F7E4
:1010100000C000000E94A60489E00E9463078823A4
:10102000F1F05091440340E02091430330E0242B41
:10103000352B35952795398328836091490370E0D6
:101040004FE85DEF649F9001659F300D749F300DF8
:101050001124205F384D3B832A8301C080E0DF915B
:10106000CF9108950F931F93DF93CF930F92CDB736
:10107000DEB7082F0E94A6048CEC0E946E058FE953
:101080009FE00197F1F700C0000088EB0E946E0519
:10109000802F0E946E050E94A6048CEC0E946E05B3
:1010A000EFE9FFE03197F1F700C000008EEB0E94FE
:1010B0006E05802F0E946E0503E413E00E945A051E
:1010C000F80181938F01F3E00C341F07B9F71982FF
:1010D000C8010997BE016F5F7F4F48E00E942E074D
:1010E0000F90CF91DF911F910F9108950E94A60458
:1010F0008CEC0E946E0584E40E946E058FE798E3F5
:10110000A1E081509040A040E1F700C000000E94A3
:10111000A6048CEC0E946E0584EB0E946E058FE79E
:1011200098E3A1E081509040A040E1F700C00000AA
:1011300080E00E9432080E947F050E94A604089564
:101140000F931F93DF93CF930F92CDB7DEB70E941B
:10115000A6040E94FD068FE99FE00197F1F700C009
:10116000000088EB0E946E0580E00E946E050E94E0
:10117000A6040E94FD06EFE9FFE03197F1F700C0F9
:1011800000008EEB0E946E0580E00E946E0503E475
:1011900013E00E945A05F80181938F01F3E00C34AB
:1011A0001F07B9F71982C8010997BE016F5F7F4F0A
:1011B00048E00E942E070F90CF91DF911F910F9171
:1011C0000895DF92EF92FF920F931F93CF93DF93D7
:1011D000EC0187EE93E0DE018D939D937D018FE01E
:1011E00097E29B838A830E94A60480914C038031FE
:1011F00009F09DC089E00E946307D82E3091440316
:1012000020E08091430390E0822B932B9983888385
:1012100020914403959587952F3FA1F59983888365
:10122000409149034C3068F050E021E732E0429FA2
:10123000C001439F900D529F900D11248C549D41ED
:1012400073C00196998388836091490370E041E7F8
:1012500052E0649F9001659F300D749F300D112402
:101260002C53364F3B832A83009709F0B0C000D03F
:101270000F9281E0EDB7FEB781838CE790E0938316
:10128000828333C099838883409149034D3008F4A9
:101290003FC001979983888380914303409149031C
:1012A000882349F550E021E732E0429FC001439F87
:1012B000900D529F900D11248C549D419B838A83E5
:1012C00019821882809149038D3008F480C000D0C3
:1012D0000F9281E0ADB7BEB711968C9311978AE754
:1012E00090E013969C938E9312970E947D190F9015
:1012F0000F900F906CC050E02FE83DEF429FC0016F
:10130000439F900D529F900D1124845A9B4B0CC00B
:1013100050E02FE83DEF429FC001439F900D529F48
:10132000900D1124845B924E9B838A8350C0883237
:1013300049F589E00E946307D82E3091440320E0EC
:101340008091430390E0822B932B64E095958795E1
:101350006A95E1F7998388833091440320E0809176
:10136000430390E0822B932B8F70907041E752E003
:10137000849F9001859F300D949F300D11243B83F5
:101380002A8325C0863271F40E94A0088823E9F0E0
:101390008091450388831982809144038A83F701F1
:1013A000118213C000D00F9281E0ADB7BEB7119685
:1013B0008C9311978CE690E013969C938E931297E2
:1013C0000E947D190F900F900F90DD24D39400D0D0
:1013D00000D00F92EDB7FEB7319681E0ADB7BEB742
:1013E00011968C9388E690E092838183888199811D
:1013F000948383830E947D190F900F900F900F901C
:101400000F90EA80FB800027F7FC0095102F8AE000
:1014100064E040E020E30E94DA188D2DDF91CF9147
:101420001F910F91FF90EF90DF9008950F931F93FE
:10143000182F062F0E94A6048CEC0E946E058EE4E5
:101440000E946E05812F0E946E05802F0E946E05FE
:10145000802F8F5F0E946E05802F8D5F0E946E052A
:10146000802F8C5F0E946E050E94A6048CEC0E9467
:101470006E0588E40E946E05812F0E946E051F9103
:101480000F910895EAE7F0E08081877F8083808173
:101490008F7780830895EAE7F0E09081987F982B1A
:1014A00090830895ECE7F0E090818295880F880F93
:1014B000807C9F73892B80830895CF93DF93CAE745
:1014C000D0E088818068888388818F7D888386E0EA
:1014D0000E944B0A81E00E94520AECE7F0E0808112
:1014E0008F7D8083888188608883109262037894DE
:1014F000DF91CF910895ECE7F0E090818F71907EBD
:10150000892B80830895EAE7F0E080818061808301
:10151000808180648083089580917A00807408952A
:101520001092620390917C008F71907E892B809342
:101530007C0080917A00806180937A0080917A00AB
:10154000806480937A0080917A0086FDFCCF2091A0
:10155000780030917900932F80E030E0282B392BF0
:10156000C90108950E94900A96958795969587954A
:1015700008951F920F920FB60F9211248F938FEF41
:10158000809362038F910F900FBE0F901F9018955C
:10159000FC018FB7F8947183608353834283178271
:1015A0001682158214828FBF0895FC019FB7F894AC
:1015B0004481558141155105C9F026813781A081AB
:1015C000B181A20FB31F8C912F5F3F4F37832683CA
:1015D000628173812617370720F0261B370B37836C
:1015E0002683415050405583448301C080E09FBF13
:1015F0000895FC01AFB7F894248135816217730711
:10160000A0F486819781860F971F978386834281F6
:1016100053818417950720F0841B950B978386834D
:10162000261B370B3583248302C015821482AFBF7B
:101630000895FC01CB012FB7F89446815781840FA0
:10164000951F628173810E941B200190F081E02D23
:10165000E80FF91F80812FBF08951F93FC01162FFB
:101660004FB7F894A481B58122813381A217B307C3
:10167000A0F4868197818A0F9B1FB9010E941B20CD
:10168000A081B181A80FB91F1C9384819581019617
:10169000958384834FBF8FEF02C04FBF80E01F91BF
:1016A0000895FC014FB7F89422813381848195819C
:1016B000281B390B4FBFC90108952FB7F894FC01BF
:1016C000158214822FBF089510926703109263034E
:1016D00010926803109265031092640310926603DF
:1016E0001092940110929501109296011092970118
:1016F00008951F93CF93DF939C01EB011091660334
:1017000087E0189FC001112486569E4FB9010E94A0
:101710008621E12FF0E0EE0FFF1FE459FD4FD1834A
:10172000C0831F5F10936603DF91CF911F910895CF
:10173000909399018093980108958DB79EB707976C
:101740000FB6F8949EBF0FBE8DBFEDB7FEB73196B2
:1017500081E0ADB7BEB711968C9389E591E0928395
:1017600081838091940190919501A0919601B0910F
:10177000970183839483A583B6830E947D198DB7D7
:101780009EB707960FB6F8949EBF0FBE8DBF089503
:10179000E0916403F0916503309739F00995109258
:1017A0006503109264030E949D0B08951F93CF93CD
:1017B000DF93E0919801F09199018DE009950E94E5
:1017C0009D0B10916303C9E6D3E007C0E091980137
:1017D000F09199018991099511501123B9F7DF9181
:1017E000CF911F910895CF93DF93882319F0813013
:1017F000F9F40BC0809169038823D1F089EB93E061
:1018000069E673E00E94862113C0C9E6D3E0CE01E9
:1018100069EB73E00E94862109900020E9F7219787
:10182000C956D340C0936303C09368030E94D60B8C
:10183000DF91CF9108958091940190919501A091AD
:101840009601B09197010196A11DB11D809394015D
:1018500090939501A0939601B093970108951092EB
:10186000940110929501109296011092970108959B
:101870008DB79EB707970FB6F8949EBF0FBE8DBF6A
:10188000EDB7FEB7319681E0ADB7BEB711968C9338
:1018900082E591E0928381838091940190919501FA
:1018A000A0919601B091970183839483A583B68319
:1018B0000E947D198DB79EB707960FB6F8949EBF0C
:1018C0000FBE8DBF0E94A6180E941B0C0895CF93D7
:1018D000DF938DB79EB707970FB6F8949EBF0FBEE4
:1018E0008DBFEDB7FEB7319681E0ADB7BEB71196AB
:1018F0008C9380E591E09283818380919401909113
:101900009501A0919601B091970183839483A5835B
:10191000B6830E947D19EDB7FEB737960FB6F894DF
:10192000FEBF0FBEEDBFC4E3D1E008C02196FC01AD
:101930008491E0919801F09199010995CE01FE0101
:101940002491222399F7C9E6D3E005C0E0919801DC
:10195000F091990109958991882311F08032B1F7AE
:10196000E0919801F09199018AE30995E09198013D
:10197000F091990180E20995CCE3D1E008C021966D
:10198000FC018491E0919801F09199010995CE01B3
:10199000FE012491222399F700D00F9281E0ADB788
:1019A000BEB711968C9311978EE491E013969C9399
:1019B0008E9312970E947D190F900F900F900E94A6
:1019C000380CDF91CF9108950F931F9380E00E9410
:1019D000F30B00E001C00F5FE02FF0E0E759FC4F90
:1019E0008081803211F08823B1F7002351F186E61F
:1019F00091E00E94961810E01CC027E0129FC001E1
:101A0000112486569E4F69E673E0402F50E00E94F5
:101A10008D21009769F4E12FF0E0EE0FFF1FE459EC
:101A2000FD4F80819181909365038093640309C089
:101A30001F5F80916603181700F30E94670C0E94D5
:101A40009D0B1F910F9108951F93182F809167038D
:101A5000823009F03FC0123461F0133418F41134AD
:101A6000B1F505C0133449F0143489F521C081E083
:101A700001C082E00E94F30B2AC08091680390911C
:101A80006303E0919801F09199018917F0F48F5F59
:101A9000809368038BE10995E0919801F091990199
:101AA0008BE50995E0919801F091990183E40EC0CE
:101AB00080916803E0919801F0919901882329F0C1
:101AC00081508093680388E001C087E009951092F7
:101AD0006703CDC0813021F41B3511F482E0C5C00D
:101AE00010926703812F80528F3508F044C0909187
:101AF0006803809163039817B1F4E0919801F09125
:101B00009901812F099580916803E82FF0E0E7594A
:101B1000FC4F10838F5F80936803809163038F5F16
:101B200080936303A4C08F5F8093630309C0E82F91
:101B3000F0E0E759FC4FDF0111972C912083815091
:101B40009817A8F3E92FF0E0E759FC4F10839F5F47
:101B5000909368030E94D60B1091680307C0E09130
:101B60009801F091990188E009951F5F80916303C6
:101B70001817A8F37CC01A3011F01D30B1F4809111
:101B80006303E82FF0E0E759FC4F10828F5F8093EA
:101B90006303809168038F5F809368030E94E40C65
:101BA000109263031092680362C01F3719F0183057
:101BB00009F058C080916803882309F44CC09091C3
:101BC00063038917E9F4E0919801F091990188E0A5
:101BD0000995E0919801F091990180E20995E091D1
:101BE0009801F091990188E00995809163038150F3
:101BF000809363038091680381508093680337C0AA
:101C000091509093630381508093680307C0E82F3D
:101C1000F0E0E759FC4F218120838F5F8917B8F3EB
:101C20000E94D60BE0919801F091990180E209950C
:101C30001091680307C0E0919801F091990188E044
:101C400009951F5F2091630330E0812F90E02817F2
:101C500039078CF70CC0E0919801F091990187E069
:101C6000099505C01B3119F481E0809367031F912A
:101C7000089520E001C02F5FE22FF0E0E759FC4F0C
:101C800090819032C1F390E014C02F5FE22FF0E01A
:101C9000E759FC4F3081332321F03032B1F701C0D6
:101CA0002F5FE22FF0E0E759FC4F30813032C1F373
:101CB0009F5F981758F330E027593C4FC9010895AA
:101CC000DF93CF9300D0CDB7DEB70E94390EBE01AF
:101CD0006F5F7F4F4AE050E00E9451200F900F90BD
:101CE000CF91DF910895DF93CF9300D0CDB7DEB7CA
:101CF0000E94390EBE016F5F7F4F40E150E00E94AD
:101D000051200F900F90CF91DF910895882331F4E7
:101D100085B78C7F85BF85B7862B85BF08958823BF
:101D200021F47093A9026093A8020895882321F4F6
:101D30001092A9021092A802089580E00E94960EC7
:101D400008951F920F920FB60F9211242F933F9375
:101D50004F935F936F937F938F939F93AF93BF93B3
:101D6000EF93FF938091A8029091A902009729F028
:101D7000E091A802F091A9020995FF91EF91BF911E
:101D8000AF919F918F917F916F915F914F913F9113
:101D90002F910F900FBE0F901F9018950E947F05F6
:101DA0000E94380C089581E00E94600E862F0E94E8
:101DB00032080E947F050E94380C08951F9381E02D
:101DC0000E94600E162F82E00E94600E812F0E94FA
:101DD000160A8FE99FE00197F1F700C00000812FFC
:101DE0000E9432080E947F050E94380C1F910895BE
:101DF00010925E0410925F041092600410926104CD
:101E0000109285001092840010925C048FEB91E098
:101E10000E9496180E94380C08958BE693E00E9469
:101E200096188CE593E00E9496188AE593E00E944C
:101E300096180E94380C089587EC97E00E94961837
:101E400082EA97E00E94961881E897E00E9496182F
:101E50008AE597E00E94961889E297E00E9496181A
:101E60008DE197E00E94961887EE96E00E94961802
:101E700085EC96E00E94961886E896E00E949618F7
:101E800084E596E00E94961882E396E00E949618F8
:101E90008EE096E00E94961880EE95E00E949618DB
:101EA0008CEB95E00E9496188EE995E00E949618BA
:101EB0008FE695E00E9496188EE395E00E949618B2
:101EC0008DE195E00E94961888E095E00E949618B2
:101ED00088ED94E00E94961880EB94E00E9496189A
:101EE0008BE894E00E9496188DE594E00E94961885
:101EF0008BE294E00E94961885E094E00E94961888
:101F000086ED93E00E9496188EE993E00E94961861
:101F10008DE693E00E949618089581E00E94600E7D
:101F200060935A0400D000D00F92EDB7FEB73196FF
:101F300081E0ADB7BEB711968C938CE991E09283A6
:101F40008183638314820E947D190F900F900F90FC
:101F50000F900F900E94380C0895DF93CF930F924B
:101F6000CDB7DEB781E00E94600E33B129B18DB7E5
:101F70009EB707970FB6F8949EBF0FBE8DBFEDB703
:101F8000FEB7319681E0ADB7BEB711968C938FE95D
:101F900091E092838183338314822583168269833F
:101FA0000E947D19EDB7FEB737960FB6F894FEBFC5
:101FB0000FBEEDBF6981662311F40E94380C0F90AB
:101FC000CF91DF910895CF92DF92EF92FF920F931E
:101FD0001F93CF93DF9381E891E00E949618C0E0B1
:101FE000D0E0DD24D394CC24C3948CE7E82E81E0A8
:101FF000F82E06E711E0219600D000D00F92EDB741
:10200000FEB73196ADB7BEB71196CC92F282E1829F
:10201000D483C3830E947D190F900F900F900F906F
:102020000F908D2D0E94BB07882319F00E94AE05EA
:1020300004C089E791E00E949618BD2DB33169F084
:1020400000D00F92EDB7FEB7C182138302830E94C6
:102050007D190F900F900F9004C084E791E00E94CB
:102060009618D394FD2DF43131F682E791E00E9469
:1020700096180E94380CDF91CF911F910F91FF901D
:10208000EF90DF90CF900895FF920F931F93DF930F
:10209000CF93CDB7DEB729970FB6F894DEBF0FBE4A
:1020A000CDBF81E00E94600EF62E8E010F5F1F4FA4
:1020B00022E0822F29870E94600EF80161938F0130
:1020C00029852F5F2A30A9F78981882321F0CE0145
:1020D00001960E94F1068F2D0E94D0060E94E30F08
:1020E00029960FB6F894DEBF0FBECDBFCF91DF911A
:1020F0001F910F91FF9008950E949007882319F077
:102100000E94AE0511C00E94AE0500D00F9281E082
:10211000EDB7FEB7818383E891E0938382830E94C9
:102120007D190F900F900F900E94380C08950E9417
:1021300076080E94380C08950E94A6040E94160793
:102140008AE991E00E9496180E94380C0895EF9257
:10215000FF920F931F93CF93DF931092640410921A
:1021600065041092660410926704CAEAD0E0CE01BA
:1021700040E050E0BA010E94D721CE010E94B32175
:102180007B018C018AE06AE040E020E20E94DA18DC
:102190000E94380CDF91CF911F910F91FF90EF902B
:1021A00008956F927F928F929F92AF92BF92CF923B
:1021B000DF92EF92FF920F931F93CF93DF9381E013
:1021C0000E94730EA62EC72E82E00E94730E7B0122
:1021D0008C018C2D6A2CE3016E01D82EE601992426
:1021E0008824839407EC11E02DECC22E21E0D22E3E
:1021F00094ECA92E91E0B92E4BC08881992009F565
:10220000ADB7BEB719970FB6F894BEBF0FBEADBF3E
:10221000EDB7FEB7319611968C92D282C1823E0103
:1022200073821482C5831682878310860E947D196B
:102230008DB79EB709960FB6F8949EBF0FBE8DBF9F
:1022400015C000D000D00F92EDB7FEB73196ADB7F4
:10225000BEB711968C9212830183838314820E94ED
:102260007D190F900F900F900F900F909394B92DB0
:10227000B83069F400D00F92EDB7FEB78182B38217
:10228000A2820E947D190F900F900F9099242196A1
:10229000EC16FD0608F0B1CF00D00F9281E0ADB78B
:1022A000BEB711968C93119781EC91E013969C9395
:1022B0008E9312970E947D190F900F900F90DF91CF
:1022C000CF911F910F91FF90EF90DF90CF90BF9033
:1022D000AF909F908F907F906F90089581E00E94C3
:1022E000730EDB012C91EDB7FEB737970FB6F8945C
:1022F000FEBF0FBEEDBF319681E0ADB7BEB7119600
:102300008C9389ED91E092838183238314822583CA
:1023100016820E947D19EDB7FEB737960FB6F89476
:10232000FEBF0FBEEDBF0E94380C0895EF92FF92E2
:102330000F931F9381E00E94730E7B018C0182E05A
:102340000E94730EF70160831F910F91FF90EF9031
:102350000895FF920F931F93DF93CF93CDB7DEB70E
:1023600064970FB6F894DEBF0FBECDBF81E00E9428
:10237000390E8C0182E00E94600EF62E83E00E94EE
:10238000390EBC01F80180818136D9F4FF2DF5307A
:10239000A8F48E010F5F1F4FC8010E94862164E1DF
:1023A0008F2D869FB001112469527F4FC80144E1EF
:1023B00050E00E94BF2182E293E080C082E093E07F
:1023C0007DC08236D9F4EF2DE430A8F48E010F5F82
:1023D0001F4FC8010E94862164E1FF2DF69FB001C6
:1023E000112465577E4FC80144E150E00E94BF218F
:1023F0008DEF92E063C08DED92E060C08436D9F439
:102400008F2D8430A8F48E010F5F1F4FC8010E94EA
:10241000862164E1EF2DE69FB0011124655C7E4FBB
:10242000C80144E150E00E94BF2188ED92E046C01F
:1024300088EB92E043C08936D9F4FF2DF430A8F43C
:102440008E010F5F1F4FC8010E94862164E18F2D0E
:10245000869FB001112465527E4FC80144E150E0CF
:102460000E94BF2183EB92E029C083E992E026C05D
:102470008C3681F48E010F5F1F4FC8010E948621A8
:10248000C80163EC70E044E150E00E94BF218EE897
:1024900092E014C0833781F48E010F5F1F4FC80193
:1024A0000E948621C8016FEA70E044E150E00E947A
:1024B000BF2189E892E002C08AE492E00E94961867
:1024C0000E94380C64960FB6F894DEBF0FBECDBFE5
:1024D000CF91DF911F910F91FF9008951F920F925E
:1024E0000FB60F9211242F933F934F935F936F93E7
:1024F0007F938F939F93AF93BF93EF93FF938091BD
:102500005E0490915F04A0916004B0916104019613
:10251000A11DB11D80935E0490935F04A09360049D
:10252000B093610480915B048F5F80935B04843679
:10253000E9F44091640450916504609166047091DF
:1025400067044F5F5F4F6F4F7F4F4093640450931A
:10255000650460936604709367048AEA90E00E94C1
:10256000D72110925B0481E08093680481E080931E
:10257000690480915C0480936C0480918400909144
:10258000850090936B0480936A04809184009091FD
:1025900085009093630480936204109285001092EA
:1025A0008400FF91EF91BF91AF919F918F917F91A7
:1025B0006F915F914F913F912F910F900FBE0F90B0
:1025C0001F9018951F920F920FB60F9211248F93A0
:1025D00080915C048F5F80935C048F910F900FBE9D
:1025E0000F901F9018958CED97E00E9496188AED39
:1025F00097E00E9496180E94380C0E949D0B089547
:102600001F920F920FB60F9211242F933F934F9367
:102610005F936F937F938F939F93AF93BF93EF934A
:10262000FF930E94F312FF91EF91BF91AF919F91A1
:102630008F917F916F915F914F913F912F910F906B
:102640000FBE0F901F901895EF92FF920F931F935C
:10265000DF93CF93CDB7DEB764970FB6F894DEBFA4
:102660000FBECDBF7C0186EF91E00E9496188E01CF
:102670000F5F1F4FC801B70144E150E00E949B214A
:10268000C8010E945B1884EF91E00E94961864963E
:102690000FB6F894DEBF0FBECDBFCF91DF911F9173
:1026A0000F91FF90EF90089581E00E94600E82E00C
:1026B0000E94600E85EE91E00E9496188FEA90E0ED
:1026C0000E9424130E94380C08958FEA90E00E9423
:1026D00024130E94380C089582EF91E00E9496180E
:1026E000089590E070E0615070408617970711F0F0
:1026F0000E946C13089580EF91E00E94961808954F
:10270000DF92EF92FF920F931F93CF93DF9383E4B7
:1027100092E00E9496188FEA90E00E94241386E3CC
:1027200092E00E94961883EC90E00E9424138DE2C0
:1027300092E00E949618C0E0D0E0DD24D39408E235
:1027400012E064E1E62EF12C00D000D00F92EDB73C
:10275000FEB73196ADB7BEB71196DC9212830183F6
:10276000D483C3830E947D190F900F900F900F9018
:102770000F90CE9DC001CF9D900DDE9D900D112438
:1027800089529F4F0E9424130E947B138C2F65E077
:102790000E9471132196C530D105B1F60E947B13BA
:1027A0008DE192E00E949618C0E0D0E0DD24D39441
:1027B00008E112E054E1E52EF12C00D000D00F9298
:1027C000EDB7FEB73196ADB7BEB71196DC92128366
:1027D0000183D483C3830E947D190F900F900F90C3
:1027E0000F900F90CE9DC001CF9D900DDE9D900D5E
:1027F000112485579E4F0E9424130E947B138C2F17
:1028000064E00E9471132196C430D105B1F60E9494
:102810007B138DE092E00E949618C0E0D0E0DD24AA
:10282000D39408E012E044E1E42EF12C00D000D073
:102830000F92EDB7FEB73196ADB7BEB71196DC92E9
:1028400012830183D483C3830E947D190F900F905C
:102850000F900F900F90CE9DC001CF9D900DDE9DEB
:10286000900D1124855C9E4F0E9424130E947B13BF
:102870008C2F64E00E9471132196C430D105B1F60B
:102880000E947B138FEF91E00E949618C0E0D0E089
:10289000DD24D3940AEF11E034E1E32EF12C00D0D3
:1028A00000D00F92EDB7FEB73196ADB7BEB7119617
:1028B000DC9212830183D483C3830E947D190F901D
:1028C0000F900F900F900F90CE9DC001CF9D900D57
:1028D000DE9D900D112485529E4F0E9424130E946C
:1028E0007B138C2F64E00E9471132196C430D105B4
:1028F000B1F60E947B1388EF91E00E9496180E9427
:10290000380CDF91CF911F910F91FF90EF90DF90E6
:1029100008950E94111C683C71058105910594F091
:1029200080915A04882371F08CEF97E00E949618EA
:102930000E94AD0F0E947B130E94380C0E94081C5D
:102940000E949D0B08958EEE91E00E9496180895C6
:10295000FF920F931F93DF93CF9300D000D00F927D
:10296000CDB7DEB781E00E94600E6D830E94A604A1
:102970000E9416078FEF9EE9A4E281509040A0408C
:10298000E1F700C0000088E991E00E9496186D818F
:10299000662301F5FF24F3948E010F5F1F4F8F2DE7
:1029A0000E94BB07882389F00E94A3140E94AE05F1
:1029B0000E946C13C8010E94E1080E946C130E94DF
:1029C0007F050E947B130E946C13F3949F2D953119
:1029D00031F70EC06F3F19F40E94900705C0862F93
:1029E0000E94BB07882321F0CE0101960E94E108D6
:1029F0008DE891E00E9496180E94380C0F900F907D
:102A00000F900F900F90CF91DF911F910F91FF903A
:102A10000895CF92DF92EF92FF920F931F93CF937F
:102A2000DF9381E00E94600ED62E17B818B80E947E
:102A30005D0A87E00E944B0A81E00E94520A0E94D0
:102A4000A314C0E0D0E004E110E0CC24C3947BEBFD
:102A5000E72E71E0F72E0E94A314C09FC001C19F12
:102A6000900DD09F900D112489529F4F0E942413E6
:102A70000E946C138C2F0E94900A00D000D00F92FD
:102A8000EDB7FEB73196ADB7BEB71196CC92F282D4
:102A9000E182948383830E947D190F900F900F90A1
:102AA0000F900F908C2F65E00E9471132196C53016
:102AB000D10589F60E947B13DD2011F40E94380CA9
:102AC0000E94420ADF91CF911F910F91FF90EF90EA
:102AD000DF90CF900895DF92EF92FF920F931F93B4
:102AE00081E00E94600ED62E0E94A3140E94A314BF
:102AF0008BED91E00E9424130E946C13E0905E0421
:102B0000F0905F0400916004109161048AE06AE033
:102B100040E020E20E94DA180E947B130E946C13AE
:102B20000E94A3148FEE91E00E9424130E946C1364
:102B30008AEA90E00E94B3217B018C018AE06AE07E
:102B400040E020E20E94DA180E947B130E947B136F
:102B5000DD2011F40E94380C1F910F91FF90EF902F
:102B6000DF900895AF92BF92CF92DF92EF92FF92E3
:102B70000F931F93CF93DF93D9B0D294FFE0DF225E
:102B800080915D048D1509F486C08091AA02982F6A
:102B90009F5F9093AA02833308F47DC085E493E09D
:102BA0000E9496180E94A31488E393E00E9496184E
:102BB0000E946C13ED2CFF2400E010E08AE063E03B
:102BC00040E020E20E94DA180E947B130E946C13FE
:102BD0000E94A3148BE293E00E9496180E946C134B
:102BE000E0905D04ED20FF2400E010E08AE064E066
:102BF00040E020E20E94DA180E947B130E946C13CE
:102C0000C0E0D0E004E110E0CC24C394E7E2EE2E73
:102C1000E3E0FE2EAD2CBB240E94A314C09FC00194
:102C2000C19F900DD09F900D1124855C9E4F0E94F6
:102C300024130E946C1300D000D00F92EDB7FEB7A2
:102C40003196ADB7BEB71196CC92F282E182C50142
:102C50000C2E02C0959587950A94E2F781709070CA
:102C6000948383830E947D190F900F900F900F9093
:102C70000F908C2F64E00E9471132196C430D1050F
:102C800059F60E947B130E94380C0E949D0BD09233
:102C90005D041092AA02DF91CF911F910F91FF90D6
:102CA000EF90DF90CF90BF90AF900895EF92FF929A
:102CB0000F931F930E94A31483E092E00E942413B9
:102CC0000E946C13E0906404F09065040091660427
:102CD000109167048AE06AE040E020E20E94DA187E
:102CE0000E947B131F910F91FF90EF900895EF9238
:102CF000FF920F931F93CF93DF938CEE97E00E9488
:102D000096180E94A314CBEDD1E0CE010E942413AB
:102D10000E946C13E0905E04F0905F0400916004E8
:102D2000109161048AE06AE040E020E20E94DA1833
:102D30000E946C13E0906404F090650400916604B6
:102D4000109167048AE06AE040E020E20E94DA180D
:102D50000E947B130E946C130E94A314CE01449620
:102D60000E9424130E946C13E0906C04FF2400E086
:102D700010E08AE063E040E020E20E94DA180E945E
:102D80006C13E0906204F090630400E010E08AE0CD
:102D900066E040E020E20E94DA180E947B130E9465
:102DA0007B130E94380C0E949D0B10925C04DF91F3
:102DB000CF911F910F91FF90EF900895FF920F9385
:102DC0001F93DF93CF930F92CDB7DEB78FEF809332
:102DD0005904A0E2FA2E8E010F5F1F4F4FC00E94D0
:102DE000B21580916904882379F00E9477161092B9
:102DF000690485B18F2585B92C9A8FE99FE00197E9
:102E0000F1F700C000002C9880916804882379F1C4
:102E10000E945616109268042AC089818934F9F0FC
:102E20008A3428F4833469F08434F9F405C0873592
:102E300079F08A35D1F416C010925D040E94B21563
:102E400016C00E949E1F81E061E00E94D71F04C04F
:102E50000E9456160E94380C0E949D0B08C00E94CA
:102E6000771605C00E942F0CF7CF0E94240DC801D1
:102E70000E94D21E882389F60E94C80B80915904B3
:102E8000882309F0ACCF0F90CF91DF911F910F9164
:102E9000FF900895CF93DF930E94A91E60E072EC2B
:102EA00081E090E00E948F1EC9ECDEE1CE010E941D
:102EB00044180E94640BCE010E94980B0E94991F37
:102EC0000E949E1F0E94510410926804109269048F
:102ED00010925B048AEA90E00E94B321609364043C
:102EE00070936504809366049093670489B182951A
:102EF0008F7080935D0410925A040E94F71A80E04C
:102F000069E874E10E945D1B85E00E94F21A81E08D
:102F100080936F0085E08093810010925E04109290
:102F20005F04109260041092610410925C048AE0C5
:102F30008093690083E08DBB83E284B98CEF8BB909
:102F400052982D985298539888E091E06CE17FE078
:102F50000E94790B8DE091E065E673E10E94790BA8
:102F600081E191E06DE07FE00E94790B87E191E0E3
:102F700069EA71E10E94790B8DE191E060E873E10B
:102F80000E94790B83E291E064E573E10E94790B82
:102F900088E291E066E971E10E94790B8DE291E0AF
:102FA0006EE671E10E94790B82E391E061ED70E1E0
:102FB0000E94790B87E391E069E075E10E94790B4B
:102FC0008BE391E06DEA7FE00E94790B8FE391E063
:102FD0006DE87FE00E94790B86E491E06BE675E195
:102FE0000E94790B8CE491E067EA70E10E94790B12
:102FF00084E591E068EF7EE00E94790B8AE591E03C
:103000006CE770E10E94790B80E691E063EE7FE06F
:103010000E94790B87E691E06EEC7EE00E94790BCE
:103020008CE691E064E470E10E94790B83E791E023
:103030006CE970E10E94790B8BE791E068EA74E13A
:103040000E94790B82E891E067E970E10E94790BB8
:1030500089E891E063ED7EE00E94790B8EE891E0D3
:103060006EED7EE00E94790B0E949D0B0E94DE16A1
:1030700080E090E0DF91CF91089581E00E94600EA2
:10308000862F0E949D0408959093AC028093AB021A
:1030900008951F93182F8A3031F4E091AB02F0911C
:1030A000AC028DE00995E091AB02F091AC02812F6A
:1030B00009951F910895CF93DF93009739F0EC01A4
:1030C00002C00E94491889918823D9F7DF91CF91D6
:1030D0000895EF92FF920F931F93CF93DF937A019E
:1030E0000097E9F0FC0180E090E0EF018617970778
:1030F00018F000E010E010C02191EF0101962223AA
:10310000A1F7F7CF8881882311F0219601C080E2D2
:103110000E9449180F5F1F4F0E151F0598F3DF918E
:10312000CF911F910F91FF90EF900895CF93DF9370
:10313000EC01009719F407C00E944918FE0121967E
:1031400084918823C9F7DF91CF9108958AE00E9486
:1031500049180895E82FF0E0EF70F070EF5EF74F38
:1031600084910E94491808951F93182F82958F709B
:103170000E94AA18812F0E94AA181F9108951F93D8
:10318000182F892F0E94B418812F0E94B4181F9104
:103190000895EF92FF920F931F937B018C01C8015A
:1031A0000E94BF18C7010E94BF181F910F91FF9086
:1031B000EF9008952F923F924F925F927F928F925D
:1031C0009F92AF92BF92CF92DF92EF92FF920F93B6
:1031D0001F93DF93CF93CDB7DEB7A2970FB6F894C6
:1031E000DEBF0FBECDBF282E862E942E722E570125
:1031F0006801442351F017FF08C066277727CB01E9
:103200006E197F09800B910B02C0C601B50118A28F
:10321000332444245524A20191010E942F206F7071
:1032200070706F5E774FFB0164916F8FB901CA01B7
:103230008E01025E1F4F382D315021E0992009F494
:1032400020E0321BA801431B51095AA349A318C00F
:10325000611571058105910579F0A20191010E9426
:103260002F206F7070706F5E774FFB016491F801D3
:103270006083B901CA0102C0F80170820150104098
:1032800078010894E11CF11C29A13AA10217130747
:10329000F9F69920C1F0D7FE03C078018DE20AC08B
:1032A000A114B104C104D10419F078018BE202C069
:1032B000780180E2F701808306C0F70181917F01E8
:1032C0000E9449188A948820C1F7A2960FB6F894F4
:1032D000DEBF0FBECDBFCF91DF911F910F91FF9049
:1032E000EF90DF90CF90BF90AF909F908F907F90A6
:1032F0005F904F903F902F9008954F925F926F9202
:103300007F928F929F92AF92BF92CF92DF92EF9275
:10331000FF920F931F93DF93CF930F92CDB7DEB73A
:103320005C88ED88FE8857E1C52ED12CCC0EDD1EC1
:103330004AE0642E712C1AC08823A1F480E090E04A
:103340000F90CF91DF911F910F91FF90EF90DF9041
:10335000CF90BF90AF909F908F907F906F905F9035
:103360004F9008950E9449185601650197012F5FFB
:103370003F4F552021F0F7017901849103C0F701F7
:10338000808179018532C1F62F5F3F4F552021F0B2
:10339000F7017901849103C0F701808179018436B6
:1033A00029F0883781F08336E9F606C03AE0832EAB
:1033B000912C00E117E20CC0F601808122E030E0A0
:1033C000C20ED31ECFCF20E1822E912C00E010E15F
:1033D00092E0A92EB12CAC0CBD1CF601C080D180AE
:1033E0008436A9F4D7FE10C0D094C194D108D394E8
:1033F0008DE20E94491808C0C801B3010E941B2039
:103400008B016230710518F0C016D106A8F3C60111
:10341000B8010E941B20482E862F99830E94AA186B
:10342000C42C9981D92EC801B4010E941B208B01A4
:103430006115710561F799CF86E084B987E085B998
:1034400080E593EC0E94541C82E00E94091B0E94BC
:10345000711C0E947A1C88EB9BE00E94A21C88EBE6
:103460009BE00E94A71C08958854944F21E0843F5C
:1034700092072CF027E28131920724F405C084EFF3
:1034800091E002C080E197E26115710501F527C066
:1034900020918A0030918B008217930738F4209195
:1034A0008A0030918B002150304006C020918A0064
:1034B00030918B002F5F3F4F30938B0020938A0019
:1034C00020918A0030918B002817390761F02091F4
:1034D0008A0030918B0028173907D1F60895909310
:1034E0008B0080938A00089586E084B987E085B9CF
:1034F00089E09DE30E94541C85E00E94091B0E9404
:10350000711C80E090E00E94A21C0895009731F0A9
:103510002DE38930920710F089E09DE30E94A21C00
:10352000089588E284B9229A3C9A249886ED8CBD4D
:1035300008952A9808952A9A08950E949B1A8FE95F
:103540009FE00197F1F700C000000E94991A0895CA
:103550008EBD0DB407FEFDCF08950DB407FEFDCF5F
:103560008EB508950895813039F0813028F1823088
:1035700061F0833009F512C080916E00877F8093DF
:103580006E0080916E008D7F11C080916E00877FEC
:1035900080936E0080916E00826016C080916E00F4
:1035A000877F80936E0080916E00826080936E00B2
:1035B00080916E0081600DC080916E00877F809346
:1035C0006E0080916E008D7F80936E0080916E0002
:1035D0008E7F80936E0080916E00826080936E007B
:1035E000A99A089595B5987F982B95BD089582E086
:1035F0000E94F21A16BCEEE6F0E0808181608083C2
:1036000010926D0410926E0410926F041092700468
:103610000895E1E8F0E09081987F982B90830895D9
:1036200081E00E94091B1092850010928400EFE651
:10363000F0E08081816080830895E1EBF0E090818B
:10364000987F982B9083089584E00E941D1B109210
:10365000B200E0E7F0E08081816080831092750421
:103660001092760410927704109278040895E5B5CC
:10367000F0E0E770F070EE0FFF1FEE5DF74F259161
:103680003491C9010895E0918100F0E0E770F07095
:10369000EE0FFF1FEE5DF74F25913491C90108959C
:1036A000E091B100F0E0E770F070EE0FFF1FE25D17
:1036B000F74F25913491C90108958A3040F4E82FDD
:1036C000F0E0EE0FFF1FE355FD4F71836083089517
:1036D0008A3040F4E82FF0E0EE0FFF1FE355FD4F76
:1036E0001182108208951F9310E0812F0E94681BA1
:1036F0001F5F1A30D1F70E94F71A0E94101B0E9418
:10370000241B78941F910895DF92EF92FF920F93FC
:103710001F93CF93DF93EC01D6B4109271041092F3
:10372000720410927304109274040E94371B9C015F
:1037300040E050E060E074E284EF90E00E942F20CF
:1037400079018A01293B8DE8380786E0480780E047
:10375000580790F487E2C131D80770F49E0140E029
:1037600050E0C801B7010E94FC1F28EE33E040E0A2
:1037700050E00E942F2027C0C801B70128EE33E097
:1037800040E050E00E942F2079018A019E0140E034
:1037900050E0C801B7010E94FC1F9B01AC0113C09F
:1037A0008091710490917204A0917304B09174049B
:1037B00083B7817F83BF83B7816083BF889583B7D9
:1037C0008E7F83BF04C02D0D311D411D511DE09022
:1037D0007104F0907204009173041091740486B522
:1037E00090E0A0E0B0E0102F0F2DFE2CEE248E29EB
:1037F0009F29A02BB12B82179307A407B50780F24E
:10380000DF91CF911F910F91FF90EF90DF9008957E
:1038100010926D0410926E0410926F041092700456
:10382000089520916D0430916E0440916F04509181
:103830007004B901CA0108951092750410927604BB
:1038400010927704109278040895209175043091B5
:1038500076044091770450917804B901CA01089523
:10386000893049F48091800082608093800080914B
:1038700080008E7F0EC08A3021F4809180008260AB
:1038800003C0809180008D7F8093800080918000B4
:1038900081608093800010928900109288001092BD
:1038A0008B0010928A000895E0E8F0E020812E7FDE
:1038B0002083208122602083E1E8F0E020812860DD
:1038C000208320812061208390938700809386004D
:1038D000109289001092880010928B0010928A003A
:1038E0000895E0E8F0E080818068808380818F7BAC
:1038F00080830895E0E8F0E08081806280838081A9
:103900008F7E80830895E0E8F0E080818F77808368
:1039100080818F7B80830895E0E8F0E080818F7D57
:10392000808380818F7E80830895E0E8F0E080814D
:103930008D7F808380818E7F80830E94831C0E9484
:103940008C1C08959093890080938800089590932B
:103950008B0080938A000895E0EBF0E0808180681E
:10396000808380818F7B8083808181608083808160
:1039700082608083E1EBF0E08081877F808308951F
:10398000E0EBF0E080818062808380818F7E8083A5
:103990000895E0EBF0E080818F77808380818F7BDA
:1039A000808308958093B30008958093B4000895B0
:1039B0001F920F920FB60F9211242F933F934F93A4
:1039C0005F936F937F938F939F93AF93BF93EF9387
:1039D000FF9380916D0490916E04A0916F04B0915B
:1039E00070040196A11DB11D80936D0490936E0427
:1039F000A0936F04B093700480917104909172044D
:103A0000A0917304B09174040196A11DB11D80931F
:103A1000710490937204A0937304B0937404809122
:103A2000AD029091AE02009729F0E091AD02F091C5
:103A3000AE020995FF91EF91BF91AF919F918F9148
:103A40007F916F915F914F913F912F910F900FBE9A
:103A50000F901F9018951F920F920FB60F9211247E
:103A60002F933F934F935F936F937F938F939F9386
:103A7000AF93BF93EF93FF93809175049091760479
:103A8000A0917704B09178040196A11DB11D809397
:103A9000750490937604A0937704B0937804809192
:103AA000BB029091BC02009729F0E091BB02F0911B
:103AB000BC020995FF91EF91BF91AF919F918F91BA
:103AC0007F916F915F914F913F912F910F900FBE1A
:103AD0000F901F9018951F920F920FB60F921124FE
:103AE0002F933F934F935F936F937F938F939F9306
:103AF000AF93BF93EF93FF938091AF029091B00289
:103B0000009729F0E091AF02F091B0020995FF9182
:103B1000EF91BF91AF919F918F917F916F915F9145
:103B20004F913F912F910F900FBE0F901F901895BE
:103B30001F920F920FB60F9211242F933F934F9322
:103B40005F936F937F938F939F93AF93BF93EF9305
:103B5000FF938091B1029091B202009729F0E09119
:103B6000B102F091B2020995FF91EF91BF91AF912F
:103B70009F918F917F916F915F914F913F912F9185
:103B80000F900FBE0F901F9018951F920F920FB6B7
:103B90000F9211242F933F934F935F936F937F93D3
:103BA0008F939F93AF93BF93EF93FF938091B50251
:103BB0009091B602009729F0E091B502F091B6021B
:103BC0000995FF91EF91BF91AF919F918F917F9157
:103BD0006F915F914F913F912F910F900FBE0F907A
:103BE0001F9018951F920F920FB60F9211242F93CA
:103BF0003F934F935F936F937F938F939F93AF9375
:103C0000BF93EF93FF938091B7029091B802009712
:103C100029F0E091B702F091B8020995FF91EF9178
:103C2000BF91AF919F918F917F916F915F914F91D4
:103C30003F912F910F900FBE0F901F9018951F92DC
:103C40000F920FB60F9211242F933F934F935F93D0
:103C50006F937F938F939F93AF93BF93EF93FF9354
:103C60008091B9029091BA02009729F0E091B902CF
:103C7000F091BA020995FF91EF91BF91AF919F9199
:103C80008F917F916F915F914F913F912F910F9005
:103C90000FBE0F901F9018951F920F920FB60F92A4
:103CA00011242F933F934F935F936F937F938F9341
:103CB0009F93AF93BF93EF93FF938091BD02909139
:103CC000BE02009729F0E091BD02F091BE02099575
:103CD000FF91EF91BF91AF919F918F917F916F91E4
:103CE0005F914F913F912F910F900FBE0F901F90BA
:103CF00018958AE794E063EC72E040E450E00E949B
:103D0000C80A83E894E063E073E040E450E00E9476
:103D1000C80A08959093C2028093C10208959B013E
:103D2000AC0182E08093C00088E98093C10083E009
:103D3000220F331F441F551F8A95D1F760E074E2AC
:103D400084EF90E00E942F2021502093C4007894AB
:103D500008950E94791E1092C2021092C10288ED4D
:103D60008093C10060E072EC81E090E00E948F1EC1
:103D70008FEF809379041092820410928C04109239
:103D80008B04789408958AE794E0089583E894E09A
:103D900008959091C00095FFFCCF8093C6001092CB
:103DA00079040895CF93DF93EC0180917C04909186
:103DB0007D04009769F080917E0490917F040097C4
:103DC00039F08AE794E00E94D50A88838FEF01C01A
:103DD00080E0DF91CF910895DF93CF930F92CDB71D
:103DE000DEB7CE0101960E94D21E882319F02981E8
:103DF00030E002C02FEF3FEFC9010F90CF91DF916C
:103E0000089510927F0410927E04089580917E049C
:103E100090917F04009711F48FEF089580E008954A
:103E2000682F83E894E00E942D0B08958FEF809314
:103E3000820483E894E00E94D50A0E94C91E089576
:103E40001F920F920FB60F9211242F933F934F930F
:103E50005F936F937F938F939F93AF93BF93EF93F2
:103E6000FF9380918204882379F080918704909158
:103E70008804009739F083E894E00E94D50A809383
:103E8000C60005C0109282048FEF80937904FF91E1
:103E9000EF91BF91AF919F918F917F916F915F91C2
:103EA0004F913F912F910F900FBE0F901F9018953B
:103EB0001F920F920FB60F9211242F933F934F939F
:103EC0005F936F937F938F939F93AF93BF93EF9382
:103ED000FF936091C6002091C1023091C20221156A
:103EE000310539F0E091C102F091C202862F0995A7
:103EF0000FC08AE794E00E942D0B882349F480913B
:103F00008B0490918C04019690938C0480938B0485
:103F1000FF91EF91BF91AF919F918F917F916F91A1
:103F20005F914F913F912F910F900FBE0F901F9077
:103F3000189580E698E00E94961808958BE598E021
:103F40000E949618089500D000D00F92EDB7FEB7EA
:103F5000319691E0ADB7BEB711969C9325E538E058
:103F600032832183838314820E947D190F900F90E6
:103F70000F900F900F900895882349F000D00F9272
:103F800081E0EDB7FEB781838EE498E008C000D0F1
:103F90000F9281E0EDB7FEB7818387E498E09383C9
:103FA00082830E947D190F900F900F9008952DB776
:103FB0003EB7275030400FB6F8943EBF0FBE2DBF1E
:103FC000EDB7FEB7319691E0ADB7BEB711969C93B1
:103FD0002EE338E032832183838314826583168243
:103FE0000E947D192DB73EB7295F3F4F0FB6F89459
:103FF0003EBF0FBE2DBF0895629FD001739FF00199
:10400000829FE00DF11D649FE00DF11D929FF00D68
:10401000839FF00D749FF00D659FF00D9927729F9F
:10402000B00DE11DF91F639FB00DE11DF91FBD012A
:10403000CF0111240895AA1BBB1B51E107C0AA1F81
:10404000BB1FA617B70710F0A61BB70B881F991F39
:104050005A95A9F780959095BC01CD010895A1E2EC
:104060001A2EAA1BBB1BFD010DC0AA1FBB1FEE1FF2
:10407000FF1FA217B307E407F50720F0A21BB30B3D
:10408000E40BF50B661F771F881F991F1A9469F7B9
:1040900060957095809590959B01AC01BD01CF0115
:1040A00008952F923F924F925F927F928F929F92AC
:1040B000AF92BF92CF92DF92EF92FF920F931F9336
:1040C000CF93DF934B01EA016115710519F0FB01F4
:1040D00080839183209739F09E0122503040233213
:1040E000310508F0F4C0A82EB92EF50111915F0139
:1040F0007F01812F90E00E947E210097B1F71D3251
:1041000029F4F50111917F0101E006C01B3219F479
:10411000F50111917F0100E0209719F0C031D10520
:10412000B9F4103381F4F7018081883711F08835B4
:1041300051F4F701118182E090E0E80EF91E02606F
:10414000C0E1D0E005C0209719F41033C1F422C0BB
:10415000C830D105F9F0C930D10524F4C230D105F9
:1041600009F507C0CA30D10551F0C031D105D1F4ED
:1041700027C0A12CB12CC12CF0E4DF2E26C0CAE050
:10418000D0E0ECECAE2EECECBE2EECECCE2EECE067
:10419000DE2E1BC0C8E0D0E0A12CB12CC12C70E1F8
:1041A000D72E13C09E01442737FD4095542F60E061
:1041B00070E080E090E80E942F2059016A0105C05C
:1041C000A12CB12CC12C68E0D62E40E060E070E05C
:1041D000CB011E01442437FC4094542C50ED752E25
:1041E000710EE72DEA3070F0212F21542A3118F496
:1041F00039EC732E06C0212F21562A3130F529EAD9
:10420000722E710E272D30E02C173D07F4F447FD78
:1042100018C0A616B706C806D90680F0A2019101FB
:104220000E94FC1F670D711D811D911D6130F0E022
:104230007F07F0E08F07F0E89F0710F04FEF01C015
:1042400041E0F70111917F01C9CF8114910491F0F0
:10425000442339F00894E108F108F401F182E08286
:1042600009C001FF1BC0970122503040F401318387
:10427000208314C047FF12C000FF05C060E070E05B
:1042800080E090E804C06FEF7FEF8FEF9FE722E2BE
:1042900030E030938E0420938D0416C000FF08C0D8
:1042A00090958095709561957F4F8F4F9F4F0CC073
:1042B00097FF0AC082E290E090938E0480938D0471
:1042C0006FEF7FEF8FEF9FE79B01AC0103C020E012
:1042D00030E0A901B901CA01DF91CF911F910F917F
:1042E000FF90EF90DF90CF90BF90AF909F908F9016
:1042F0007F905F904F903F902F900895911164C0F0
:10430000803219F089508550D0F70895FB01DC0107
:1043100001900D920020E1F70895FB01DC0141506E
:10432000504030F08D910190801919F40020B9F7B8
:10433000881B990B0895DC01CB01FC01F999FECF94
:1043400006C0F2BDE1BDF89A319600B40D9241501D
:104350005040B8F70895F999FECF92BD81BDF89A03
:10436000992780B50895A6E1B0E044E050E00C94B0
:104370009D21A8E1B0E042E050E00C949D21DC01D9
:10438000CB0103C02D910E94CA2141505040D0F76B
:104390000895262FF999FECF1FBA92BD81BD20BD89
:1043A0000FB6F894FA9AF99A0FBE01960895242F41
:1043B0000E94CA21252F0E94CA210C94DF210E944D
:1043C000C921272F0C94CA21992788270895F8948A
:0243D000FFCF1D
:1043D2005B002C005D00220068656C700069646EF1
:1043E20000676574667700736574736E0067657441
:1043F200736E007465737400706F6B650070656531
:104402006B0064756D70006164630064696F0073B2
:10441200747265616D0067657477680072657365B3
:10442200747768007265736574006F77726F6D00E0
:104432006F776C6F6164006F777370006F77736171
:104442007665006F777374617274006F7774656D4F
:1044520070006F7764617461006F777270006F77BC
:04446200777000006F
:00000001FF
