:100000000C9438040C942F160C947F120C94550405
:100010000C9455040C9455040C9455040C94731EC4
:100020000C9455040C94521D0C94461E0C94EC1D1B
:100030000C94191E0C94BF120C94921D0C94BF1DAD
:100040000C94FF1C0C9455040C947F1F0C945504C5
:100050000C94471F0C94BF0A0C9455040C9455043F
:100060000C9455040C94550425642E004445565FA9
:100070004E4F545F464F554E44002D002D003032F8
:1000800020745F726561645F736C6F7420203A2026
:1000900025640A00303220745F726561645F7361A9
:1000A0006D7020203A2025640A00303220745F777A
:1000B000726974655F736C6F74203A2025640A005E
:1000C000303220745F77726974655F6C6F772020BF
:1000D0003A2025640A00303220745F7265736574BB
:1000E0005F72782020203A2025640A003032207484
:1000F0005F72657365745F74782020203A202564F0
:100100000A00303120745F636F6E7620202020203B
:1001100020203A2025640A004444313878323020C7
:1001200054696D696E670A002E0022002564006321
:100130006D643E004552524F523A2000636F6D6D20
:10014000616E64206E6F7420666F756E64002200AD
:1001500022007D3C2F25643E003C25643E7B2263CB
:100160006D64223A2200222C202264617461223ABA
:1001700020005D005D005D2C005B5D005B25642C54
:10018000005B00435243204572726F72005B223065
:10019000222C302C305D5D005B0031002564005B5B
:1001A0005B22504F525442222C25645D2C5B22501E
:1001B0004F525442222C25645D5D0025645D003160
:1001C000000D0A000D0A00203078257800307825CF
:1001D0007825782030782578005B25642C223078CB
:1001E0002578225D007B2274657374223A005B00DF
:1001F0005D002C00220022007D005B25642C002C79
:1002000022495251223A5B005B25642C002C22507B
:100210004F525444223A5B005B25642C002C225040
:100220004F525442223A5B005B25642C002C224141
:100230004443223A5B002C226C6F636174696F6ED9
:10024000223A007B22534E223A00224552524F520C
:10025000202D20496E76616C69642073796E74611B
:1002600078206C6162656C205B617C627C647C6977
:100270007C6C7C735D206465764E756D206C61626C
:10028000656C5F746578742200224F4B2200224F08
:100290004B2200224552524F52202D20496E76614A
:1002A0006C696420646576696365206E756D62654E
:1002B000722200224F4B2200224552524F52202DD3
:1002C00020496E76616C6964206465766963652097
:1002D0006E756D6265722200224F4B2200224552DC
:1002E000524F52202D20496E76616C6964206465FE
:1002F00076696365206E756D6265722200224F4BD0
:100300002200224552524F52202D20496E76616CB8
:10031000696420646576696365206E756D626572D7
:100320002200224F4B220025645D0022706F727400
:100330005F645F6E6577220022706F72745F645F26
:100340006E657722006972715F706F72745F6422EC
:100350002C2264617461223A5B002241767233324E
:100360003870436F6E736F6C65203332385020568F
:1003700031342E30362E313822006F7777702020BE
:1003800020202020202020202020203A2077726961
:100390007465206461746120746F20737065636993
:1003A0006669656420706167650A006F7772702006
:1003B0002020202020202020202020203A2072658C
:1003C0006164207370656369666963207061676545
:1003D0002066726F6D20333832342064657669632D
:1003E000650A006F7764617461202020202020203E
:1003F000202020203A2072656164206461746120AD
:1004000066726F6D203338323420646576696365B7
:100410000A006F7774656D70202020202020202036
:100420002020203A20726561642074656D706572C9
:100430006174757265730A006F77737461727420EA
:100440002020202020202020203A20737461727404
:100450002074656D7065726174757265206D65617B
:10046000737572656D656E740A006F77736176657A
:1004700020202020202020202020203A2073617678
:1004800065207363726174636870616420746F20A7
:10049000656570726F6D0A006F7773702020202081
:1004A0002020202020202020203A2073686F7720F1
:1004B00073637261746368207061640A006F776CA3
:1004C0006F616420202020202020202020203A203E
:1004D0006C6F616420656570726F6D20636F6E7400
:1004E000656E740A006F77726F6D202020202020C7
:1004F0002020202020203A207265616420726F6DD8
:10050000206F6620612073696E676C652064657674
:100510006963650A000A0A4F6E6577697265204350
:100520006F6D6D616E64733A0A0072657365742055
:1005300020202020202020202020203A20726573B7
:1005400065742074696D6572300A00726573657434
:100550007768202020202020202020203A2072654B
:100560007365742074686520656570726F6D2061B5
:100570006363756D756C61746F720A00676574777B
:10058000682020202020202020202020203A2067C2
:10059000657420616363756D756C61746564205763
:1005A000682072656164696E670A000A0A506F7795
:1005B0006572204D6F6E69746F72696E6720436F4C
:1005C0006D6D616E64733A0A0073747265616D20BB
:1005D000202020202020202020203A2073746172C7
:1005E000742073747265616D696E670A0064696F67
:1005F00020202020202020202020202020203A20E1
:10060000676574206469676974616C20706F7274C7
:100610002072656164696E67730A006164632020FB
:100620002020202020202020202020203A20676524
:1006300074204144432072656164696E670A0074E6
:1006400065737420202020202020202020202020BE
:100650003A20746573742066756E6374696F6E0AF0
:1006600000706F6B65205B7265675D205B76616C07
:100670005D203A20736574732072656769737465D1
:10068000722076616C756520746F205B76616C5D9D
:10069000200A007065656B205B7265675D20202015
:1006A000202020203A2072657475726E7320646574
:1006B000632C2068657820616E642062696E207604
:1006C000616C7565206F6620726567697374657209
:1006D0000A00746573742020202020202020202010
:1006E0002020203A20746573742066756E637469E7
:1006F0006F6E0A0069646E202020202020202020B8
:1007000020202020203A207072696E747320646566
:100710007669636520494420616E64207665727352
:10072000696F6E20696E666F0A000A436F6D6D61B6
:100730006E64733A0A005A202020202020202020B6
:10074000202020202020203A2072657365742063C9
:100750006F6D6D616E64206E756D62657220746F71
:10076000207A65726F0A0049202020202020202056
:1007700020202020202020203A20666F72636520F0
:10078000696E746572727570742030200A0043209F
:100790002020202020202020202020202020203A3F
:1007A00020636C6561722073637265656E0A004434
:1007B0002020202020202020202020202020202039
:1007C0003A2067657420706F727420442076616CE3
:1007D00075650A00496E7374616E7420636F6D6D88
:1007E000616E64733A0A005D006972715F31222C98
:1007F0002264617461223A5B006972715F30222C5D
:100800002264617461223A5B006972715F746F7671
:10081000665F30222C2264617461223A5B003031C1
:100820003233343536373839414243444546000087
:100830000001000800400000010004000001000861
:1008400000200040008000000100041B5B25643B89
:10085000256448001B5B3F32356C001B5B3F323523
:1008600068001B5B25646D001B5B324A001B630044
:1008700011241FBECFEFD8E0DEBFCDBF11E0A0E056
:10088000B1E0E0E2F4E402C005900D92AE38B107A9
:10089000D9F714E0AEE8B1E001C01D92A838B10765
:1008A000E1F70E946F170C940E220C940000EDE308
:1008B000F3E0119283E0E634F807D9F7109246038B
:1008C00010924703109248031092490310924A0372
:1008D00010924B0310924C0310924D03109251034F
:1008E000219A299A80E090E00E94E021909353039E
:1008F0008093520382E090E00E94E02190935503A0
:100900008093540384E090E00E94E0219093570389
:100910008093560386E090E00E94D2218093580392
:1009200087E090E00E94D2218093590388E090E014
:100930000E94D22180935A0389E090E00E94D22144
:1009400080935B03089580935103089502C00000D3
:1009500001970097E1F708951F93CF93DF93219AB2
:1009600035B1C1E0D0E0CE010090510302C0880F44
:10097000991F0A94E2F7282F2095232325B924B143
:10098000282B24B980915403909155030E94A6040A
:1009900024B1CE010090510302C0880F991F0A9420
:1009A000E2F78095822384B982E090E00E94A60459
:1009B00083B10090510302C0CC0FDD1F0A94E2F70F
:1009C0008C2383B913B180915603909157030E94F1
:1009D000A604812FDF91CF911F9108951F93CF938C
:1009E000DF93182F95B1C1E0D0E09E010090510334
:1009F00002C0220F331F0A94E2F7822F80958923C9
:100A000085B984B1822B84B98091580390E00E940B
:100A1000A604112369F094B10090510302C0CC0FD9
:100A2000DD1F0A94E2F79E012095822F892384B965
:100A30008091590390E00E94A60424B181E090E0E7
:100A40000090510302C0880F991F0A94E2F7809525
:100A5000822384B9DF91CF911F910895CF93DF93C3
:100A6000299825B181E090E00090510302C0880FE1
:100A7000991F0A94E2F7382F3095232325B924B122
:100A8000282B24B984B1832384B980915A0390E040
:100A90000E94A604299A83B1C82FD0E00090510388
:100AA00002C0D595C7950A94E2F7C170D0708091C5
:100AB0005B0390E00E94A6048C2FDF91CF910895F4
:100AC0000F931F93F89410E008E007C00E942E05D2
:100AD0008795882787951695182B0150B8F7789435
:100AE000812F1F910F9108950F931F93082FF89452
:100AF00018E005C0802F81700E94EE040695115009
:100B0000C8F778941F910F910895DF92EF92FF92AA
:100B10000F931F93CF93DF9380E091E00E948218A0
:100B2000CDE3D3E0DD24E990FF2400E010E08AE08B
:100B300063E040E020E20E9401198D2D883021F011
:100B400082E091E00E948218D3948D2D893059F76C
:100B500084E091E00E948218DF91CF911F910F9164
:100B6000FF90EF90DF900895AF92BF92CF92DF9207
:100B7000EF92FF920F931F93CF93DF9386E091E064
:100B80000E948218C6E4D3E0BB24AA24A3949CE26A
:100B9000E92E91E0F92E08E211E08AE2C82E81E008
:100BA000D82E899100D000D00F92EDB7FEB73196C4
:100BB000ADB7BEB71196AC92F282E1828383148204
:100BC0000E94A4190F900F900F900F900F90BB2DC3
:100BD000B73041F400D00F92EDB7FEB7A182D382B7
:100BE000C2820BC000D00F92ADB7BEB71196AC92C7
:100BF000119713961C930E9312970E94A4190F90AD
:100C00000F900F90B394BB2DB83059F6DF91CF9170
:100C10001F910F91FF90EF90DF90CF90BF90AF901A
:100C200008951F9300D00F9211E0ADB7BEB7119693
:100C30001C93119788E191E013969C938E931297E1
:100C40000E94A41900D0EDB7FEB73196ADB7BEB77C
:100C500011961C9382E091E09283818380915203EC
:100C600090915303948383830E94A419EDB7FEB738
:100C70003196ADB7BEB711961C938CEE90E092837F
:100C800081838091540390915503948383830E94C0
:100C9000A419EDB7FEB73196ADB7BEB711961C9348
:100CA00086ED90E092838183809156039091570363
:100CB000948383830E94A419EDB7FEB73196ADB734
:100CC000BEB711961C9380EC90E092838183809153
:100CD0005803838314820E94A419EDB7FEB731969E
:100CE000ADB7BEB711961C938AEA90E092838183D8
:100CF00080915903838314820E94A419EDB7FEB733
:100D00003196ADB7BEB711961C9384E990E09283FB
:100D1000818380915A03838314820E94A419EDB7C2
:100D2000FEB73196ADB7BEB711961C938EE790E033
:100D30009283818380915B03838314820E94A41930
:100D40000F900F900F900F900F901F910895F894AF
:100D50008430D9F0853038F4823079F0833090F4E3
:100D6000813001F507C08630B1F0863088F08730D9
:100D7000C9F414C080E090E002C082E090E00E94DC
:100D8000062210C084E090E0FACF86E090E008C030
:100D900087E090E005C088E090E002C089E090E044
:100DA0000E94F0210E945704789408950F931F9396
:100DB000CF93DF93F89406E413E0C82FD0E023E04C
:100DC000CC0FDD1F2A95E1F7C65FDF4FF801619177
:100DD0008F01CE010E94F0212196F3E00E341F070F
:100DE000A9F77894DF91CF911F910F910895282F43
:100DF000392FD901E6E4F3E08D91819383E0EF345C
:100E0000F807D1F70895CF93DF93809146038823A5
:100E100021F48CEC0E9474050CC085E50E947405D9
:100E2000C6E4D3E089910E94740583E0CE34D807EC
:100E3000C9F7DF91CF9108958CEC0E94740584E48A
:100E40000E947405089598E028E1362F382730FD78
:100E500002C0669503C0622766956068915011F0E4
:100E60008695F3CF862F0895AF92BF92DF92EF92CF
:100E7000FF920F931F93DF93CF930F92CDB7DEB7FF
:100E80007C015B01FB0110828C01DD240CC0F801A8
:100E900081918F01F501608149830E942307F5014B
:100EA0008083D3944981D41690F3F701E40FF11DA8
:100EB00081E02081F5019081291380E00F90CF918E
:100EC000DF911F910F91FF90EF90DF90BF90AF9057
:100ED0000895EF92FF920F931F93DF93CF930F929A
:100EE000CDB7DEB7E82E0E9403078EEB0E94740593
:100EF0000DE313E0FF2406C00E946005F801819312
:100F00008F01F394FE14C0F319824E2D41508DE3EE
:100F100093E0BE016F5F7F4F0E9434070F90CF9127
:100F2000DF911F910F91FF90EF9008950F931F9302
:100F3000DF93CF930F92CDB7DEB719820E94AC0436
:100F40008CEC0E9474050E94AC0483E30E9474053B
:100F500006E413E00E946005F80181938F01F3E03D
:100F60000E341F07B9F7C8010897BE016F5F7F4FA6
:100F700047E00E9434070F90CF91DF911F910F91AE
:100F80000895EF92FF920F931F93DF93CF930F92E9
:100F9000CDB7DEB7082F10E043E0000F111F4A95D0
:100FA000E1F7065F1F4F36E4E32E33E0F32EC8016E
:100FB0000E94D221F70181937F010F5F1F4FFEE452
:100FC000EF16F3E0FF0699F7C7010897BE016F5FC0
:100FD0007F4F47E00E9434070F90CF91DF911F9120
:100FE0000F91FF90EF900895CF93DF93EB0127EEE1
:100FF00033E0398328832FE037E23B832A830E9442
:10100000C107882389F10E94AC040E941C078FEF5E
:1010100093ECA9E081509040A040E1F700C00000AF
:101020000E94AC0489E00E9469078823F1F0509186
:101030003E0340E020913D0330E0242B352B3595D5
:101040002795398328836091430370E04FE85DEF73
:10105000649F9001659F300D749F300D1124205FB7
:10106000384D3B832A8301C080E0DF91CF91089502
:101070000F931F93DF93CF930F92CDB7DEB7082F57
:101080000E94AC048CEC0E9474058FE99FE00197EC
:10109000F1F700C0000088EB0E947405802F0E94C9
:1010A00074050E94AC048CEC0E947405EFE9FFE02B
:1010B0003197F1F700C000008EEB0E947405802F7D
:1010C0000E9474050DE313E00E946005F80181930E
:1010D0008F01F3E006341F07B9F71982C801099799
:1010E000BE016F5F7F4F48E00E9434070F90CF91A1
:1010F000DF911F910F9108950E94AC048CEC0E9427
:10110000740584E40E9474058FE798E3A1E08150A0
:101110009040A040E1F700C000000E94AC048CECBD
:101120000E94740584EB0E9474058FE798E3A1E0A8
:1011300081509040A040E1F700C0000080E00E9494
:1011400038080E9485050E94AC0408950F931F93F0
:10115000DF93CF930F92CDB7DEB70E94AC040E940D
:1011600003078FE99FE00197F1F700C0000088EBCB
:101170000E94740580E00E9474050E94AC040E94E5
:101180000307EFE9FFE03197F1F700C000008EEBB5
:101190000E94740580E00E9474050DE313E00E9434
:1011A0006005F80181938F01F3E006341F07B9F75A
:1011B0001982C8010997BE016F5F7F4F48E00E9406
:1011C00034070F90CF91DF911F910F910895DF9217
:1011D000EF92FF920F931F93CF93DF93EC0187EE73
:1011E00093E0DE018D939D937D018FE097E29B83D9
:1011F0008A830E94AC0480914603803109F09DC02F
:1012000089E00E946907D82E30913E0320E080914A
:101210003D0390E0822B932B9983888320913E039A
:10122000959587952F3FA1F5998388834091430336
:101230004C3068F050E021E732E0429FC001439F0C
:10124000900D529F900D11248C549D4173C00196B6
:10125000998388836091430370E041E752E0649F83
:101260009001659F300D749F300D11242C53364F23
:101270003B832A83009709F0B0C000D00F9281E031
:10128000EDB7FEB781838CE790E09383828333C010
:1012900099838883409143034D3008F43FC0019700
:1012A0009983888380913D0340914303882349F5C6
:1012B00050E021E732E0429FC001439F900D529FD2
:1012C000900D11248C549D419B838A83198218822E
:1012D000809143038D3008F480C000D00F9281E0EC
:1012E000ADB7BEB711968C9311978AE790E013962D
:1012F0009C938E9312970E94A4190F900F900F90B9
:101300006CC050E02FE83DEF429FC001439F900D1D
:10131000529F900D1124845A9B4B0CC050E02FE833
:101320003DEF429FC001439F900D529F900D1124AD
:10133000845B924E9B838A8350C0883249F589E052
:101340000E946907D82E30913E0320E080913D0332
:1013500090E0822B932B64E0959587956A95E1F751
:101360009983888330913E0320E080913D0390E093
:10137000822B932B8F70907041E752E0849F9001F5
:10138000859F300D949F300D11243B832A8325C007
:10139000863271F40E94A6088823E9F080913F0309
:1013A0008883198280913E038A83F701118213C0DA
:1013B00000D00F9281E0ADB7BEB711968C93119714
:1013C0008CE690E013969C938E9312970E94A4193A
:1013D0000F900F900F90DD24D39400D000D00F9287
:1013E000EDB7FEB7319681E0ADB7BEB711968C93DD
:1013F00088E690E0928381838881998194838383B6
:101400000E94A4190F900F900F900F900F90EA80F8
:10141000FB800027F7FC0095102F8AE064E040E095
:1014200020E30E9401198D2DDF91CF911F910F9123
:10143000FF90EF90DF9008950F931F93182F062FC2
:101440000E94AC048CEC0E9474058EE40E9474052A
:10145000812F0E947405802F0E947405802F8F5F5A
:101460000E947405802F8D5F0E947405802F8C5F11
:101470000E9474050E94AC048CEC0E94740588E400
:101480000E947405812F0E9474051F910F91089589
:10149000EAE7F0E08081877F808380818F77808397
:1014A0000895EAE7F0E09081987F982B9083089563
:1014B000ECE7F0E090818295880F880F807C9F7325
:1014C000892B80830895CF93DF93CAE7D0E088818A
:1014D0008068888388818F7D888386E00E94510A96
:1014E00081E00E94580AECE7F0E080818F7D8083E4
:1014F00088818860888310925C037894DF91CF9113
:101500000895ECE7F0E090818F71907E892B8083C5
:101510000895EAE7F0E080818061808380818064C3
:101520008083089580917A008074089510925C03FE
:1015300090917C008F71907E892B80937C008091AC
:101540007A00806180937A0080917A008064809331
:101550007A0080917A0086FDFCCF2091780030914E
:101560007900932F80E030E0282B392BC9010895B2
:101570000E94960A969587959695879508951F924D
:101580000F920FB60F9211248F938FEF80935C030D
:101590008F910F900FBE0F901F901895FC018FB781
:1015A000F894718360835383428317821682158275
:1015B00014828FBF0895FC019FB7F8944481558130
:1015C00041155105C9F026813781A081B181A20F53
:1015D000B31F8C912F5F3F4F3783268362817381C6
:1015E0002617370720F0261B370B378326834150F9
:1015F00050405583448301C080E09FBF0895FC01A3
:10160000AFB7F8942481358162177307A0F48681FF
:101610009781860F971F9783868342815381841712
:10162000950720F0841B950B97838683261B370B29
:101630003583248302C015821482AFBF0895FC0154
:10164000CB012FB7F89446815781840F951F628193
:1016500073810E9442200190F081E02DE80FF91F74
:1016600080812FBF08951F93FC01162F4FB7F89468
:10167000A481B58122813381A217B307A0F48681AA
:1016800097818A0F9B1FB9010E944220A081B181DE
:10169000A80FB91F1C93848195810196958384833B
:1016A0004FBF8FEF02C04FBF80E01F910895FC0134
:1016B0004FB7F8942281338184819581281B390B9F
:1016C0004FBFC90108952FB7F894FC011582148209
:1016D0002FBF08951092610310925D031092620370
:1016E00010925F0310925E031092600310928E01BD
:1016F00010928F01109290011092910108951F9302
:10170000CF93DF939C01EB011091600387E0189F5A
:10171000C00111248C569E4FB9010E94AD21E12FCA
:10172000F0E0EE0FFF1FEA59FD4FD183C0831F5F2A
:1017300010936003DF91CF911F91089590939301CF
:101740008093920108958DB79EB707970FB6F894CE
:101750009EBF0FBE8DBFEDB7FEB7319681E0ADB72E
:10176000BEB711968C9389E591E092838183809135
:101770008E0190918F01A0919001B091910183838E
:101780009483A583B6830E94A4198DB79EB707964C
:101790000FB6F8949EBF0FBE8DBF0895E0915E0313
:1017A000F0915F03309739F0099510925F03109222
:1017B0005E030E94A30B08951F93CF93DF93E091E4
:1017C0009201F09193018DE009950E94A30B109175
:1017D0005D03C3E6D3E007C0E0919201F09193016D
:1017E0008991099511501123B9F7DF91CF911F917C
:1017F0000895CF93DF93882319F08130F9F40BC05B
:10180000809163038823D1F083EB93E063E673E078
:101810000E94AD2113C0C3E6D3E0CE0163EB73E0B9
:101820000E94AD2109900020E9F72197C356D340CB
:10183000C0935D03C09362030E94DC0BDF91CF91E4
:10184000089580918E0190918F01A0919001B091A7
:1018500091010196A11DB11D80938E0190938F017E
:10186000A0939001B0939101089510928E0110926F
:101870008F01109290011092910108958DB79EB73B
:1018800007970FB6F8949EBF0FBE8DBFEDB7FEB79A
:10189000319681E0ADB7BEB711968C9382E591E0A9
:1018A0009283818380918E0190918F01A09190010C
:1018B000B091910183839483A583B6830E94A41978
:1018C0008DB79EB707960FB6F8949EBF0FBE8DBF1B
:1018D0000E94CD180E94210C0895CF93DF938DB7FD
:1018E0009EB707970FB6F8949EBF0FBE8DBFEDB79A
:1018F000FEB7319681E0ADB7BEB711968C9380E507
:1019000091E09283818380918E0190918F01A091CB
:101910009001B091910183839483A583B6830E9443
:10192000A419EDB7FEB737960FB6F894FEBF0FBEF9
:10193000EDBFC4E3D1E008C02196FC018491E091A1
:101940009201F09193010995CE01FE012491222389
:1019500099F7C3E6D3E005C0E0919201F0919301BD
:1019600009958991882311F08032B1F7E0919201B5
:10197000F09193018AE30995E0919201F09193012E
:1019800080E20995CCE3D1E008C02196FC01849166
:10199000E0919201F09193010995CE01FE0124910D
:1019A000222399F700D00F9281E0ADB7BEB7119610
:1019B0008C9311978EE491E013969C938E931297DB
:1019C0000E94A4190F900F900F900E943E0CDF917F
:1019D000CF9108950F931F9380E00E94F90B00E0D0
:1019E00001C00F5FE02FF0E0ED59FC4F80818032A5
:1019F00011F08823B1F7002351F186E691E00E94AF
:101A0000BD1810E01CC027E0129FC00111248C56A5
:101A10009E4F63E673E0402F50E00E94B421009790
:101A200069F4E12FF0E0EE0FFF1FEA59FD4F8081CE
:101A3000918190935F0380935E0309C01F5F809143
:101A40006003181700F30E946D0C0E94A30B1F91F6
:101A50000F9108951F93182F80916103823009F030
:101A60003FC0123461F0133418F41134B1F505C0DD
:101A7000133449F0143489F521C081E001C082E0BB
:101A80000E94F90B2AC08091620390915D03E0915E
:101A90009201F09193018917F0F48F5F80936203B4
:101AA0008BE10995E0919201F09193018BE5099505
:101AB000E0919201F091930183E40EC08091620362
:101AC000E0919201F0919301882329F08150809355
:101AD000620388E001C087E0099510926103CDC0E0
:101AE000813021F41B3511F482E0C5C010926103EE
:101AF000812F80528F3508F044C09091620380910D
:101B00005D039817B1F4E0919201F0919301812F58
:101B1000099580916203E82FF0E0ED59FC4F1083A6
:101B20008F5F8093620380915D038F5F80935D037D
:101B3000A4C08F5F80935D0309C0E82FF0E0ED59EA
:101B4000FC4FDF0111972C91208381509817A8F347
:101B5000E92FF0E0ED59FC4F10839F5F90936203F3
:101B60000E94DC0B1091620307C0E0919201F0919A
:101B7000930188E009951F5F80915D031817A8F312
:101B80007CC01A3011F01D30B1F480915D03E82F54
:101B9000F0E0ED59FC4F10828F5F80935D038091E0
:101BA00062038F5F809362030E94EA0C10925D03D0
:101BB0001092620362C01F3719F0183009F058C044
:101BC00080916203882309F44CC090915D038917CA
:101BD000E9F4E0919201F091930188E00995E09198
:101BE0009201F091930180E20995E0919201F091C8
:101BF000930188E0099580915D03815080935D0396
:101C00008091620381508093620337C0915090931A
:101C10005D0381508093620307C0E82FF0E0ED5927
:101C2000FC4F218120838F5F8917B8F30E94DC0B62
:101C3000E0919201F091930180E209951091620385
:101C400007C0E0919201F091930188E009951F5F30
:101C500020915D0330E0812F90E0281739078CF741
:101C60000CC0E0919201F091930187E0099505C0C5
:101C70001B3119F481E0809361031F91089520E0E6
:101C800001C02F5FE22FF0E0ED59FC4F90819032C0
:101C9000C1F390E014C02F5FE22FF0E0ED59FC4F4C
:101CA0003081332321F03032B1F701C02F5FE22FB2
:101CB000F0E0ED59FC4F30813032C1F39F5F98174F
:101CC00058F330E02D593C4FC9010895DF93CF936D
:101CD00000D0CDB7DEB70E943F0EBE016F5F7F4FD1
:101CE0004AE050E00E9478200F900F90CF91DF9152
:101CF0000895DF93CF9300D0CDB7DEB70E943F0E9B
:101D0000BE016F5F7F4F40E150E00E9478200F904E
:101D10000F90CF91DF910895882331F485B78C7FA0
:101D200085BF85B7862B85BF0895882321F47093DE
:101D3000A3026093A2020895882321F41092A302C3
:101D40001092A202089580E00E949C0E08951F92B6
:101D50000F920FB60F9211242F933F934F935F93DF
:101D60006F937F938F939F93AF93BF93EF93FF9363
:101D70008091A2029091A302009729F0E091A20223
:101D8000F091A3020995FF91EF91BF91AF919F91BF
:101D90008F917F916F915F914F913F912F910F9014
:101DA0000FBE0F901F9018950E9485050E943E0C53
:101DB000089581E00E94660E862F0E9438080E94D6
:101DC00085050E943E0C08951F9381E00E94660ED7
:101DD000162F82E00E94660E812F0E941C0A8FE956
:101DE0009FE00197F1F700C00000812F0E943808A2
:101DF0000E9485050E943E0C1F91089510925E047A
:101E000010925F0410926004109261041092850099
:101E1000109284001092590410925A0410925B049C
:101E200010925C048FEB91E00E94BD180E943E0C62
:101E300008958AE593E00E94BD180E943E0C089523
:101E400084ED97E00E94BD188FEA97E00E94BD18CC
:101E50008EE897E00E94BD1887E697E00E94BD18C3
:101E600086E397E00E94BD188AE297E00E94BD18C1
:101E700084EF96E00E94BD1882ED96E00E94BD18A6
:101E800083E996E00E94BD1881E696E00E94BD18A5
:101E90008FE396E00E94BD188BE196E00E94BD188A
:101EA0008DEE95E00E94BD1889EC95E00E94BD186A
:101EB0008BEA95E00E94BD188CE795E00E94BD1862
:101EC0008BE495E00E94BD188AE295E00E94BD185F
:101ED00085E195E00E94BD1885EE94E00E94BD1852
:101EE0008DEB94E00E94BD1888E994E00E94BD1833
:101EF0008AE694E00E94BD1888E394E00E94BD1831
:101F000082E194E00E94BD1883EE93E00E94BD1828
:101F10008BEA93E00E94BD188AE793E00E94BD1807
:101F2000089581E00E94660E6093540400D000D0B2
:101F30000F92EDB7FEB7319681E0ADB7BEB71196FF
:101F40008C938CE991E092838183638314820E9455
:101F5000A4190F900F900F900F900F900E943E0CBD
:101F60000895DF93CF930F92CDB7DEB781E00E9443
:101F7000660E33B129B18DB79EB707970FB6F894A7
:101F80009EBF0FBE8DBFEDB7FEB7319681E0ADB7F6
:101F9000BEB711968C938FE991E09283818333834E
:101FA00014822583168269830E94A419EDB7FEB7B7
:101FB00037960FB6F894FEBF0FBEEDBF698166235A
:101FC00011F40E943E0C0F90CF91DF910895CF92B3
:101FD000DF92EF92FF920F931F93CF93DF9381E8ED
:101FE00091E00E94BD18C0E0D0E0DD24D394CC2461
:101FF000C3948CE7E82E81E0F82E06E711E02196E5
:1020000000D000D00F92EDB7FEB73196ADB7BEB796
:102010001196CC92F282E182D483C3830E94A419E8
:102020000F900F900F900F900F908D2D0E94C10771
:10203000882319F00E94B40504C089E791E00E944A
:10204000BD18BD2DB33169F000D00F92EDB7FEB7CA
:10205000C182138302830E94A4190F900F900F90E6
:1020600004C084E791E00E94BD18D394FD2DF431A3
:1020700031F682E791E00E94BD180E943E0CDF918C
:10208000CF911F910F91FF90EF90DF90CF90089527
:10209000FF920F931F93DF93CF93CDB7DEB72997AE
:1020A0000FB6F894DEBF0FBECDBF81E00E94660E72
:1020B000F62E8E010F5F1F4F22E0822F29870E948C
:1020C000660EF80161938F0129852F5F2A30A9F7E9
:1020D0008981882321F0CE0101960E94F7068F2D79
:1020E0000E94D6060E94E70F29960FB6F894DEBF2D
:1020F0000FBECDBFCF91DF911F910F91FF9008953B
:102100000E949607882319F00E94B40511C00E940E
:10211000B40500D00F9281E0EDB7FEB7818383E86C
:1021200091E0938382830E94A4190F900F900F90E7
:102130000E943E0C08950E947C080E943E0C089567
:102140000E94AC040E941C078AE991E00E94BD181D
:102150000E943E0C0895EF92FF920F931F93CF932E
:10216000DF93109262041092630410926404109240
:102170006504CAEAD0E0CE0140E050E0BA010E9416
:10218000FE21CE010E94DA217B018C018AE06AE007
:1021900040E020E20E9401190E943E0CDF91CF91A5
:1021A0001F910F91FF90EF9008956F927F928F9201
:1021B0009F92AF92BF92CF92DF92EF92FF920F93D6
:1021C0001F93CF93DF9381E00E94790EA62EC72E36
:1021D00082E00E94790E7B018C018C2D6A2CE30138
:1021E0006E01D82EE60199248824839407EC11E02F
:1021F0002DECC22E21E0D22E94ECA92E91E0B92E26
:102200004BC08881992009F5ADB7BEB719970FB6B5
:10221000F894BEBF0FBEADBFEDB7FEB731961196B5
:102220008C92D282C1823E0173821482C58316824F
:10223000878310860E94A4198DB79EB709960FB6A2
:10224000F8949EBF0FBE8DBF15C000D000D00F9276
:10225000EDB7FEB73196ADB7BEB711968C9212832B
:102260000183838314820E94A4190F900F900F9012
:102270000F900F909394B92DB83069F400D00F925D
:10228000EDB7FEB78182B382A2820E94A4190F909B
:102290000F900F9099242196EC16FD0608F0B1CF0F
:1022A00000D00F9281E0ADB7BEB711968C93119715
:1022B00081EC91E013969C938E9312970E94A4193F
:1022C0000F900F900F90DF91CF911F910F91FF9082
:1022D000EF90DF90CF90BF90AF909F908F907F90C6
:1022E0006F90089581E00E94790EDB012C91EDB78B
:1022F000FEB737970FB6F894FEBF0FBEEDBF31960D
:1023000081E0ADB7BEB711968C9389ED91E09283D1
:10231000818323831482258316820E94A419EDB73A
:10232000FEB737960FB6F894FEBF0FBEEDBF0E9402
:102330003E0C0895EF92FF920F931F9381E00E944D
:10234000790E7B018C0182E00E94790EF701608397
:102350001F910F91FF90EF900895FF920F931F939D
:10236000DF93CF93CDB7DEB764970FB6F894DEBF97
:102370000FBECDBF81E00E943F0E8C0182E00E9423
:10238000660EF62E83E00E943F0EBC01F8018081AC
:102390008136D9F4FF2DF530A8F48E010F5F1F4F61
:1023A000C8010E94AD2164E18F2D869FB0011124E8
:1023B00069527F4FC80144E150E00E94E62182E269
:1023C00093E080C082E093E07DC08236D9F4EF2DA7
:1023D000E430A8F48E010F5F1F4FC8010E94AD21A9
:1023E00064E1FF2DF69FB001112465577E4FC801AF
:1023F00044E150E00E94E6218DEF92E063C08DED54
:1024000092E060C08436D9F48F2D8430A8F48E0118
:102410000F5F1F4FC8010E94AD2164E1EF2DE69FC1
:10242000B0011124655C7E4FC80144E150E00E9478
:10243000E62188ED92E046C088EB92E043C0893601
:10244000D9F4FF2DF430A8F48E010F5F1F4FC8019F
:102450000E94AD2164E18F2D869FB0011124655249
:102460007E4FC80144E150E00E94E62183EB92E0F8
:1024700029C083E992E026C08C3681F48E010F5F7B
:102480001F4FC8010E94AD21C80163EC70E044E118
:1024900050E00E94E6218EE892E014C0833781F478
:1024A0008E010F5F1F4FC8010E94AD21C8016FEA66
:1024B00070E044E150E00E94E62189E892E002C029
:1024C0008AE492E00E94BD180E943E0C64960FB60A
:1024D000F894DEBF0FBECDBFCF91DF911F910F915A
:1024E000FF90089589EE97E00E94BD1887EE97E06F
:1024F0000E94BD180E943E0C0E94A30B08951F92DB
:102500000F920FB60F9211242F933F934F935F9327
:102510006F937F938F939F93AF93BF93EF93FF93AB
:1025200085B190E2892785B90E947212FF91EF91DF
:10253000BF91AF919F918F917F916F915F914F91DB
:102540003F912F910F900FBE0F901F901895809183
:10255000590490915A04A0915B04B0915C040196D7
:10256000A11DB11D8093590490935A04A0935B045C
:10257000B0935C0485B192E0892785B908951F92D4
:102580000F920FB60F9211242F933F934F935F93A7
:102590006F937F938F939F93AF93BF93EF93FF932B
:1025A0000E94A712FF91EF91BF91AF919F918F91E0
:1025B0007F916F915F914F913F912F910F900FBE3F
:1025C0000F901F901895EF92FF920F931F93DF9338
:1025D000CF93CDB7DEB764970FB6F894DEBF0FBECA
:1025E000CDBF7C0186EF91E00E94BD188E010F5F88
:1025F0001F4FC801B70144E150E00E94C221C80149
:102600000E94821884EF91E00E94BD1864960FB674
:10261000F894DEBF0FBECDBFCF91DF911F910F9118
:10262000FF90EF90089581E00E94660E82E00E9484
:10263000660E85EE91E00E94BD188FEA90E00E9440
:10264000E3120E943E0C089582EF91E00E94BD18B3
:10265000089590E070E0615070408617970711F080
:102660000E942413089580EF91E00E94BD18089500
:10267000DF92EF92FF920F931F93CF93DF9383E448
:1026800092E00E94BD188FEA90E00E94E31286E378
:1026900092E00E94BD1883EC90E00E94E3128DE26C
:1026A00092E00E94BD18C0E0D0E0DD24D39408E29F
:1026B00012E064E1E62EF12C00D000D00F92EDB7CD
:1026C000FEB73196ADB7BEB71196DC921283018387
:1026D000D483C3830E94A4190F900F900F900F9082
:1026E0000F90CE9DC001CF9D900DDE9D900D1124C9
:1026F00089529F4F0E94E3120E9433138C2F65E092
:102700000E9429132196C530D105B1F60E943313DA
:102710008DE192E00E94BD18C0E0D0E0DD24D394AA
:1027200008E112E054E1E52EF12C00D000D00F9228
:10273000EDB7FEB73196ADB7BEB71196DC921283F6
:102740000183D483C3830E94A4190F900F900F902C
:102750000F900F90CE9DC001CF9D900DDE9D900DEE
:10276000112485579E4F0E94E3120E9433138C2F31
:1027700064E00E9429132196C430D105B1F60E946D
:1027800033138DE092E00E94BD18C0E0D0E0DD245C
:10279000D39408E012E044E1E42EF12C00D000D004
:1027A0000F92EDB7FEB73196ADB7BEB71196DC927A
:1027B00012830183D483C3830E94A4190F900F90C6
:1027C0000F900F900F90CE9DC001CF9D900DDE9D7C
:1027D000900D1124855C9E4F0E94E3120E943313DA
:1027E0008C2F64E00E9429132196C430D105B1F6E4
:1027F0000E9433138FEF91E00E94BD18C0E0D0E03B
:10280000DD24D3940AEF11E034E1E32EF12C00D063
:1028100000D00F92EDB7FEB73196ADB7BEB71196A7
:10282000DC9212830183D483C3830E94A4190F9086
:102830000F900F900F900F90CE9DC001CF9D900DE7
:10284000DE9D900D112485529E4F0E94E3120E943E
:1028500033138C2F64E00E9429132196C430D105D4
:10286000B1F60E94331388EF91E00E94BD180E94D8
:102870003E0CDF91CF911F910F91FF90EF90DF9071
:1028800008950E94381C683C71058105910594F0FB
:1028900080915404882371F089E098E00E94BD186B
:1028A0000E94B10F0E9433130E943E0C0E942F1C05
:1028B0000E94A30B08958EEE91E00E94BD1808952A
:1028C000FF920F931F93DF93CF9300D000D00F920E
:1028D000CDB7DEB781E00E94660E6D830E94AC0426
:1028E0000E941C078FEF9EE9A4E281509040A04017
:1028F000E1F700C0000088E991E00E94BD186D81F9
:10290000662301F5FF24F3948E010F5F1F4F8F2D77
:102910000E94C107882389F00E945B140E94B405BD
:102920000E942413C8010E94E7080E9424130E94F9
:1029300085050E9433130E942413F3949F2D953133
:1029400031F70EC06F3F19F40E94960705C0862F1D
:102950000E94C107882321F0CE0101960E94E7085A
:102960008DE891E00E94BD180E943E0C0F900F90E0
:102970000F900F900F90CF91DF911F910F91FF90CB
:102980000895CF92DF92EF92FF920F931F93CF9310
:10299000DF9381E00E94660ED62E17B818B80E9409
:1029A000630A87E00E94510A81E00E94580A0E944F
:1029B0005B14C0E0D0E004E110E0CC24C3947BEBD6
:1029C000E72E71E0F72E0E945B14C09FC001C19FEB
:1029D000900DD09F900D112489529F4F0E94E312B9
:1029E0000E9424138C2F0E94960A00D000D00F92D0
:1029F000EDB7FEB73196ADB7BEB71196CC92F28265
:102A0000E182948383830E94A4190F900F900F900A
:102A10000F900F908C2F65E00E9429132196C530EE
:102A2000D10589F60E943313DD2011F40E943E0C7B
:102A30000E94480ADF91CF911F910F91FF90EF9074
:102A4000DF90CF900895DF92EF92FF920F931F9344
:102A500081E00E94660ED62E0E945B140E945B14D9
:102A60008BED91E00E94E3120E942413E0905E043B
:102A7000F0905F0400916004109161048AE06AE0C4
:102A800040E020E20E9401190E9433130E942413A7
:102A90000E945B148FEE91E00E94E3120E942413C7
:102AA0008AEA90E00E94DA217B018C018AE06AE0E8
:102AB00040E020E20E9401190E9433130E94331368
:102AC000DD2011F40E943E0C1F910F91FF90EF90BA
:102AD000DF900895AF92BF92CF92DF92EF92FF9274
:102AE0000F931F93CF93DF93D9B0D294FFE0DF22EF
:102AF00080915D048D1509F486C08091A402982F01
:102B00009F5F9093A402833308F47DC085E493E033
:102B10000E94BD180E945B1488E393E00E94BD18D8
:102B20000E942413ED2CFF2400E010E08AE063E013
:102B300040E020E20E9401190E9433130E942413F6
:102B40000E945B148BE293E00E94BD180E94241344
:102B5000E0905D04ED20FF2400E010E08AE064E0F6
:102B600040E020E20E9401190E9433130E942413C6
:102B7000C0E0D0E004E110E0CC24C394E7E2EE2E04
:102B8000E3E0FE2EAD2CBB240E945B14C09FC0016D
:102B9000C19F900DD09F900D1124855C9E4F0E9487
:102BA000E3120E94241300D000D00F92EDB7FEB7BD
:102BB0003196ADB7BEB71196CC92F282E182C501D3
:102BC0000C2E02C0959587950A94E2F7817090705B
:102BD000948383830E94A4190F900F900F900F90FD
:102BE0000F908C2F64E00E9429132196C430D105E8
:102BF00059F60E9433130E943E0C0E94A30BD09200
:102C00005D041092A402DF91CF911F910F91FF906C
:102C1000EF90DF90CF90BF90AF900895EF92FF922A
:102C20000F931F930E945B148AEA90E00E94E312C4
:102C30000E942413E0906204F09063040091640405
:102C4000109165048AE06AE040E020E20E940119E8
:102C50000E9433131F910F91FF90EF9008951F92E0
:102C60000F920FB60F9211242F933F934F935F93C0
:102C70006F937F938F939F93AF93BF93EF93FF9344
:102C800080915E0490915F04A0916004B091610412
:102C90000196A11DB11D80935E0490935F04A093E3
:102CA0006004B09361048091550490915604A09102
:102CB0005704B09158040196A11DB11D809355048D
:102CC00090935604A0935704B0935804843691050A
:102CD000A105B105E9F48091620490916304A0918B
:102CE0006404B09165040196A11DB11D8093620436
:102CF00090936304A0936404B09365041092550408
:102D00001092560410925704109258040E940E1606
:102D100010928500109284001092590410925A0467
:102D200010925B0410925C04FF91EF91BF91AF9100
:102D30009F918F917F916F915F914F913F912F91D3
:102D40000F900FBE0F901F901895EF92FF920F9368
:102D50001F93CF93DF9389EF97E00E94BD180E94E5
:102D60005B14CBEDD1E0CE010E94E3120E9424134C
:102D7000E0905E04F0905F040091600410916104A3
:102D80008AE06AE040E020E20E9401190E942413D8
:102D9000E0906204F0906304009164041091650473
:102DA0008AE06AE040E020E20E9401190E943313A9
:102DB0000E9424130E945B14CE0144960E94E312E9
:102DC0000E942413E0905904F0905A0400915B048F
:102DD00010915C048AE063E040E020E20E94011967
:102DE0000E942413E0908400F090850000E010E041
:102DF0008AE066E040E020E20E9401190E9433135D
:102E00000E9433130E943E0C0E94A30BDF91CF91CE
:102E10001F910F91FF90EF900895CF92DF92EF9264
:102E2000FF920F931F93DF93CF930F92CDB7DEB72F
:102E3000C0905E04D0905F04E0906004F090610464
:102E40008FEF809353048E010F5F1F4F3AC00E9493
:102E50006A1580915E0490915F04A0916004B09126
:102E60006104C816D906EA06FB06D1F423C089819D
:102E7000843451F0853418F48334D1F40AC0893491
:102E800079F08A35A9F40FC010925D040E946A158A
:102E900011C00E94C51F81E061E00E94FE1F05C0B5
:102EA0000E94A51607C00E94350C0E94A30B02C009
:102EB0000E942A0DC8010E94F91E8823C1F60E94B3
:102EC000CE0B80915304882311F60F90CF91DF91A0
:102ED0001F910F91FF90EF90DF90CF900895CF93C7
:102EE000DF930E94D01E60E072EC81E090E00E94CF
:102EF000B61EC0EFDEE1CE010E946B180E946A0B85
:102F0000CE010E949E0B0E94C01F0E94C51F0E94FE
:102F100057041092550410925604109257041092C0
:102F200058048AEA90E00E94DA2160936204709368
:102F30006304809364049093650489B182958F70D3
:102F400080935D04109254040E941E1B80E061E493
:102F500074E10E94841B85E00E94191B81E080932C
:102F60006F0085E08093810010925E0410925F04F0
:102F700010926004109261041092590410925A0445
:102F800010925B0410925C048AE08093690083E0F5
:102F90008DBB83E284B98CEF8BB952982D9A5298ED
:102FA000539888E091E060E27FE00E947F0B8DE023
:102FB00091E069E17FE00E947F0B81E191E06DEAA1
:102FC00071E10E947F0B87E191E068E373E10E9469
:102FD0007F0B8DE191E063E173E10E947F0B82E260
:102FE00091E06AE971E10E947F0B87E291E062E77C
:102FF00071E10E947F0B8CE291E065ED70E10E942F
:103000007F0B81E391E061EC74E10E947F0B85E32B
:1030100091E061EB7FE00E947F0B89E391E061E941
:103020007FE00E947F0B80E491E063E275E10E9403
:103030007F0B86E491E06BEA70E10E947F0B8EE4E7
:1030400091E06EEF7EE00E947F0B84E591E060E806
:1030500070E10E947F0B8AE591E067EE7FE00E94BD
:103060007F0B81E691E064ED7EE00E947F0B86E6B7
:1030700091E068E470E10E947F0B8DE691E060EAE8
:1030800070E10E947F0B85E791E060E674E10E94A9
:103090007F0B8CE791E06BE970E10E947F0B83E886
:1030A00091E069ED7EE00E947F0B88E891E064EE9C
:1030B0007EE00E947F0B0E94A30B0E940D1780E010
:1030C00090E0DF91CF91089581E00E94660E862FF7
:1030D0000E94A30408959093A6028093A5020895E8
:1030E0001F93182F8A3031F4E091A502F091A602C7
:1030F0008DE00995E091A502F091A602812F099536
:103100001F910895CF93DF93009739F0EC0102C02F
:103110000E94701889918823D9F7DF91CF91089583
:10312000EF92FF920F931F93CF93DF937A01009753
:10313000E9F0FC0180E090E0EF018617970718F0B6
:1031400000E010E010C02191EF0101962223A1F7C9
:10315000F7CF8881882311F0219601C080E20E9478
:1031600070180F5F1F4F0E151F0598F3DF91CF9159
:103170001F910F91FF90EF900895CF93DF93EC0193
:10318000009719F407C00E947018FE0121968491DF
:103190008823C9F7DF91CF9108958AE00E947018C3
:1031A0000895E82FF0E0EF70F070E25EF74F849141
:1031B0000E94701808951F93182F82958F700E9497
:1031C000D118812F0E94D1181F9108951F93182F95
:1031D000892F0E94DB18812F0E94DB181F91089510
:1031E000EF92FF920F931F937B018C01C8010E9405
:1031F000E618C7010E94E6181F910F91FF90EF900B
:1032000008952F923F924F925F927F928F929F925A
:10321000AF92BF92CF92DF92EF92FF920F931F93E4
:10322000DF93CF93CDB7DEB7A2970FB6F894DEBF8A
:103230000FBECDBF282E862E942E722E5701680108
:10324000442351F017FF08C066277727CB016E197A
:103250007F09800B910B02C0C601B50118A233246F
:1032600044245524A20191010E9456206F70707071
:10327000625E774FFB0164916F8FB901CA018E01C5
:10328000025E1F4F382D315021E0992009F420E0D3
:10329000321BA801431B51095AA349A318C0611549
:1032A00071058105910579F0A20191010E945620D6
:1032B0006F707070625E774FFB016491F8016083FC
:1032C000B901CA0102C0F8017082015010407801B2
:1032D0000894E11CF11C29A13AA102171307F9F681
:1032E0009920C1F0D7FE03C078018DE20AC0A11475
:1032F000B104C104D10419F078018BE202C0780155
:1033000080E2F701808306C0F70181917F010E946E
:1033100070188A948820C1F7A2960FB6F894DEBF81
:103320000FBECDBFCF91DF911F910F91FF90EF9016
:10333000DF90CF90BF90AF909F908F907F905F90E5
:103340004F903F902F9008954F925F926F927F928F
:103350008F929F92AF92BF92CF92DF92EF92FF92A5
:103360000F931F93DF93CF930F92CDB7DEB75C8897
:10337000ED88FE8857E1C52ED12CCC0EDD1E4AE02B
:10338000642E712C1AC08823A1F480E090E00F9085
:10339000CF91DF911F910F91FF90EF90DF90CF9031
:1033A000BF90AF909F908F907F906F905F904F9065
:1033B00008950E9470185601650197012F5F3F4FD5
:1033C000552021F0F7017901849103C0F701808134
:1033D00079018532C1F62F5F3F4F552021F0F7016B
:1033E0007901849103C0F70180817901843629F045
:1033F000883781F08336E9F606C03AE0832E912CB7
:1034000000E117E20CC0F601808122E030E0C20E3C
:10341000D31ECFCF20E1822E912C00E010E192E06C
:10342000A92EB12CAC0CBD1CF601C080D180843615
:10343000A9F4D7FE10C0D094C194D108D3948DE2E2
:103440000E94701808C0C801B3010E9442208B017D
:103450006230710518F0C016D106A8F3C601B80194
:103460000E944220482E862F99830E94D118C42C96
:103470009981D92EC801B4010E9442208B016115A7
:10348000710561F799CF86E084B987E085B980E559
:1034900093EC0E947B1C82E00E94301B0E94981CCF
:1034A0000E94A11C88EB9BE00E94C91C88EB9BE05A
:1034B0000E94CE1C08958854944F21E0843F9207C7
:1034C0002CF027E28131920724F405C084EF91E0CB
:1034D00002C080E197E26115710501F527C02091D6
:1034E0008A0030918B008217930738F420918A006C
:1034F00030918B002150304006C020918A003091DD
:103500008B002F5F3F4F30938B0020938A002091D8
:103510008A0030918B002817390761F020918A00CA
:1035200030918B0028173907D1F6089590938B00BE
:1035300080938A00089586E084B987E085B989E0A0
:103540009DE30E947B1C85E00E94301B0E94981C1A
:1035500080E090E00E94C91C0895009731F02DE3AF
:103560008930920710F089E09DE30E94C91C0895FC
:1035700088E284B9229A3C9A249886ED8CBD0895FD
:103580002A9808952A9A08950E94C21A8FE99FE006
:103590000197F1F700C000000E94C01A08958EBD87
:1035A0000DB407FEFDCF08950DB407FEFDCF8EB517
:1035B00008950895813039F0813028F1823061F02A
:1035C000833009F512C080916E00877F80936E0072
:1035D00080916E008D7F11C080916E00877F8093F7
:1035E0006E0080916E00826016C080916E00877FB1
:1035F00080936E0080916E00826080936E00809157
:103600006E0081600DC080916E00877F80936E0098
:1036100080916E008D7F80936E0080916E008E7F12
:1036200080936E0080916E00826080936E00A99AF4
:10363000089595B5987F982B95BD089582E00E94D6
:10364000191B16BCEEE6F0E0808181608083109249
:103650006604109267041092680410926904089539
:10366000E1E8F0E09081987F982B9083089581E0C5
:103670000E94301B1092850010928400EFE6F0E06B
:103680008081816080830895E1EBF0E09081987FF4
:10369000982B9083089584E00E94441B1092B200FE
:1036A000E0E7F0E080818160808310926E041092E8
:1036B0006F0410927004109271040895E5B5F0E063
:1036C000E770F070EE0FFF1FE15DF74F2591349129
:1036D000C9010895E0918100F0E0E770F070EE0F0D
:1036E000FF1FE15DF74F25913491C9010895E091E5
:1036F000B100F0E0E770F070EE0FFF1FE55CF74FF0
:1037000025913491C90108958A3040F4E82FF0E002
:10371000EE0FFF1FE955FD4F7183608308958A30D6
:1037200040F4E82FF0E0EE0FFF1FE955FD4F118246
:10373000108208951F9310E0812F0E948F1B1F5F3E
:103740001A30D1F70E941E1B0E94371B0E944B1B90
:1037500078941F910895DF92EF92FF920F931F9339
:10376000CF93DF93EC01D6B410926A0410926B04ED
:1037700010926C0410926D040E945E1B9C0140E04C
:1037800050E060E074E284EF90E00E9456207901FE
:103790008A01293B8DE8380786E0480780E0580712
:1037A00090F487E2C131D80770F49E0140E050E008
:1037B000C801B7010E94232028EE33E040E050E02A
:1037C0000E94562027C0C801B70128EE33E040E030
:1037D00050E00E94562079018A019E0140E050E0AD
:1037E000C801B7010E9423209B01AC0113C0809146
:1037F0006A0490916B04A0916C04B0916D0483B73E
:10380000817F83BF83B7816083BF889583B78E7FB5
:1038100083BF04C02D0D311D411D511DE0906A0470
:10382000F0906B0400916C0410916D0486B590E0EB
:10383000A0E0B0E0102F0F2DFE2CEE248E299F2942
:10384000A02BB12B82179307A407B50780F2DF9155
:10385000CF911F910F91FF90EF90DF9008951092FC
:103860006604109267041092680410926904089527
:103870002091660430916704409168045091690476
:10388000B901CA01089510926E0410926F0410924B
:10389000700410927104089520916E0430916F04A9
:1038A0004091700450917104B901CA0108958930A2
:1038B00049F4809180008260809380008091800034
:1038C0008E7F0EC08A3021F480918000826003C018
:1038D000809180008D7F8093800080918000816046
:1038E00080938000109289001092880010928B00C3
:1038F00010928A000895E0E8F0E020812E7F208376
:10390000208122602083E1E8F0E02081286020838C
:1039100020812061208390938700809386001092FD
:1039200089001092880010928B0010928A000895EE
:10393000E0E8F0E080818068808380818F7B8083F5
:103940000895E0E8F0E080818062808380818F7E4E
:1039500080830895E0E8F0E080818F778083808124
:103960008F7B80830895E0E8F0E080818F7D808305
:1039700080818F7E80830895E0E8F0E080818D7FF4
:10398000808380818E7F80830E94AA1C0E94B31C4A
:1039900008959093890080938800089590938B00F8
:1039A00080938A000895E0EBF0E080818068808356
:1039B00080818F7B80838081816080838081826031
:1039C0008083E1EBF0E08081877F80830895E0EBE6
:1039D000F0E080818062808380818F7E8083089583
:1039E000E0EBF0E080818F77808380818F7B808324
:1039F00008958093B30008958093B40008951F92B2
:103A00000F920FB60F9211242F933F934F935F9312
:103A10006F937F938F939F93AF93BF93EF93FF9396
:103A20008091660490916704A0916804B091690444
:103A30000196A11DB11D8093660490936704A09325
:103A40006804B093690480916A0490916B04A0911A
:103A50006C04B0916D040196A11DB11D80936A04A0
:103A600090936B04A0936C04B0936D048091A702B3
:103A70009091A802009729F0E091A702F091A80286
:103A80000995FF91EF91BF91AF919F918F917F9198
:103A90006F915F914F913F912F910F900FBE0F90BB
:103AA0001F9018951F920F920FB60F9211242F930B
:103AB0003F934F935F936F937F938F939F93AF93B6
:103AC000BF93EF93FF9380916E0490916F04A09148
:103AD0007004B09171040196A11DB11D80936E0414
:103AE00090936F04A0937004B09371048091B50219
:103AF0009091B602009729F0E091B502F091B602DC
:103B00000995FF91EF91BF91AF919F918F917F9117
:103B10006F915F914F913F912F910F900FBE0F903A
:103B20001F9018951F920F920FB60F9211242F938A
:103B30003F934F935F936F937F938F939F93AF9335
:103B4000BF93EF93FF938091A9029091AA020097EF
:103B500029F0E091A902F091AA020995FF91EF9155
:103B6000BF91AF919F918F917F916F915F914F9195
:103B70003F912F910F900FBE0F901F9018951F929D
:103B80000F920FB60F9211242F933F934F935F9391
:103B90006F937F938F939F93AF93BF93EF93FF9315
:103BA0008091AB029091AC02009729F0E091AB02BA
:103BB000F091AC020995FF91EF91BF91AF919F9168
:103BC0008F917F916F915F914F913F912F910F90C6
:103BD0000FBE0F901F9018951F920F920FB60F9265
:103BE00011242F933F934F935F936F937F938F9302
:103BF0009F93AF93BF93EF93FF938091AF02909108
:103C0000B002009729F0E091AF02F091B00209955F
:103C1000FF91EF91BF91AF919F918F917F916F91A4
:103C20005F914F913F912F910F900FBE0F901F907A
:103C300018951F920F920FB60F9211242F933F9356
:103C40004F935F936F937F938F939F93AF93BF93A4
:103C5000EF93FF938091B1029091B202009729F007
:103C6000E091B102F091B2020995FF91EF91BF91FD
:103C7000AF919F918F917F916F915F914F913F9104
:103C80002F910F900FBE0F901F9018951F920F92BB
:103C90000FB60F9211242F933F934F935F936F931F
:103CA0007F938F939F93AF93BF93EF93FF938091F5
:103CB000B3029091B402009729F0E091B302F09121
:103CC000B4020995FF91EF91BF91AF919F918F91B0
:103CD0007F916F915F914F913F912F910F900FBE08
:103CE0000F901F9018951F920F920FB60F921124EC
:103CF0002F933F934F935F936F937F938F939F93F4
:103D0000AF93BF93EF93FF938091B7029091B80266
:103D1000009729F0E091B702F091B8020995FF9160
:103D2000EF91BF91AF919F918F917F916F915F9133
:103D30004F913F912F910F900FBE0F901F901895AC
:103D400083E794E06DEB72E040E450E00E94CE0A1D
:103D50008CE794E06DEF72E040E450E00E94CE0A00
:103D600008959093BC028093BB0208959B01AC011F
:103D700082E08093C00088E98093C10083E0220F35
:103D8000331F441F551F8A95D1F760E074E284EF1A
:103D900090E00E94562021502093C400789408950A
:103DA0000E94A01E1092BC021092BB0288ED80936C
:103DB000C10060E072EC81E090E00E94B61E8FEFDF
:103DC0008093720410927B041092850410928404F4
:103DD0007894089583E794E008958CE794E008953B
:103DE0009091C00095FFFCCF8093C60010927204A2
:103DF0000895CF93DF93EC01809175049091760440
:103E0000009769F08091770490917804009739F0D9
:103E100083E794E00E94DB0A88838FEF01C080E093
:103E2000DF91CF910895DF93CF930F92CDB7DEB797
:103E3000CE0101960E94F91E882319F0298130E0F5
:103E400002C02FEF3FEFC9010F90CF91DF9108958E
:103E500010927804109277040895809177049091DD
:103E60007804009711F48FEF089580E00895682F8B
:103E70008CE794E00E94330B08958FEF80937B04CE
:103E80008CE794E00E94DB0A0E94F01E08951F92C6
:103E90000F920FB60F9211242F933F934F935F937E
:103EA0006F937F938F939F93AF93BF93EF93FF9302
:103EB00080917B04882379F0809180049091810423
:103EC000009739F08CE794E00E94DB0A8093C600EB
:103ED00005C010927B048FEF80937204FF91EF91E5
:103EE000BF91AF919F918F917F916F915F914F9112
:103EF0003F912F910F900FBE0F901F9018951F921A
:103F00000F920FB60F9211242F933F934F935F930D
:103F10006F937F938F939F93AF93BF93EF93FF9391
:103F20006091C6002091BB023091BC022115310581
:103F300039F0E091BB02F091BC02862F09950FC0C9
:103F400083E794E00E94330B882349F48091840432
:103F50009091850401969093850480938404FF9149
:103F6000EF91BF91AF919F918F917F916F915F91F1
:103F70004F913F912F910F900FBE0F901F9018956A
:103F80008DE698E00E94BD18089588E698E00E94AA
:103F9000BD18089500D000D00F92EDB7FEB731964E
:103FA00091E0ADB7BEB711969C9322E638E032831C
:103FB0002183838314820E94A4190F900F900F9085
:103FC0000F900F900895882349F000D00F9281E060
:103FD000EDB7FEB781838BE598E008C000D00F9263
:103FE00081E0EDB7FEB7818384E598E09383828317
:103FF0000E94A4190F900F900F9008952DB73EB70F
:10400000275030400FB6F8943EBF0FBE2DBFEDB71E
:10401000FEB7319691E0ADB7BEB711969C932BE4F5
:1040200038E03283218383831482658316820E9461
:10403000A4192DB73EB7295F3F4F0FB6F8943EBF86
:104040000FBE2DBF0895629FD001739FF001829F24
:10405000E00DF11D649FE00DF11D929FF00D839F17
:10406000F00D749FF00D659FF00D9927729FB00DB4
:10407000E11DF91F639FB00DE11DF91FBD01CF01C7
:1040800011240895AA1BBB1B51E107C0AA1FBB1F27
:10409000A617B70710F0A61BB70B881F991F5A95D4
:1040A000A9F780959095BC01CD010895A1E21A2E43
:1040B000AA1BBB1BFD010DC0AA1FBB1FEE1FFF1FCC
:1040C000A217B307E407F50720F0A21BB30BE40B1C
:1040D000F50B661F771F881F991F1A9469F7609563
:1040E0007095809590959B01AC01BD01CF0108951D
:1040F0002F923F924F925F927F928F929F92AF92B8
:10410000BF92CF92DF92EF92FF920F931F93CF93C4
:10411000DF934B01EA016115710519F0FB01808302
:104120009183209739F09E0122503040233231058F
:1041300008F0F4C0A82EB92EF50111915F017F019E
:10414000812F90E00E94A5210097B1F71D3229F43C
:10415000F50111917F0101E006C01B3219F4F50150
:1041600011917F0100E0209719F0C031D105B9F419
:10417000103381F4F7018081883711F0883551F4CC
:10418000F701118182E090E0E80EF91E0260C0E1C3
:10419000D0E005C0209719F41033C1F422C0C83014
:1041A000D105F9F0C930D10524F4C230D10509F5A3
:1041B00007C0CA30D10551F0C031D105D1F427C0B4
:1041C000A12CB12CC12CF0E4DF2E26C0CAE0D0E037
:1041D000ECECAE2EECECBE2EECECCE2EECE0DE2EBB
:1041E0001BC0C8E0D0E0A12CB12CC12C70E1D72EAF
:1041F00013C09E01442737FD4095542F60E070E0C6
:1042000080E090E80E94562059016A0105C0A12C67
:10421000B12CC12C68E0D62E40E060E070E0CB010C
:104220001E01442437FC4094542C50ED752E710E21
:10423000E72DEA3070F0212F21542A3118F439EC9F
:10424000732E06C0212F21562A3130F529EA722E0D
:10425000710E272D30E02C173D07F4F447FD18C0F0
:10426000A616B706C806D90680F0A20191010E94E1
:104270002320670D711D811D911D6130F0E07F07C6
:10428000F0E08F07F0E89F0710F04FEF01C041E02A
:10429000F70111917F01C9CF8114910491F044235A
:1042A00039F00894E108F108F401F182E08209C0D4
:1042B00001FF1BC0970122503040F401318320835D
:1042C00014C047FF12C000FF05C060E070E080E04E
:1042D00090E804C06FEF7FEF8FEF9FE722E230E0BE
:1042E000309387042093860416C000FF08C0909581
:1042F0008095709561957F4F8F4F9F4F0CC097FFB2
:104300000AC082E290E090938704809386046FEF66
:104310007FEF8FEF9FE79B01AC0103C020E030E00F
:10432000A901B901CA01DF91CF911F910F91FF90AF
:10433000EF90DF90CF90BF90AF909F908F907F9045
:104340005F904F903F902F900895911164C08032FC
:1043500019F089508550D0F70895FB01DC010190D8
:104360000D920020E1F70895FB01DC01415050401F
:1043700030F08D910190801919F40020B9F7881B55
:10438000990B0895DC01CB01FC01F999FECF06C021
:10439000F2BDE1BDF89A319600B40D924150504003
:1043A000B8F70895F999FECF92BD81BDF89A992783
:1043B00080B50895A6E1B0E044E050E00C94C4213B
:1043C000A8E1B0E042E050E00C94C421DC01CB0154
:1043D00003C02D910E94F12141505040D0F7089523
:1043E000262FF999FECF1FBA92BD81BD20BD0FB611
:1043F000F894FA9AF99A0FBE01960895242F0E9414
:10440000F121252F0E94F1210C9406220E94F02117
:10441000272F0C94F121992788270895F894FFCF2E
:104420005B002C005D00220068656C700069646EA2
:1044300000736574736E00676574736E00746573E2
:104440007400706F6B65007065656B0064756D70EE
:10445000006164630064696F0073747265616D006C
:104460006765747768007265736574776800726554
:10447000736574006F77726F6D006F776C6F616436
:10448000006F777370006F7773617665006F777375
:1044900074617274006F7774656D70006F7764611A
:0E44A0007461006F777270006F7777700000A4
:00000001FF
